:10000000C00A002041250000490302004903020004
:10001000532C020049030200490302004903020075
:100020004903020049030200490302004903020098
:10003000490302004903020065FE01004903020072
:100040004903020049030200490302004903020078
:100050004903020049030200490302004903020068
:100060004903020049030200490302004903020058
:10007000A33002004903020049030200E12200000C
:10008000D122000049030200490302004903020093
:1000900049030200C12F0000490302004903020086
:1000A00049030200450902001D090200490302003C
:1000B00049030200F9C301004903020055CE0100C3
:1000C000B3A50200AFA5020045C60100BFA502000E
:1000D000B7A502002DCE0100BBA5020095CE010000
:1000E0002DA70100F1A8010005CF0100490302007E
:1000F00049030200490302004903020049030200C8
:1001000049030200490302004903020049030200B7
:1001100049030200490302004903020049030200A7
:100120004903020049030200490302004903020097
:100130004903020049030200490302004903020087
:10014000002370B5404C05468AB0E36318B10088BF
:10015000236010F07BF83D4829F0D2FC3C4E3D4B2B
:10016000304633603C4B736026F097FE00213046EA
:1001700016F0CEF932A3D3E90023A062C4E9062326
:1001800026F096FED4E9062319431043C4E906017C
:10019000CDE900014FF0FF334FF0FF32A06A29F0A4
:1001A0002AFD02224FF0FF31A06A29F029FD01202B
:1001B0000FF0C6FD4FF4007300222849A06A29F011
:1001C00073FDB0F5007F38D100239422CDE90733C9
:1001D00009933C23CDE9033205939623A06A03A932
:1001E000069316F0B3FA35B3287C10F0AFF9054644
:1001F000F0B9A06A29F039FE10F056F90FF082FD2F
:1002000020B14FF4807000210DF0F4FD0FF08AFD55
:1002100020B14FF4006000210DF0ECFD26F00BFF43
:10022000012016F0C9F90E4A0E49A06A26F033FEE5
:1002300028460AB070BDFF20D7E70725F8E700BFC2
:100240000DD501552000000048120020690345EC3F
:10025000C0250020C5FB0000D0250020C0230020C1
:100260003F6E02007F6E02002DE9F04FC76997B024
:100270008346209E08910C92129355EC104B8DED05
:10028000000B7FB910201DF027FA0246CBF81C00A6
:1002900020B9A74BEF21A7481EF00EFDC0E901775A
:1002A0000760C760DBF81C30196859B15A68012330
:1002B000584693404A608B601EF08EF8DBF81C3085
:1002C00000221A602B1EB7BF23F000430023012237
:1002D0000193A8BF3360019F974BB8BF3260BB4307
:1002E00019D142F20F73129A1360C7F31303234319
:1002F00000F0DB85219B53B9904B21E0904B039399
:100300000833219A1360039817B0BDE8F08F8B4B28
:1003100003930333F5E79DED007B0022002351ECAE
:10032000170B8DED0A7B1FF0A3FC804650B1012313
:10033000129A1360219B13B1824B219A1360824B56
:100340000393E0E7C7F30A5614AA15A958469DED92
:100350000A0B1EF0C9FA0290002E76D00B9BA6F273
:10036000FF36CDF84C80C3F3130343F07F53DDE930
:100370000A0143F4401319460022744B1CF04AFE54
:1003800065A3D3E900231FF00BFA65A3D3E900238B
:100390001CF042FE04460D4630461CF089FF62A365
:1003A000D3E900231FF0FCF902460B4620462946FC
:1003B0001CF032FE04460D461FF0A2FC0022074648
:1003C0000023204629461FF05DFC40B138461CF052
:1003D0006FFF22462B461FF04BFC00B9013F162F42
:1003E00052D85B4B03EBC703DDE90A01D3E90023D5
:1003F0001FF048FC002849D0013F00231193149BB3
:100400009B1B5A1E4CBFC3F101030023079245BF3B
:100410000693002306930793002F39DB079B109761
:100420003B44079300230993089B092B66D8052BAF
:10043000C5BF043B002401240893089B023B032B07
:1004400067D8DFE803F02D3A3859DDE914631E441C
:1004500006F23243202BC9BFC3F14003C3F120038E
:100460009F4006F21243D8BF04FA03F006F1FF36AC
:10047000C4BF24FA03F347EA03001CF009FF01227A
:10048000A1F1F873139276E70123B7E71190B6E76D
:10049000069BDB1B06937B42099300231093C3E763
:1004A00000230D930C9B002B56DC012399461A4622
:1004B00004930C920CE00123F3E700230D930C9BB3
:1004C000FB1803F1010904934B46012BB8BF01232C
:1004D000DBF81C000021042202F114059D423FD9E3
:1004E000416058461DF038FF039000283BD1194B5E
:1004F000024640F2AF11CEE60123DFE701240023DC
:100500000D9408934FF0FF33002299460493122371
:10051000CFE701230D93F5E761436F63A787D23FD0
:10052000B3C8608B288AC63FFB799F501344D33FE2
:1005300026F902003DF902000000F07F22F90200D6
:1005400019F90200F6F80200F5F802000000F83F81
:1005500038FA020096F902000C9B99460493B7E71B
:1005600001315200B8E7DBF81C30B9F10E0F039AE5
:100570001A606FD8002C6DD0002F36DD07F00F0207
:10058000A04BF8054FEA271403EBC20393ED007B61
:100590008DED0E7B17D59C4B04F00F044FF0030834
:1005A000D3E90823DDE90A011FF024FACDE90001AF
:1005B000954D5CB9DDE90E23DDE900011FF01AFA63
:1005C000CDE900012BE04FF00208F1E7E10709D582
:1005D00008F10108DDE90E01D5E900231FF0E0F87C
:1005E000CDE90E0164100835E3E700F007817C4295
:1005F000844B854D4FF0020804F00F02241103EBE9
:10060000C203DDE90A01D3E900231FF0C9F8002382
:10061000CDE90001002C40F0E580002BD0D1119BEA
:10062000DDE90045002B00F04C810022774B20468D
:1006300029461FF027FB002800F04381B9F1000F85
:1006400000F03F81049B002B00F3E480DDE90A34D5
:10065000CDE90034159B002B02DB0E2F40F34282C4
:100660000D9A002A40F06782099C0025DDF8188069
:10067000B8F1000F0DD0079B002B0ADD4345069A09
:10068000A8BF4346D21AA8EB03080692079AD31ACA
:100690000793099B0BB30D9B002B00F0A682002C47
:1006A00000F0A1822946224658461DF0BFFF029A5B
:1006B0000146054658461DF00FFF0299064658466A
:1006C0001DF08AFE099B1B1B099300F09182099A79
:1006D000314658461DF0AAFF0290012158461DF0F0
:1006E000E5FE109B0446002B00F084821A4601466A
:1006F00058461DF09BFF089B0446012B03DC009B22
:10070000002B00F07C820026236904EB8303186928
:100710002AF0D8F9C0F120001096079B184410F079
:100720001F0000F09182C0F12003042B40F381826E
:10073000C0F11C00069B034480440693079B0344BE
:100740000793069B002B05DD1A46029958461DF0BB
:10075000C7FF0290079B002B05DD21461A4658462D
:100760001DF0BEFF0446119B002B00F0768221464F
:1007700002982AF0F6F9002880F26F8200230A22FC
:10078000029958461DF04AFE0D9B7E1E0290002BDA
:1007900000F05C82002329460A2258461DF03EFEE6
:1007A000049B0546002B03DC089B022B00F35E82B2
:1007B000B8F1000F05DD2946424658461DF090FF6E
:1007C0000546109B002B00F0D082696858461DF04A
:1007D000C3FD0746002840F07F820D4B024640F2E1
:1007E000EF2158E5E20706D508F10108D5E9002315
:1007F0001EF0D6FF0123641008350BE74FF0020806
:100800000DE700BF38FA020010FA02000000F03FC6
:1008100096F9020020460022AC4B29461EF0C0FF8C
:100820007E1E08F10108049CCDE9000140461CF041
:100830003FFDDDE900231EF0B3FFA54B00221CF0B5
:10084000EBFBA1F15073CDE90E010F93002C3BD1CE
:100850000022A04BDDE900011CF0DCFB02460B4648
:10086000CDE90023DDE90E231FF02AFA002840F02D
:100870005781DDE90E2101F10043DDE900011FF0A0
:1008800001FA00283FF4E2AE002425460C9BDDF877
:100890000CA0DE434FF00008214658461DF09CFD99
:1008A000002D00F0A980B8F1000F05D0A84503D0B5
:1008B000414658461DF090FD294658461DF08CFDD6
:1008C0009AE03E464C46B1E7834B03EBC40353E941
:1008D0000201039B1C440D9B002B4AD002460B4691
:1008E00000207E491FF086F8DDE90E231CF092FB04
:1008F000DDF80CA0CDE90E01DDE900011FF000FAE2
:1009000005461CF0D5FC024630350B46DDE90001FA
:100910001CF080FB0AF8015B02460B46CDE90001A2
:10092000DDE90E011FF0CCF9002865D100206C49EB
:10093000DDE900231CF06EFB02460B46DDE90E01EB
:100940001FF0BEF9002840F00D81A24500F0EA80BA
:1009500000225E4BDDE90E011EF022FF00225B4B00
:10096000CDE90E01DDE900011EF01AFFCDE900011D
:10097000C2E7DDE90E231EF013FFA046DDF80CA050
:10098000CDE90E01DDE900011FF0BAF905461CF0C2
:100990008FFC024630350B46DDE900011CF03AFBC6
:1009A0000AF8015B02460B46A245CDE900234FF051
:1009B000000223D1494BDDE90E011CF02DFB02465C
:1009C0000B46DDE900011FF07BF9002840F0CA80EA
:1009D00000204249DDE90E231CF01CFB02460B46B9
:1009E000DDE900011FF04EF970B1C24608F1FF3891
:1009F0001AF8013C302BF8D0374655E0334B1EF047
:100A0000CFFECDE90001BDE7DDE90A34CDE90034D0
:100A1000159B002BFFF628AE0E2F3FF725AE2E4B71
:100A200003EBC70393ED007B0C9B002B8DED047B48
:100A300002DAB9F1000F64D0DDF80CA0DDE9004561
:100A4000DDE90423204629461EF0D4FF1FF058F9A3
:100A500006461CF02DFCDDE904231EF0A1FE024633
:100A6000204606F130040B4629461CF0D3FA0AF85A
:100A7000014B039C02460B46AAEB0404A14540F03F
:100A800082801CF0C9FA04460D46DDE904231FF0FC
:100A900017F9002865D120462946DDE904231FF017
:100AA000E7F808B1F3075CD4029958461DF094FCAE
:100AB000002301378AF80030129B1F60219B002B16
:100AC0003FF421ACC3F800A01DE400BF00002440A7
:100AD00000001C400000144038FA02000000E03F13
:100AE0000000F03FA24B03EBC70393ED007B0C9B90
:100AF000002B8DED047B9FDAB9F1000F9CDC7FF4B5
:100B0000C3AE00229B4BDDE904011EF049FEDDE986
:100B100000231FF0CBF8044600287FF4B5AE3E4614
:100B20002546B4E0DDE90A34CDE90034159B002BFD
:100B300001DB0E2FD6DD089A012A36DC139A82B328
:100B400003F23343099CDDF81880069A01215846C8
:100B50001A440692079A1A4407921DF0A7FC05460C
:100B600086E53E4653469A4613F8012D392A06D1AA
:100B7000039A9A42F7D13022039901360A701A7803
:100B800001321A7038E700227B4B1EF009FE00226A
:100B9000002304460D461FF06BF800283FF450AFC9
:100BA00082E7149BC3F13603CCE709F1FF34099BBC
:100BB000A34208DBB9F1000FA3EB04040EDBDDF860
:100BC00018804B46C1E7099B109AE31A0994DDF897
:100BD000188000241A444B461092B6E7069BA3EBFC
:100BE00009080023B1E7029E71E5099A029970E5B0
:100BF000029672E5089B012B17DC009BABB9019BA9
:100C0000C3F313039BB9019B23F00046360D360551
:100C100036B1069B012601330693079B01330793E8
:100C2000109B002B7FF470AD1096012075E5002617
:100C3000F6E73FF486AD1C33069A1A4498440692B0
:100C4000079A1A4407927CE50346F4E7049B002BBD
:100C50002BDC089B022B09DC27E0B9F1000F1DDC1F
:100C6000089B022B1ADD3E46CDF81090049B002B0A
:100C70007FF40CAE2146052258461DF0CFFB0146FD
:100C80000446029829F06DFF00287FF7FFADDDF8DC
:100C90000CA0312301360AF8013BFBE50D9B3E46D3
:100CA000CDF81090002B7FF483AD039F214602986E
:100CB00029F07BFE039B00F13009049A07F8019BA1
:100CC000FB1A9A4240F3CB8000230A22029958462D
:100CD0001DF0A4FB0290E9E72A6905F10C010C3034
:100CE0000232920029F04CFE0122394658461DF08E
:100CF000F7FC039BA846054603F1010ADDE903233F
:100D000013440793009B03F0010309930AF1FF3397
:100D100021460298049329F048FE4146069000F1CE
:100D20003009029829F01DFF2A46214607465846F9
:100D30001DF042FDC268014602B358461DF04CFB4F
:100D4000002F3ADA0122029958461DF0C9FC2146CB
:100D5000029029F006FF002803DC29D119F0010FC9
:100D600026D0B9F1390F1DD132E02846C1E700BFC6
:100D700038FA020000001440000024400A90029853
:100D800029F0EFFE0A990C9058461DF025FB0C9AAD
:100D90005ABB089B53B9099B43B9B9F1390F17D016
:100DA000002F05DD069B03F1310901E0002F2ADA4F
:100DB000DDF810A00AF8019B6EE5089B3B4304D1C7
:100DC000009B03F00103002BBCD0B9F1390F36D1E1
:100DD000049F392307F8013BBA46013F1AF8013C4A
:100DE000392B5AD001333B7056E5002F06DB089BA8
:100DF0003B4306D1009B03F0010313B9002AA1DC99
:100E0000D6E7002AE1DC079B57460AF8019C5345C8
:100E10002ED000230A22029958461DF0FFFAA84559
:100E200002904FF000034FF00A02414658460BD1A2
:100E30001DF0F4FA804605460AF1010A66E7DDF87E
:100E400010A009F10109B5E71DF0E8FA294680462E
:100E500000230A2258461DF0E1FA0546ECE7049B00
:100E60004FF00008002BCCBF1F460127039B1F44F7
:100E70000122029958461DF033FC2146029029F0C8
:100E800070FE0028A8DC02D119F0010FA4D1BA46E7
:100E900017F8013D302BFAD0FEE4039BBB429BD1F7
:100EA0003123039A01361370F6E4219B002B7FF463
:100EB00025AA014BFFF744BA19F902000348044B75
:100EC000834202D0034B03B118477047D81100206A
:100ED000D811002000000000064B0749C91A8910EC
:100EE00048BF0131491003D0044B0BB101481847EA
:100EF000704700BFD8110020D8110020000000006A
:100F000010B5064C237843B9FFF7D8FF044B13B153
:100F10000448AFF300800123237010BD622D002030
:100F2000000000003009030008B5054B1BB105495E
:100F30000548AFF30080BDE80840FFF7CDBF00BF14
:100F400000000000A814002030090300A3F5803A37
:100F5000704700BF174B002B08BF134B9D46FFF790
:100F6000F5FF00218B460F461348144A121A29F048
:100F7000EEFC0E4B002B00D098470D4B002B00D001
:100F800098470020002104000D000D48002802D0E1
:100F90000C48AFF300801DF071F9200029001EF00D
:100FA00054FF1CF087FB00BF000008000000000099
:100FB00000000000C00A0020D8110020542E00209C
:100FC000000000000000000010B588B08DED050A9B
:100FD00004900B4602928DF80F301FF0C3F81FF0FB
:100FE000C3F8244B1C6805981CF074F902460B46A4
:100FF0009DF80F100191049900911F49204621F09E
:10100000D9F9DDED057A9FED1D7A67EE877AB6EEA8
:10101000007A77EE877AFCEEE77A17EE903A9BB289
:10102000ADF81A300DF11A03022200211B2011F035
:10103000DDFC0790079B002B06D10DF11A031A4621
:1010400002211B2011F0E8FC0DF10F030122002109
:10105000202011F0CBFC0790079B002B06D10DF14F
:101060000F031A460121202011F0D6FC00BF08B062
:1010700010BD00BFB815002080B802000000C842B3
:1010800008B500F0B7FD0021024800F063FE00BF84
:1010900008BD00BFC90F000000B589B00390039BD5
:1010A0001B6823F47F4323F00703A64A934200F012
:1010B0005782A44A934200F2BE82A34A934200F0B0
:1010C0007D81A14A934200F2B682A04A934200F089
:1010D000F6819E4A934200F2AE829D4A934204D02A
:1010E0009C4A934200F05281A5E29B4811F0EAFB32
:1010F0000790079B002B2AD0984B1B6898491846ED
:1011000021F058F9954B1B689649184621F052F981
:101110001FF028F81FF028F8904B1868924B0093A6
:101120008323924A924921F045F98C4B1868079B1A
:10113000904A914921F03EF9079801F07BF9874BDD
:101140001B688E49184621F035F900BFFDE7824B38
:101150001B780221184611F0EFFB0790079B002B2C
:101160002AD07E4B1B687E49184621F023F97B4B21
:101170001B687C49184621F01DF91EF0F3FF1EF094
:10118000F3FF764B1868784B00938823774A7849A9
:1011900021F010F9714B1868079B764A764921F0C7
:1011A00009F9079801F046F96C4B1B68734918461A
:1011B00021F000F900BFFDE7674B1878002300938A
:1011C0000023A022A02111F095FB0790079B002B84
:1011D0002AD0624B1B686249184621F0EBF85F4B3E
:1011E0001B686049184621F0E5F81EF0BBFF1EF0B1
:1011F000BBFF5A4B18685C4B009391235B4A5C49D8
:1012000021F0D8F8554B1868079B5A4A5A4921F0E3
:10121000D1F8079801F00EF9504B1B685749184652
:1012200021F0C8F800BFFDE74B4B1B7802211846A0
:1012300011F096FB0790079B002B2AD0474B1B68A9
:101240004749184621F0B6F8444B1B6845491846F3
:1012500021F0B0F81EF086FF1EF086FF3F4B1868A5
:10126000414B00939623414A414921F0A3F83B4B5F
:101270001868079B3F4A404921F09CF8079801F005
:10128000D9F8364B1B683D49184621F093F800BF4A
:10129000FDE73B4B1B6818461FF0B9F800F012FA47
:1012A0000790079B002B1FD0012001F08FF8034609
:1012B000002B19D0294B1B683249184621F07AF8C7
:1012C0001EF050FF1EF050FF244B1868079B294A60
:1012D000294921F06FF8079801F0ACF81F4B1B6803
:1012E0002949184621F066F8079B002B40F0A5819C
:1012F00000F02EFA0790079B002B00F09E81012042
:1013000001F064F80346002B00F09781134B1B6833
:101310001C49184621F04EF81EF024FF1EF024FF51
:101320000E4B1868079B134A134921F043F807989E
:1013300001F080F8094B1B681349184621F03AF870
:101340007BE100BFA0000A03A0000601A0000A0084
:10135000A0000100A0000600720E0020B8150020B9
:10136000A8B80200ACB80200E0B90200B4B80200AC
:10137000C0B80200CCB80200D0B80200E8B8020041
:10138000680B0020FCB8020004B90200032001F041
:101390001DF80346002B00F05281AE4B1B68AE498E
:1013A000184621F007F81EF0DDFE1EF0DDFEA94B09
:1013B0001B68AA49184620F0FDFF40E1032001F018
:1013C00005F80346002B0FD0A24B1B68A249184614
:1013D00020F0F0FF1EF0C6FE1EF0C6FE9D4B1B68FF
:1013E0009F49184620F0E6FF9E4B1B7802211846C5
:1013F00011F0A2FA0790079B002B2AD0954B1B688F
:101400009949184620F0D6FF924B1B689749184619
:1014100020F0D0FF1EF0A6FE1EF0A6FE8D4B186831
:10142000934B0093B423934A934920F0C3FF894B15
:101430001868079B914A924920F0BCFF079800F07A
:10144000F9FF844B1B688F49184620F0B3FF00BF9B
:10145000FDE7844B1B780221184611F081FA0790B2
:10146000079B002B00F0ED807A4B1B687E491846E5
:1014700020F0A0FF774B1B687C49184620F09AFFAC
:101480001EF070FE1EF070FE724B1868784B0093D1
:10149000B923784A784920F08DFF6E4B1868079B76
:1014A000764A774920F086FF079800F0C3FF694B22
:1014B0001B687449184620F07DFF00BFFDE7039BC1
:1014C000B3F805309BB21E2B40F0BD8005AA0DF18C
:1014D0001B0300931346012200211E2011F054FA31
:1014E0000790079B002B1FD0012000F06FFF0346E1
:1014F000002B19D0574B1B686349184620F05AFF40
:101500001EF030FE1EF030FE524B1868079B5B4AFF
:101510005B4920F04FFF079800F08CFF4D4B1B6894
:101520005A49184620F046FF079B002B01D000BF08
:101530008CE09DF81B30002B14BF01230023DBB28D
:10154000184600F06FFB1EF00DFE1EF00DFE414B25
:101550001B689DF81B204E49184620F02BFF72E0B7
:10156000039BB3F805309BB21B2B6ED1039B1B89E9
:101570009BB203F00103002B46D0032000F026FFAE
:101580000346002B0FD0334B1B683349184620F01D
:1015900011FF1EF0E7FD1EF0E7FD2E4B1B683D49D5
:1015A000184620F007FF00F0D3F807901EF0DAFD90
:1015B0001EF0DAFD274B1B683749184620F0FAFE6B
:1015C000079B002B41D0012000F000FF0346002BB9
:1015D0003BD0204B1B682C49184620F0EBFE1EF038
:1015E000C1FD1EF0C1FD1B4B1868079B234A24490F
:1015F00020F0E0FE079800F01DFF164B1B68234902
:10160000184620F0D7FE20E0032000F0DFFE03465E
:10161000002B1AD00F4B1B680F49184620F0CAFE4A
:101620001EF0A0FD1EF0A0FD0A4B1B681B491846CA
:1016300020F0C0FE09E000BF08E000BF06E000BFE8
:1016400004E000BF02E000BF00E000BF00BF09B03F
:101650005DF804FBB815002008B9020010B90200BB
:1016600024B90200720E0020A8B80200ACB8020033
:10167000E0B90200B4B80200C0B80200CCB8020061
:10168000D0B80200E8B80200FCB8020004B90200B9
:1016900038B9020058B9020070B9020084B90200DA
:1016A00082B00190054B1B68019A9A4202D1044B0B
:1016B00001221A7000BF02B0704700BF680B002003
:1016C000632D002000B583B01D4B1B6818461EF02B
:1016D0008CFE0346002B05D0012B07D101238DF88A
:1016E000033005E000238DF8033001E0012323E0FF
:1016F0000DF10303012200211E2011F077F9019062
:10170000019B002B17D1032000F060FE0346002B45
:1017100011D00C4B1B680C49184620F04BFE1EF0F4
:1017200021FD1EF021FD074B1B689DF80320074992
:10173000184620F03FFE019B184603B05DF804FBFD
:10174000680B0020B815002008B902009CB90200FF
:1017500000B587B003AA0DF11303009313460122CD
:1017600000211B2011F010F90590059B002B01D0E2
:10177000059B13E00DF113031A4601211B2011F004
:101780004BF90590059B002B07D1064B1B689DF874
:1017900013200549184620F00DFE059B184607B09A
:1017A0005DF804FBB8150020B8B9020082B00190C2
:1017B000044B03F500531A46019BC2F8203400BFC6
:1017C00002B0704700C0035000B583B0019001998A
:1017D00003481EF0BFFA00BF03B05DF804FB00BF72
:1017E00024C4035082B0034600918DF807309DF861
:1017F0000730002B0AD09DF80730012B06D09DF84A
:101800000730022B02D09DF80730032B08489DF8C3
:1018100007200121009B994013465B0013441B01E4
:10182000034403F500531033196000BF02B0704742
:1018300000C0035082B00190019B0E4A93420FD02A
:10184000019B0D4A93420BD0019B0C4A934207D057
:10185000019B0B4A934203D0019B0A4A934201D158
:10186000012300E0002303F00103DBB2184602B0BD
:10187000704700BF0080045000C0045000000550B5
:10188000004005500080055082B00190019B304A15
:1018900093420ED0019B2F4A93420AD0019B2E4ABD
:1018A000934206D0019B2D4A934202D0019B2C4AC1
:1018B0009342019B264A934245D0019B244A93427E
:1018C00003D0019B234A93423AD0019B204A934282
:1018D00007D0019B1F4A934203D0019B1E4A9342AB
:1018E0002BD0019B1A4A93420BD0019B194A934279
:1018F00007D0019B184A934203D0019B174A934299
:1019000018D0019B124A934212D0019B114A934274
:101910000ED0019B104A93420AD0019B0F4A93427A
:1019200006D0019B0E4A934202D14FF6FF730CE0A2
:1019300000230AE04FF6FF7307E04FF6FF7304E061
:101940004FF6FF7301E04FF0FF33184602B07047C7
:101950000080045000C004500000055000400550B5
:101960000080055000B58DB00121242001F0F8FF62
:10197000242002F027F8099000230A930023ADF8F1
:101980002E3013E0BDF82E304FF47A7202FA03F3D2
:10199000099AB2FBF3F3013B0A930A9BB3F5803F2C
:1019A0000AD3BDF82E300133ADF82E30BDF82E30FD
:1019B000B3F5806FE6D300E000BF05AB00221A60EC
:1019C0005A609A60DA6001238DF81430BDF82E3029
:1019D000ADF8163000238DF8143005AB19461C48BD
:1019E0001FF0DEFA01AB00221A605A609A601A7387
:1019F00003238DF80A3001AB1A46002114481FF06A
:101A000060FB0A9912481EF0DFF90A9B1B091A466F
:101A100000210F481EF0ABF900230422032103200C
:101A20001FF082F90B4B4FF00312C3F88025094BCE
:101A3000D3F87C35074A43F00103C2F87C35012115
:101A400003481EF0A9F900BF0DB05DF804FB00BF0C
:101A50000080045000C0035008B5002108481EF063
:101A60009BF9084BD3F87C35064A23F00103C2F8F2
:101A70007C3503210320FFF7B5FE00BF08BD00BF82
:101A80000080045000C0035082B003468DF8073038
:101A9000034B1B680133024A136000BF02B070475A
:101AA000C014002000B583B001213A2001F058FF96
:101AB00001230322002102201FF036F901230193A4
:101AC00000230093012300220021022003F048FD9F
:101AD0000120FFF76BFE1EF006FF0549002001F014
:101AE0004FFC0120FFF770FE00BF03B05DF804FB60
:101AF000891A000000B585B00190009172B600BF50
:101B0000314B1B68039362B600BF304B1B68039ACE
:101B1000D31A02932D4A039B1360029B07EE903A5F
:101B2000B8EE677ADFED2A6AC7EE267A294BC3ED55
:101B3000007A294B1B78002B0AD0284B1B78F92BF5
:101B400009D8264B1B780133DAB2244B1A7002E015
:101B5000224B00221A70204B1B78002B14D01F4BF5
:101B60001A781F4B1B789A420ED31A4B93ED007ACA
:101B70001C4BD3ED007AB4EEE77AF1EE10FA03D500
:101B8000194B01221A7009E0134B1B7883F00103F3
:101B9000DBB2002B02D0144B00221A70134B1B68CF
:101BA000002B0CD0114B1B680A4AD2ED007A0E4A6A
:101BB00011780F4A12680398B0EE670A984700BF81
:101BC00005B05DF804FB00BFC0140020C81400205D
:101BD00052B8B640CC140020642D0020662D0020A1
:101BE000730E0020C00A0020652D0020D0140020B4
:101BF000D414002008B5094B1B78002B0CD11EF023
:101C0000F3F8FFF74FFF21F0E1F80346044A1360B1
:101C1000024B01221A7000E000BF08BD672D0020B2
:101C2000C414002000B587B003468DF80F303C4B3C
:101C30001B789DF80F209A426ED0394A9DF80F30DC
:101C400013709DF80F3018461EF0E1F89DF80F3024
:101C5000002B56D000230193002300930023314A28
:101C60004FF47A71304808F00FF905901EF07AFAB7
:101C70001EF07AFA2D4B1B68059A2D49184620F064
:101C800099FB059B2E2B13D0059B2E2B26D8059B4D
:101C9000022B18D0059B1A2B20D11EF063FA1EF0E0
:101CA00063FA224B1B682349184620F083FB20E08F
:101CB0001EF058FA1EF058FA1C4B1B681E491846B5
:101CC00020F078FB15E01EF04DFA1EF04DFA174B90
:101CD0001B681A49184620F06DFB0AE01EF042FA14
:101CE0001EF042FA114B1B681549184620F062FBA2
:101CF00000BF144B1B68144A1360144B00221A7067
:101D00000BE0134808F01AF9074808F017F9032107
:101D10000320FFF767FD00E000BF07B05DF804FB9C
:101D2000642D0020F51A0000F8140020B8150020DA
:101D3000F0B902000CBA020028BA020044BA02004C
:101D40005CBA0200C0140020C8140020652D0020D9
:101D5000D814002082B001900091044A019B1360C6
:101D6000034A009B136000BF02B07047D0140020EC
:101D7000D414002000B58BB00390039B1B6823F4A0
:101D80007F4323F00703994A934240F02881984B00
:101D900008220021122010F029FE0990099B002B37
:101DA0002AD0944B1B689449184620F003FB914BB2
:101DB0001B689249184620F0FDFA1EF0D3F91EF078
:101DC000D3F98C4B18688E4B00933D238D4A8E4976
:101DD00020F0F0FA874B1868099B8C4A8C4920F058
:101DE000E9FA099800F026FB824B1B6889491846DE
:101DF00020F0E0FA00BFFDE7874B0322002114200A
:101E000010F0F4FD0990099B002B2AD0794B1B6838
:101E10007949184620F0CEFA764B1B687749184668
:101E200020F0C8FA1EF09EF91EF09EF9714B18685A
:101E3000734B00934B23734A734920F0BBFA6D4BED
:101E40001868099B714A724920F0B4FA099800F0A9
:101E5000F1FA684B1B686F49184620F0ABFA00BFD7
:101E6000FDE76E4B05220021162010F0BFFD099002
:101E7000099B002B2AD05F4B1B685F49184620F056
:101E800099FA5C4B1B685D49184620F093FA1EF0E6
:101E900069F91EF069F9574B1868594B009359239B
:101EA000584A594920F086FA524B1868099B574AFC
:101EB000574920F07FFA099800F0BCFA4D4B1B6897
:101EC0005449184620F076FA00BFFDE70DF11B02D9
:101ED00007AB1146184610F0B5FD0990099B002B81
:101EE0002AD0444B1B684449184620F063FA414B02
:101EF0001B684249184620F05DFA1EF033F91EF0C7
:101F000033F93C4B18683E4B009364233D4A3E49ED
:101F100020F050FA374B1868099B3C4A3C4920F0A6
:101F200049FA099800F086FA324B1B68394918467D
:101F300020F040FA00BFFDE79DF821308DF8103009
:101F40009DF820308DF811309DF81F308DF812303B
:101F5000FF238DF81330FE238DF814309DF81E30CA
:101F60008DF815309DF81D308DF816309DF81C3019
:101F70008DF8173004AB08220021182010F036FD30
:101F80000990099B002B2CD01A4B1B681A49184644
:101F900020F010FA174B1B681849184620F00AFA6F
:101FA0001EF0E0F81EF0E0F8124B1868144B009396
:101FB0007423144A144920F0FDF90E4B1868099B4C
:101FC000124A134920F0F6F9099800F033FA094B48
:101FD0001B681049184620F0EDF900BFFDE700BF6F
:101FE00000E000BF00BF0BB05DF804FBA0000100E3
:101FF0006CBA0200B815002078BA02007CBA020060
:10200000F4BA020084BA0200ACBA0200B8BA020004
:10201000BCBA0200D4BA0200E8BA0200ECBA02006C
:1020200082B003468DF807309DF90730002B0CDB9A
:102030009DF8073003F01F0205499DF907305B0941
:10204000012000FA02F241F8232000BF02B07047DD
:1020500000E100E082B003468DF807309DF90730BB
:10206000002B0DDB9DF8073003F01F0206499DF998
:1020700007305B09012000FA02F2603341F82320A7
:1020800000BF02B0704700BF00E100E008B502F0F9
:10209000BDF81EF044FD2A4B1B6F23F00703284AAE
:1020A00043F0030313671EF047FD264B9B6A03F0C2
:1020B0000203002B05D1234B03F500531A460123DD
:1020C00093621F4BD3F8203123F003031C4A43F0E3
:1020D0000203C2F820311A4BD3F8243123F007034E
:1020E000174A43F00203C2F82431154BD3F84031AC
:1020F00023F00303124A43F00203C2F84031104BAD
:10210000D3F8603123F003030D4A43F00203C2F811
:1021100060310B4BD3F8403223F00303084A43F0FD
:102120000203C2F84032064BD3F8003223F0070313
:10213000034A43F00203C2F800320023184608BDE8
:102140000080005000C0005000B583B003F08AFD4D
:102150000346012B1ED1114B5B6E03F48023002B31
:102160000CBF012300238DF807300C4B03F580537F
:102170001A464FF480235366094B04221A609DF8D7
:102180000730002B06D0054B03F500531A464FF4D9
:102190008023536600BF03B05DF804FB008000504D
:1021A0002020015030B599B03A4B0FAC1D460FCDF1
:1021B0000FC495E8070084E807004FF4E13311935A
:1021C0000023ADF84A304FF48053ADF84C30032370
:1021D0008DF855300AAB00221A605A609A60DA60B6
:1021E0001A612D4B0A9329230B9305238DF8313067
:1021F00006238DF8333008238DF8353007238DF80A
:10220000373001238DF83930244A08AB92E80300B7
:1022100083E8030002AB00221A605A609A60DA6019
:102220001A615A6102AB08AA92E8030083E803002E
:102230000F238DF8103010238DF81130184B0593B3
:102240002023069301238DF81D3000238DF81E30C6
:102250000AAB0FAA02A913480090134806F0E4FA4B
:10226000169000238DF85F309DF81E3083F0010337
:10227000DBB2002B03D003238DF85F3000BF9DF845
:102280005F3019464FF4E1301DF0D1FF169B184620
:1022900019B030BDD8BD020000000650F4BD0200E8
:1022A00098150020441500202015002000B583B0AB
:1022B0000549064807F030F8FFF774FF019000BFAA
:1022C00003B05DF804FB00BF540B0020181500207C
:1022D00008B5024806F0EAFB00BF08BD2015002043
:1022E00008B5024806F0E2FB00BF08BD201500203B
:1022F00008B503481DF075FE0346184608BD00BF2B
:102300002015002000B585B003460A468DF8073039
:1023100013468DF806309DF80730022B03D09DF848
:102320000730032B13D19DF80630012B03D09DF805
:102330000630002B0BD1052100201DF06DFE03900F
:10234000039B0422052100201EF0EEFC1AE09DF8FC
:102350000630022B03D09DF80630032B12D19DF8D6
:102360000730012B03D09DF80730002B0AD105213F
:1023700000201DF051FE0390039B00220521002048
:102380001EF0D2FC9DF80630012B09D8064B1B68C5
:102390001B68002B04D0044B1B6818461DF013FE6D
:1023A00000BF05B05DF804FB5C0B002008B50248D7
:1023B0001EF009F800BF08BDFCBD020008B50248C8
:1023C0001EF088F900BF08BD14BE020084B00346A9
:1023D0008DF8073001238DF80F30124B1B78002B3E
:1023E00008D0114B1B789DF807209A4202D9002390
:1023F0008DF80F300D4B1B78002B0DD00C4B1B783C
:102400001A469DF8073042FA03F303F00103002B4C
:1024100002D100238DF80F309DF80F30184604B01C
:10242000704700BF740E0020750E0020682D00203C
:10243000760E002000B585B001900F4B1B680F4948
:1024400018461FF0B7FF05F02FFF03900A4B1B68DB
:10245000184605F015FF019800F032F8039805F0D2
:102460000FFF054B1B68064918461FF0A3FF00BF6E
:1024700005B05DF804FB00BFB81500202CBE0200BB
:1024800030BE020008B5094B01221A70084B002229
:102490001A70084B04221A70074B1F221A7005F09D
:1024A00003FF0346054A136000BF08BD740E0020F9
:1024B000682D0020750E0020760E0020B815002033
:1024C00000B583B00190054B1B68054918461FF005
:1024D00071FF00BF03B05DF804FB00BFB81500201A
:1024E00034BE020000B583B002238DF80030002214
:1024F000022107481DF06FFE034601936B46082139
:1025000018461DF0AEFE00BF03B05DF804FB00BF2F
:10251000006A180000B583B0064A074BD31A9B1017
:102520000193019A054904481DF010FF00BF03B054
:102530005DF804FB5C1003005C100300542E0020C7
:1025400000B585B000F080F8FFF7E4FF1F4B039360
:1025500019E0002302930EE0039B1A68029B9B0084
:102560001A44039B5968029B9B000B4412681A6033
:10257000029B01330293039B9B68029A9A42EBD31E
:10258000039B0C330393039B114A9342E1D3114BFA
:10259000019314E00023009309E0019B1A68009B5B
:1025A0009B00134400221A60009B01330093019B9F
:1025B0005B68009A9A42F0D3019B08330193019B18
:1025C000054A9342E6D3FEF7C5FC00BF3809030075
:1025D00044090300440903004409030082B0034690
:1025E0008DF807309DF90730002B0CDB9DF8073084
:1025F00003F01F0205499DF907305B09012000FA2D
:1026000002F241F8232000BF02B0704700E100E071
:1026100082B003468DF807309DF90730002B0DDBA3
:102620009DF8073003F01F0206499DF907305B094A
:10263000012000FA02F2603341F8232000BF02B00B
:10264000704700BF00E100E008B51E4B1E4A9A60CB
:102650001C4BD3F888301B4A43F47003C2F888300F
:102660001A4B03F580531A464FF400439366184BF8
:1026700003F500531A464FF0FF331366144B03F56E
:1026800000531A464FF6DF735366124B02221A604C
:10269000BFF34F8F00BFBFF36F8F00BF0320FFF763
:1026A000B7FF0B4B03F500531A464FF44033D3608A
:1026B0000320FFF793FF064B4FF440321A6100BF2F
:1026C00008BD00BF00ED00E00000000000800050E9
:1026D00000800044D0ED00E0014B1B6818467047B5
:1026E000780B002000B583B0002301930E4B1B6FC5
:1026F00003F00703032B09D0032B0FD8012B09D0BC
:10270000022B0BD1FFF7E8FF019008E0074B1B6895
:10271000019304E0064B019301E0FFE7FDE7019B15
:10272000184603B05DF804FB00800050700B0020D9
:10273000002D310100B583B0FFF7D4FF01900A4BA3
:102740001B6F1B0B03F00F030093009B0133019AD7
:10275000B2FBF3F30193054A019B1360019B1846FA
:1027600003B05DF804FB00BF008000507C0B00202C
:10277000014B1846704700BF00B4C404014B1B68EE
:1027800018467047700B002000B583B00190074ACF
:10279000019B1360064B1B6F03F00703032B01D152
:1027A000FFF7C8FF00BF03B05DF804FB700B00200B
:1027B00000800050014B1846704700BF002D3101CA
:1027C000014B1B6818467047740B002084B00190C1
:1027D0000B4B1A68019B13440A4A934202D94FF0EB
:1027E000FF3309E0064B1B680393054B1A68019BF6
:1027F0001344034A1360039B184604B0704700BF9C
:10280000800B00200080002000B589B00390039B5E
:102810000793079B1B68069301213A2001F0A0F85B
:10282000069B1879069B5B791946002301221EF04E
:102830007BFA069B1A79069B5B79194610461DF0B8
:1028400002FE0346002B0CBF01230023DBB21A4615
:10285000069B1A70069B9B79022B43D11EF043F80E
:10286000069B1879069B5979079B214A00F0AAFD1F
:102870000590059BFF2B15D1069B5B79079A1C4998
:10288000184600F01FFE0590069B1879069B5B79A1
:10289000194601230193012300930123059A02F0B5
:1028A0005FFE1FE0069B1879069B5B7919460123A2
:1028B00000930023059A02F0E7FE069B5B79079AD6
:1028C0000B49184600F0FEFD0590069B1879069B03
:1028D0005B79194601230193002300930123059A94
:1028E00002F03EFE0023184609B05DF804FB00BF6D
:1028F000B704020000B585B003468DF807309DF897
:102900000730002B01D0012300E000230393039A3A
:10291000002103481DF09EFE00BF05B05DF804FBDA
:1029200044C4035000B585B0002303930023ADF8E1
:102930000A300023ADF808300023019301213A202A
:1029400001F00EF801230422032100201EF0ECF90F
:1029500001981EF0E4F90120FFF7CCFF4FF46070FE
:1029600001F030F803902D4B1B682C4A43F0010313
:1029700013602A4BDB68294A43F08073D36001233C
:10298000ADF80A300F23ADF80830BDF80A305A020E
:10299000BDF808305B001A432149224B13430B60FA
:1029A000039B03F5D52303F2FC43DB081E4AA2FB7D
:1029B00003239B0A1D4A013B13611C4B0222C3F8EF
:1029C000F0201A4B4FF48072C3F804234FF0604399
:1029D000174AC3F8B02F4FF06043164AC3F8802E51
:1029E0004FF06043D3F8003E4FF0604243F48073F1
:1029F000C2F8003E4FF06043FF2283F820204FF0E2
:102A00006043D3F8003E4FF0604223F48073C2F875
:102A1000003E0023184605B05DF804FBF0ED00E031
:102A2000001000E0E101004017916502000004E0A1
:102A300055CEACC50900010082B001900B468DF85F
:102A400003304FF06043D3F8803E03F00103002BC6
:102A500022D0134BDB68124A43F08073D3604FF0EF
:102A60006043D3F8002E0121019B01FA03F34FF0DC
:102A700060411343C1F8003E4FF06042019B52F8A1
:102A80002330002BE5D04FF06041019B9DF80320DF
:102A900001F82320002300E01123184602B07047FC
:102AA000F0ED00E082B0034600918DF807309DF80C
:102AB0000730002B0AD09DF80730012B06D09DF877
:102AC0000730022B02D09DF80730032B08489DF8F1
:102AD00007200121009B994013465B0013441B0112
:102AE000034403F500531033196000BF02B0704770
:102AF00000C0035082B0034600918DF807309DF866
:102B00000730002B0AD09DF80730012B06D09DF826
:102B10000730022B02D09DF80730032B08489DF8A0
:102B200007200121009B994013465B0013441B01C1
:102B3000034403F580531033196000BF02B070479F
:102B400000C0035082B0034600918DF807309DF815
:102B50000730002B0AD09DF80730012B06D09DF8D6
:102B60000730022B02D09DF80730032B08489DF850
:102B700007200121009B994013465B0013441B0171
:102B8000034403F540531033196000BF02B070478F
:102B900000C0035000B585B001900091204B1B7818
:102BA00083F00103DBB2002B01D01E4B34E0019B0C
:102BB000002B01D11C4B2FE01EF02CF802900023BB
:102BC000039322E0194A039B1B0113440C331B7827
:102BD00083F00103DBB2002B14D0019B039A1A602F
:102BE000124A039B1B0113440C3301221A700F4A33
:102BF000039B1B01134400221A6002981EF01AF86E
:102C0000002309E0039B01330393039B072BD9D9CE
:102C100002981EF00FF8064B184605B05DF804FB4D
:102C2000692D0020028000F0018000F0BC1500201A
:102C3000048000F000B585B000238DF80B301DF046
:102C4000E9FF0190002303930EE0154A039B1B014B
:102C500013440C331B78002B03D001238DF80B3069
:102C600005E0039B01330393039B072BEDDD9DF8E8
:102C70000B3083F00103DBB2002B09D002F0F4FD2E
:102C8000084B00221A7001981DF0D4FF002303E0C6
:102C900001981DF0CFFF044B184605B05DF804FB0A
:102CA000BC150020692D0020058000F000B585B01E
:102CB0000190164B1B7883F00103DBB2002B01D08F
:102CC000134B1FE0019B072B01D9124B1AE01DF09B
:102CD000A1FF0390104A019B1B0113440C331B7886
:102CE000002B0BD00C4A019B1B0113440C33002218
:102CF0001A7003981DF09EFF002303E003981DF057
:102D000099FF064B184605B05DF804FB692D0020BD
:102D1000028000F0018000F0BC150020068000F069
:102D200000B585B0194B1B68019300238DF8043062
:102D30001DF070FF0290164B1B78002B04D00298F8
:102D40001DF078FF134B1DE0114B01221A70029801
:102D50001DF070FF0023039309E00F4A039B1B0142
:102D600013440C3300221A70039B01330393039B1B
:102D7000072BF2DD08238DF8073001AB184602F06F
:102D8000A3FD0023184605B05DF804FB38BE020021
:102D9000692D0020038000F0BC15002000B583B031
:102DA0000190124B1B7883F00103DBB2002B01D0A2
:102DB0000F4B17E0019B072B01D90E4B12E00E4A77
:102DC000019B1B0113440C331B7883F00103DBB21E
:102DD000002B01D0094B05E0019B0021184602F0B1
:102DE0005DFD0023184603B05DF804FB692D00204B
:102DF000028000F0018000F0BC150020078000F088
:102E000000B583B00190124B1B7883F00103DBB255
:102E1000002B01D00F4B17E0019B072B01D90E4B64
:102E200012E00E4A019B1B0113440C331B7883F004
:102E30000103DBB2002B01D0094B05E0019B01210E
:102E4000184602F02BFD0023184603B05DF804FB82
:102E5000692D0020028000F0018000F0BC150020E8
:102E6000078000F000B583B00190124B1B7883F00F
:102E70000103DBB2002B01D00F4B16E0019B072BA7
:102E800001D90E4B11E00E4A019B1B0113440C3378
:102E90001B7883F00103DBB2002B01D0094B04E067
:102EA000019B184602F0E2FD0023184603B05DF8CE
:102EB00004FB00BF692D0020028000F0018000F0BB
:102EC000BC150020078000F082B001900091194BE2
:102ED0001B7883F00103DBB2002B01D0164B25E0F9
:102EE000019B072B02D8009B002B01D1134B1DE047
:102EF000134A019B1B0113440C331B7883F001031D
:102F0000DBB2002B01D00F4B10E00F4B1B6D0121EA
:102F1000019A01FA02F21340002B03D0009B012218
:102F20001A7002E0009B00221A700023184602B0BB
:102F3000704700BF692D0020028000F0018000F082
:102F4000BC150020078000F00000045000B583B0DD
:102F500001900091154B1B7883F00103DBB2002B2D
:102F600001D0134B1DE0019B072B02D8009B002BC7
:102F700001D1104B15E0104A019B1B0113440C3387
:102F80001B7883F00103DBB2002B01D00B4B08E070
:102F9000019B184602F08AFD03461A46009B1A70F0
:102FA0000023184603B05DF804FB00BF692D002024
:102FB000028000F0018000F0BC150020078000F0C6
:102FC00000B587B0364B1B6D0393354B5B6D039A91
:102FD00013400393039B002B01DA00BFFDE700239E
:102FE00005930123049353E0039A049B1340002BA1
:102FF00048D02B4B03F500531A46049B1365059BE1
:103000001B01284A13440293029B1B68002B39D0F2
:10301000029B9B685A1C029B9A60029B1B68029A47
:103020009168029A5268059898470346002B14BF8E
:1030300001230023DBB283F00103DBB28DF80730FC
:103040009DF8073003F001038DF80730029B5B7B8E
:10305000012B17D19DF80730002B13D0124A059B86
:103060005B01134403F1080213796FF341031371F9
:103070000D4A059B5B01134403F1180213796FF3AA
:1030800041031371059B01330593049B5B0004937B
:10309000059B072BA8D900BF00BF07B05DF804FB54
:1030A00000000450BC1500203C16002010B58AB06A
:1030B0000292019303468DF80F300B468DF80E30C7
:1030C0007B4B1B7883F00103DBB2002B01D0794BE3
:1030D000EBE0029B072B10D80C9B002B0DD00D9B17
:1030E000002B0AD0109BB3F5006F06DC9DF80F3063
:1030F000012B04D10E9B002B01D16F4BD5E0029B1D
:103100001B016E4A13440993099B1B7B83F0010347
:10311000DBB2002B01D06A4BC7E004AB00221A607F
:103120005A609A60DA60029B5B01664A1344089316
:103130009DF80E30002B1DD1089B1A46002313600A
:1031400053609360D360089A937843F010039370B0
:10315000089AD37843F03003D3709DF83C3083F065
:103160000103DBB2002B22D0089AD37843F003038B
:10317000D3701CE0089B1A460023136053609360D1
:10318000D360089A937843F010039370089AD37829
:1031900043F00303D3709DF83C3083F00103DBB2AE
:1031A000002B04D0089AD37843F03003D370019BEE
:1031B0000493109B9BB2013B9BB2C3F30A0399B2E9
:1031C000089A138861F30E1313800C9A089B9A6077
:1031D0000D9A089B5A609DF8443003F00303D9B25E
:1031E000089AD37861F38303D3709DF80F30012BD5
:1031F0003BD1089A137B43F001031373089A137BA6
:1032000043F002031373089AD368042161F39F0308
:10321000D3602C4A029B5B01134403F11002089B0C
:1032200014460FCB84E80F00264A029B5B0113442F
:1032300003F1180253686FF0030161F39F035360B9
:103240000E9A2049029B5B010B4414331A609DF8CF
:103250000E30012B09D10D9A1A49029B5B010B44D8
:1032600018331A600E9A089B5A60129B002B08D1E3
:103270009DF80F30002B04D1089A93786FF3041354
:103280009370099B129A1A60099B139A5A60099BC2
:1032900000229A60099B9DF80F205A73029B04A993
:1032A000089A184602F054FB002318460AB010BDD5
:1032B000692D0020028000F0018000F0BC15002084
:1032C000078000F03C16002082B003468DF80730DE
:1032D0009DF90730002B0CDB9DF8073003F01F022F
:1032E00005499DF907305B09012000FA02F241F817
:1032F000232000BF02B0704700E100E082B0034627
:103300008DF807309DF90730002B0DDB9DF8073055
:1033100003F01F0206499DF907305B09012000FAFE
:1033200002F2603341F8232000BF02B0704700BFB3
:1033300000E100E082B00190044B03F500531A460F
:10334000019BC2F8203400BF02B0704700C0035098
:10335000024BD3F824341846704700BF00C0035016
:1033600082B0064BD3F824340193044BD3F82024C5
:10337000019B1340184602B0704700BF00C00350C5
:1033800000B585B0034600918DF807301DF042FC72
:1033900003909DF807300A4A1B0113440433009A36
:1033A0001A609DF80730064A1B0113440C330022B3
:1033B0001A7003981DF03EFC00BF05B05DF804FBD9
:1033C0003C17002000B587B00292019303468DF8A8
:1033D0000F300B468DF80E30FF2305931DF01AFCBD
:1033E00004909DF80F30002B06D19DF80E30052B70
:1033F00002D10023059340E09DF80F30012B06D148
:103400009DF80E30012B02D10323059335E09DF882
:103410000F30012B06D19DF80E30032B02D104236F
:1034200005932AE09DF80F30022B06D19DF80E304F
:10343000002B02D1062305931FE09DF80F30022BCD
:1034400006D19DF80E30052B02D10723059314E019
:103450009DF80F30022B06D19DF80E30072B02D1BC
:103460000823059309E09DF80F30032B05D19DF843
:103470000E30022B01D109230593059BFF2B17D09A
:10348000059B10330E4A1B0113440433029A1A6041
:10349000059B10330A4A1B0113440833019A1A6032
:1034A000059B1033064A1B0113440C3301221A708A
:1034B00004981DF0BFFB059B184607B05DF804FBA0
:1034C0003C17002000B58BB00346029101928DF8A5
:1034D0000F30FF2309931DF09DFB07909DF80F20EF
:1034E00040F6FC7313400693FFF732FF059000236C
:1034F0008DF8233019E09DF80F209DF823301344F8
:1035000003F00303069A13440493059A049B22FADA
:1035100003F303F00103002B02D1049B099308E09D
:103520009DF8233001338DF823309DF82330032B91
:10353000E1D9099BFF2B14D00E4A099B1B011344B0
:103540000433029A1A600B4A099B1B011344083387
:10355000019A1A60074A099B1B0113440C3301228C
:103560001A7007981DF066FB099B18460BB05DF8B2
:1035700004FB00BF3C17002000B587B001902BE092
:1035800001981DF09AF905900122059B02FA03F3B8
:10359000DB43019A13400193059B1B01124A13441C
:1035A0000493049B5B68002B16D0049B1B7B002BB1
:1035B0000AD0049B5B680293059BDAB2049B99686E
:1035C000029B1046984707E0049B5B680393059BAA
:1035D000DAB2039B10469847019B002BD0D100BF65
:1035E00000BF07B05DF804FB3C17002008B5054B91
:1035F0001B68054A12681146184612F09BFB0346E9
:10360000184608BD840B0020A40B002084B003469C
:103610008DF807309DF90730B3F1FF3F04D0002B40
:1036200005D10023039305E0044B039302E0044B10
:10363000039300BF039B184604B0704721E000F0DD
:1036400024E000F000B58BB0039002910192029B40
:103650000893039B0793019B9B000693069A089986
:10366000079828F0EDF803468DF817309DF91730CC
:103670001846FFF7CBFF0990099B002B09D1069A4A
:103680000899079827F039F90346002B01D0034B1E
:103690000993099B18460BB05DF804FB10E000F09D
:1036A00000B585B00190019828F0C6F803468DF862
:1036B0000B309DF90B301846FFF7A8FF0390039BD2
:1036C000002B0ED102F0D6FA0346194601981DF0E0
:1036D0004DF9034683F00103DBB2002B01D0034B0D
:1036E0000393039B184605B05DF804FB0EE000F061
:1036F00008B51DF079FA0346014A136000BF08BD02
:103700007C1F002008B5034B1B6818461DF078FA93
:1037100000BF08BD7C1F002008B500BF042104487D
:103720001DF0D6F90346002BF8D100BF00BF08BD3D
:103730008440005008B5FFF7EFFF044BD3F8843006
:103740009B0903F00303DBB2184608BD004000509C
:10375000054BDB6903F48033002B14BF01230023E6
:10376000DBB21846704700BF00000350024B002236
:10377000DA6300BF704700BF00000350024B41F600
:103780007132DA6300BF704700000350014B9B6841
:10379000184670470000035082B00190024A019B16
:1037A000936000BF02B070470000035084B00190E6
:1037B00000230393019BB3F5607F21D0019BB3F5F8
:1037C000607F34D8019BB3F5207F29D0019BB3F5EE
:1037D000207F2CD8019BB3F5007F19D0019BB3F556
:1037E000007F24D8019B002B03D0019BB3F5C07F41
:1037F0001DD1124B1B6F1B0B03F00F03039317E03C
:103800000E4BD3F880301B0903F0030303930FE042
:103810000A4BD3F890301B0E03F01F03039307E00D
:10382000064B1B6F9B0A03F00103039300E000BFEC
:10383000039B0133184604B0704700BF008000505E
:1038400010B582B001900091019BB3F5607F49D023
:10385000019BB3F5607F7CD8019BB3F5207F68D0D6
:10386000019BB3F5207F74D8019BB3F5007F4ED048
:10387000019BB3F5007F6CD8019B002B03D0019B0B
:10388000B3F5C07F65D1009B012B0AD0009B022BB2
:1038900007D0009B042B04D0009B082B01D0009B79
:1038A000102B1DF097F91DF08DF901F043F82B4B0B
:1038B0001B6F23F47042009B013B1B0327491343FA
:1038C0000B671DF0E6F80446FFF734FF0346C3F12B
:1038D0000203194620461DF046F901F0E9F901F00E
:1038E00035F837E0009B012B04D0009B022B01D060
:1038F000009B042B194BD3F8803023F03002009B3F
:10390000013B1B0115491343C1F8803022E0009BA5
:10391000002B01D0009B202B104BD3F8903023F0CC
:10392000F852009B013B1B060C491343C1F8903031
:1039300010E0009B012B01D0009B022B074B1B6F5B
:1039400023F48062009B013B9B02044913430B67F5
:1039500000E000BF00BF02B010BD00BF00800050FB
:1039600000B585B001900B468DF80330002303931A
:10397000019B5B09002B0FD0019B5B09012B02D13E
:103980000D4B039308E0019B5B09022B02D10B4B0B
:10399000039301E00A4B0393019B03F01F0302937F
:1039A0009DF803301A46029903981DF078F800BF7D
:1039B00005B05DF804FB00BF6480005068800050D3
:1039C0006082005010B584B001900023039300235F
:1039D0000293019BB3F5F06F00F0C282019BB3F537
:1039E000F06F00F2C382019BB3F5E06F00F0B2828A
:1039F000019BB3F5E06F00F2B982019BB3F5D06F84
:103A000000F0A282019BB3F5D06F00F2AF82019B60
:103A1000B3F5C06F00F09282019BB3F5C06F00F266
:103A2000A582019BB3F5B06F00F07C82019BB3F5DA
:103A3000B06F00F29B82019BB3F5A06F00F06C8227
:103A4000019BB3F5A06F00F29182019BB3F5906FDB
:103A500000F05C82019BB3F5906F00F28782019BBE
:103A6000B3F5806F00F04C82019BB3F5806F00F2DC
:103A70007D82019BB3F5607F00F03382019BB3F53B
:103A8000607F00F27382019BB3F5407F00F01C82DF
:103A9000019BB3F5407F00F26982019BB3F5207F63
:103AA00000F00682019BB3F5207F00F25F82019B4C
:103AB000B3F5007F00F0F081019BB3F5007F00F2C9
:103AC0005582019BB3F5C07F00F0E181019BB3F506
:103AD000C07F00F24B82019B002B00F0D881019B3C
:103AE000B3F5807F00F24282019B202BC0F03E8222
:103AF000019B203BE02B00F2398201A252F823F017
:103B00008F3E0000B13E00008F3E0000B13E00003D
:103B1000013F0000013F0000013F0000013F0000A5
:103B2000B13E0000B13E0000253F0000C93E00004C
:103B30003D3F0000493F0000C93E0000B13E00008B
:103B4000B13E0000B13E00006D3F00006D3F00003F
:103B50006D3F00006D3F00006D3F00006D3F0000B5
:103B6000193F00000D3F0000B13E0000B13E0000D3
:103B7000B13E0000613F0000553F0000B13E000033
:103B80006D3F00006D3F00006D3F00006D3F000085
:103B90006D3F00006D3F00006D3F00006D3F000075
:103BA0006D3F00006D3F00006D3F00006D3F000065
:103BB0006D3F00008F3E00006D3F00008F3E000013
:103BC0008F3E00008F3E0000013F00006D3F00006F
:103BD0006D3F00006D3F00006D3F00006D3F000035
:103BE0006D3F00006D3F00006D3F00006D3F000025
:103BF0006D3F00006D3F00006D3F00006D3F000015
:103C00008F3E00008F3E00006D3F00006D3F0000C2
:103C10006D3F00006D3F00006D3F00006D3F0000F4
:103C20006D3F00006D3F00006D3F00006D3F0000E4
:103C30006D3F00006D3F00006D3F00006D3F0000D4
:103C40006D3F00006D3F00006D3F00006D3F0000C4
:103C50006D3F00006D3F00006D3F00006D3F0000B4
:103C60006D3F00006D3F00006D3F00006D3F0000A4
:103C70006D3F00006D3F00006D3F00006D3F000094
:103C8000853E00006D3F00006D3F00006D3F00006D
:103C90006D3F00006D3F00006D3F00006D3F000074
:103CA0006D3F00006D3F00006D3F00006D3F000064
:103CB0006D3F00006D3F00006D3F00006D3F000054
:103CC0006D3F00006D3F00006D3F00006D3F000044
:103CD0006D3F00006D3F00006D3F00006D3F000034
:103CE0006D3F00006D3F00006D3F00006D3F000024
:103CF0006D3F00006D3F00006D3F00006D3F000014
:103D00006D3F00006D3F00006D3F00006D3F000003
:103D10006D3F00006D3F00006D3F00006D3F0000F3
:103D20006D3F00006D3F00006D3F00006D3F0000E3
:103D30006D3F00006D3F00006D3F00006D3F0000D3
:103D40006D3F00006D3F00006D3F00006D3F0000C3
:103D50006D3F00006D3F00006D3F00006D3F0000B3
:103D60006D3F00006D3F00006D3F00006D3F0000A3
:103D70006D3F00006D3F00006D3F00006D3F000093
:103D80006D3F00006D3F00006D3F00006D3F000083
:103D90006D3F00006D3F00006D3F00006D3F000073
:103DA0006D3F00006D3F00006D3F00006D3F000063
:103DB0006D3F00006D3F00006D3F00006D3F000053
:103DC0006D3F00006D3F00006D3F00006D3F000043
:103DD0006D3F00006D3F00006D3F00006D3F000033
:103DE0006D3F00006D3F00006D3F00006D3F000023
:103DF0006D3F00006D3F00006D3F00006D3F000013
:103E00006D3F00006D3F00006D3F00006D3F000002
:103E10006D3F00006D3F00006D3F00006D3F0000F2
:103E20006D3F00006D3F00006D3F00006D3F0000E2
:103E30006D3F00006D3F00006D3F00006D3F0000D2
:103E40006D3F00006D3F00006D3F00006D3F0000C2
:103E50006D3F00006D3F00006D3F00006D3F0000B2
:103E60006D3F00006D3F00006D3F00006D3F0000A2
:103E70006D3F00006D3F00006D3F00006D3F000092
:103E8000313F0000FEF72EFC034603936FE0FEF780
:103E900051FC034603936AE0FEF724FC04464FF40A
:103EA0000070FFF783FC0346B4FBF3F303935EE07B
:103EB000FEF740FC04464FF42070FFF777FC034602
:103EC000B4FBF3F3039352E0FEF734FC04464FF4E3
:103ED0002070FFF76BFC0346B4FBF3F35B0803931E
:103EE00045E002AB002118461CF051FE029C4FF445
:103EF0006070FFF75BFC0346B4FBF3F3039336E01B
:103F000003AB0021184600F079FD30E003AB00213F
:103F1000184600F089FC2AE003AB0021184600F0A7
:103F2000DDFC24E003AB0021184600F08DFE1EE00E
:103F300003AB0021184600F05DFF18E003AB002141
:103F4000184600F09DFD12E003AB0021184600F07A
:103F500005FF0CE003AB0021184600F0C3FE06E0AD
:103F600003AB0021184600F0CDFD00E000BF039B2D
:103F7000184604B010BD00BF00B585B00190002305
:103F80000393019BB3F5086F00F02681019BB3F505
:103F9000086F00F23381019BB3F5006F00F01081D0
:103FA000019BB3F5006F00F22981019BB3F5F06F1F
:103FB00000F00081019BB3F5F06F00F21F81019BBF
:103FC000B3F5E06F00F01481019BB3F5E06F00F2F0
:103FD0001581019BB3F5D06F00F0F880019BB3F51C
:103FE000D06F00F20B81019BB3F5C06F00F0DC8055
:103FF000019BB3F5C06F00F20181019BB3F5B06F77
:1040000000F0C080019BB3F5B06F00F2F780019B18
:10401000B3F5A06F00F0E680019BB3F5A06F00F24E
:10402000ED80019BB3F5906F00F0CA80019BB3F562
:10403000906F00F2E380019BB3F5806F00F0A880E1
:10404000019BB3F5806F00F2D980019BB3F5807FAF
:1040500000F0A480019BB3F5807F00F2CF80019B2C
:10406000522B69D8019B242BC0F0C880019B243BB4
:104070002E2B00F2C38001A252F823F091410000E0
:10408000914100009141000091410000FD4100007C
:10409000FD41000085410000FD410000A9410000F4
:1040A000CD410000FD410000FD410000FD41000048
:1040B000FD410000FD410000FD410000FD41000008
:1040C000FD410000FD410000FD410000E541000010
:1040D000FD410000FD410000FD410000FD410000E8
:1040E000B5410000F1410000FD410000FD4100002C
:1040F000FD410000FD410000FD410000FD410000C8
:10410000FD410000FD410000FD410000FD410000B7
:10411000FD410000FD410000FD410000FD410000A7
:10412000FD410000FD410000FD410000FD41000097
:10413000FD41000091410000019B802B5ED1324B7C
:104140001B6F03F00703013B032B17D801A252F8A2
:1041500023F000BF77410000654100006B41000083
:1041600071410000052303930BE00323039308E050
:104170000723039305E00223039302E00023039344
:1041800000BF3CE003AB1946002000F05DFD36E0C7
:1041900003AB1946002000F031FC30E003AB1946B8
:1041A000002000F027FE2AE003AB1946002000F0B3
:1041B00067FC24E003AB1946002000F0A3FC1EE0DE
:1041C00003AB1946002000F02FFB18E003AB1946A3
:1041D000002000F0C3FD12E003AB1946002000F000
:1041E000CBFB0CE003AB1946002000F077FB06E0A8
:1041F00003AB1946002000F075FD00E000BF039BF3
:10420000184605B05DF804FB00800050074B03F52D
:1042100080531A464FF400235366054B03F5805331
:104220001A460123936200BF704700BF0080005010
:1042300000C0005000B585B001900198FFF79CFECA
:104240000290029B082B07D0029B082B20D3029BD5
:10425000093B012B1CD804E0134B1B88ADF80E3032
:104260001BE0124B03F580531A464FF400135366BC
:104270000F4B5B6A03F00103002B04D04FF4FA7379
:10428000ADF80E3009E04FF6FF73ADF80E3004E0E4
:104290004FF6FF73ADF80E3000BFBDF80E30184674
:1042A00005B05DF804FB00BF640E002000800050E4
:1042B0000040025000B583B001908020FFF75CFE03
:1042C0000346032B00F0E280724B03F580531A463D
:1042D0004FF400235366704B45F60E02C3F880205E
:1042E0006D4B03F580531A46022393626A4B03F524
:1042F00000531A460123936200BF674B9B6D03F482
:104300008033002BF9D1019B1B681A06019B5B6867
:104310001B051A43019B1B7B1B041A43019B5B7B00
:104320001B031A43019B9B7B9B011343019AD27B86
:104330001146594A0B431361574B9B6903F00042E6
:10434000019B1B699B061A43019B5B691B061A4371
:10435000019B1B7E1B041A43019B5B7E1B021343C4
:10436000019A927E11464C4A0B4393614A4B1B6A59
:1043700023F00D03019AD269002A01D1002200E046
:1043800008221A43019BDB7E9B001A43019BDB69D9
:10439000414913430B62019BDB69002B57D13E4B14
:1043A0009B6A23F03302019B93F820305B011A4390
:1043B000019B93F821301B011343374A43F001035B
:1043C000936200BF344B9A6D344B1340334A93428F
:1043D000F8D1314B03F580531A46022393622E4BDA
:1043E00002221A6500BF2C4B9B6D03F08043002B0B
:1043F000F9D1294B1B6923F47002019B9B681B05B3
:10440000254913430B61244B03F580531A464FF0A3
:1044100000439361019B93F8223083F00103DBB2E8
:10442000002B05D01C4B03F500531A460223936260
:10443000019B93F8233083F00103DBB2002B1BD0E8
:10444000154B03F500531A460123936214E0124BF7
:104450009B6A23F03302019B93F820305B011A43DF
:10446000019B93F822305B001343019A92F82320BA
:104470001146094A0B439362019B93F82430002BA9
:1044800005D0054B064AC3F8802000E000BF03B00A
:104490005DF804FB0080005000C0005003000140A4
:1044A000F1A7FFFF00B585B00190354B9B6A0293E1
:1044B000019BFF2B01D921235DE0314B9B6D03F460
:1044C0008033002B05D02E4B03F580531A46012371
:1044D00093622B4B03F580531A4602239362284BB9
:1044E0009B6D03F48033002B06D000BF244B9B6DE3
:1044F00003F00203002BF9D0214B03F580531A4639
:104500000223136500BF1E4B9B6D03F08043002BFD
:10451000F9D100F039F803461A46019B134403937E
:10452000039B002B02DA0023039304E0039BFF2B81
:1045300001DDFF230393124B9B6923F47F0323F4D4
:104540007F43039A12041A43019B1B029BB20C493E
:1045500013438B61029A02210A481CF0C6FA084BE9
:104560009B6D03F48033002B04D0029A012105488F
:104570001CF0BBFA0023184605B05DF804FB00BF31
:1045800000C0005028C00050024B93F9003018467C
:10459000704700BF6A2D002000B583B02A4B9B6A8C
:1045A0000193294B03F580531A460123936200BF00
:1045B000254B9B6D03F00303032BF9D1224B03F52D
:1045C00080531A46022393621F4B03F580531A4609
:1045D0000223136500BF1C4B9B6D03F08043002B2F
:1045E000F9D100BF184B9A6D184B1340174A9342EC
:1045F000F8D1154B03F580531A460123136500BF0C
:10460000114B9B6D03F00203022BF9D000BF0E4B40
:104610009B6D03F00203002BF9D00B4B03F5805385
:104620001A460223136500BF074B9B6D03F002037C
:10463000002BF9D0019A032105481CF056FA00BF5F
:1046400003B05DF804FB00BF00C000500300010090
:1046500028C0005084B001904F230393019B5B78E6
:104660008DF80B309DF80B20039B934228BF134617
:104670008DF80A30284B03F580531A464FF4800317
:104680005366264B4FF4D1525A62244B03F58053A4
:104690001A4602235360214B03F500531A460123A7
:1046A000536000BF1D4B1B6903F48033002BF9D10D
:1046B000019B1B781A029DF80A30184913434B617D
:1046C000019B5B681A02019B9B681B011A43019BBB
:1046D0001B7B5B001343019A527B11460F4A0B432D
:1046E0009360019B9B7B5A01019BDB7B1B011A435F
:1046F000019B1B7C5B001343019A527C1A43074BBE
:104700005A60019B9B7C002B03D0044B6FF4D15269
:104710005A6200BF04B07047008000500000025091
:1047200082B00346ADF80630034ABDF80630138068
:1047300000BF02B0704700BF640E002082B0034685
:10474000ADF80630034ABDF80630138000BF02B052
:10475000704700BF660E002000B587B003468DF895
:104760000730002303930023059300230493274B72
:1047700003F580531A464FF400135366244B02226C
:104780005A6000BF224B9B6803F48033002BF9D1A1
:104790009DF80730012B2ED1FDF7F0FF0390039B0E
:1047A0001C4A934205D11C4B059345F67A1304939A
:1047B00017E0039B194A934205D1194B059345F61F
:1047C0001A0304930DE0039A13469B0013445B0AFB
:1047D0000593144B0493039B5B0A049AB2FBF3F317
:1047E00004930B4A059BD362094A049B1363084B4D
:1047F00001225A6202E0064B00225A62044B002258
:104800005A6000BF07B05DF804FB00BF0080005095
:104810000040025000F04902D8B80500C01753020A
:10482000BBCF05006466666600B585B00190009157
:1048300000230393284BD3F8243103F00703062BFE
:1048400037D801A252F823F0AD48000065480000B7
:104850007D48000095480000A14800007148000014
:1048600089480000FDF738FF03900523029323E0F9
:10487000FDF732FF0390062302931DE0FDF77EFF54
:1048800003900323029317E0FDF778FF03900423BE
:10489000029311E0FDF78EFF0390022302930BE0D9
:1048A0001BF06CFD03900723029305E001230293A4
:1048B00002E00023029300BF019B002B02D0019B6A
:1048C000039A1A60009B002B02D0009B029A1A6088
:1048D00000BF05B05DF804FB0080005000B583B058
:1048E00001900091124BD3F8203203F00303012B07
:1048F00002D0022B05D009E00099019800F07EF863
:1049000011E00099019800F0BBF80CE0019B002B2E
:1049100002D0019B00221A60009B002B02D0009B5A
:1049200000221A6000BF00BF03B05DF804FB00BFA7
:1049300000800050044B03F580531A464FF4803337
:10494000136700BF704700BF0080005008B580208B
:10495000FFF738F80346064A934206D8054B03F59D
:1049600000531A464FF48033136700BF08BD00BFE1
:10497000005A62020080005000B585B0019000919D
:10498000002303931C4BD3F8003103F00303032BE4
:104990001FD801A252F823F0CD490000A949000018
:1049A000B5490000C1490000FDF7E8FE039003236C
:1049B000029311E0FDF704FF0390082302930BE03C
:1049C0001BF0DCFC03900723029305E00123029314
:1049D00002E00023029300BF019B002B02D0019B49
:1049E000039A1A60009B002B02D0009B029A1A6067
:1049F00000BF05B05DF804FB0080005000B585B035
:104A000001900091002303931C4BD3F8203103F055
:104A10000303032B1FD801A252F823F0514A0000D0
:104A20002D4A0000394A0000454A0000FDF754FEB7
:104A300003900523029311E0FDF7A0FE03900323EA
:104A400002930BE0FDF7B6FE03900223029305E00C
:104A50000123029302E00023029300BF019B002B7D
:104A600002D0019B039A1A60009B002B02D0009B8E
:104A7000029A1A6000BF05B05DF804FB0080005088
:104A800000B585B001900091002303931C4BD3F82F
:104A9000403103F00303032B1FD801A252F823F087
:104AA000D54A0000B14A0000BD4A0000C94A0000D2
:104AB0001BF067FC03900923029311E0FDF780FED1
:104AC0000390082302930BE01BF05FFC03900B2381
:104AD000029305E00123029302E00023029300BF4A
:104AE000019B002B02D0019B039A1A60009B002BB4
:104AF00002D0009B029A1A6000BF05B05DF804FB6B
:104B00000080005000B585B0019000910023039310
:104B10001C4BD3F8603103F00303032B1FD801A211
:104B200052F823F0594B0000354B0000414B000078
:104B30004D4B00001BF025FC03900923029311E06C
:104B4000FDF73EFE0390082302930BE01BF01DFCD3
:104B500003900B23029305E00123029302E000235C
:104B6000029300BF019B002B02D0019B039A1A60A5
:104B7000009B002B02D0009B029A1A6000BF05B078
:104B80005DF804FB0080005084B0019000914FF468
:104B900040130393009B002B0AD1019B0D4A9342C3
:104BA00003D94FF4801303930FE0002303930CE029
:104BB000009B002B09DD019B064A934203D94FF469
:104BC0008013039301E000230393039B184604B072
:104BD000704700BF005A620200B585B00190009195
:104BE000184B03F580531A464FF4003393660020A8
:104BF000FEF7DCFD0246019B02FB03F30193FEF787
:104C0000A7FD03468DF80F30FEF7B8FDFEF7BEFD99
:104C1000034623F44013029300990198FFF7B4FF71
:104C20000246029B134302930298FEF7B5FD9DF8DE
:104C30000F30002B01D0FEF799FD00BF05B05DF8E5
:104C400004FB00BF0080005000B585B001900091CA
:104C500000230293154BD3F8803103F00303012B9B
:104C600002D0022B08D00EE002AB00211846FFF75D
:104C7000C5FE0F23039309E0FDF79CFD0346029355
:104C80000223039302E00023039300BF019B002B48
:104C900002D0029A019B1A60009B002B02D0009B5D
:104CA000039A1A6000BF05B05DF804FB0080005055
:104CB00000B583B0022301934FF4C070FEF782FE6B
:104CC0000346074A934201D80123019301994FF407
:104CD0002070FEF7B5FD00BF03B05DF804FB00BF18
:104CE00080F0FA0200B585B0019000910023039393
:104CF000194BD3F8403203F00303032B12D0032BDC
:104D000016D8012B02D0022B06D011E01BF039FB84
:104D10000390092302930EE0FDF752FD0390082350
:104D2000029308E01BF031FB03900B23029302E097
:104D30000023029300BF019B002B02D0019B039A2A
:104D40001A60009B002B02D0009B029A1A6000BFE1
:104D500005B05DF804FB00BF0080005000B585B0D1
:104D60000190009100230393214BD3F8003203F00C
:104D70000703042B29D801A252F823F0C54D0000E7
:104D8000914D00009D4D0000A94D0000B54D000063
:104D90001BF0F7FA03900923029319E0FDF710FDC9
:104DA00003900823029313E01BF0EFFA03900B2308
:104DB00002930DE0FDF7BEFC03469B0A03930E230E
:104DC000029305E00123029302E00023029300BF57
:104DD000019B002B02D0019B039A1A60009B002BC1
:104DE00002D0009B029A1A6000BF05B05DF804FB78
:104DF0000080005000B585B001900091002303931E
:104E0000114B1B6803F00403002B06D0FDF792FC46
:104E1000034603930C23029305E002AA03AB114659
:104E20001846FFF72DFE019B002B02D0039A019B31
:104E30001A60009B002B02D0029A009B1A6000BFF0
:104E400005B05DF804FB00BF10E000E0054B5B68B7
:104E5000C3F30803002B14BF01230023DBB2184661
:104E6000704700BF00ED00E084B003468DF80730C6
:104E70009DF90730002B02DB9DF907303F2B0C4BCF
:104E800003939DF907305A09039B53F822209DF89C
:104E9000073003F01F0322FA03F303F00103002B92
:104EA0000CBF01230023DBB2184604B0704700BFDB
:104EB00000E100E0024B034A1A6400BF704700BFE4
:104EC000004009503254FFFF024B4AF6CD321A64BB
:104ED00000BF70470040095008B500BF04210448D6
:104EE0001BF0B8FE0346002BF8D100BF00BF08BD81
:104EF0008440005008B5FFF7EFFF044BD3F884302F
:104F00009B0903F00303DBB2184608BD00400050C4
:104F100082B00190044B03F500531A46019BC2F87E
:104F2000203400BF02B0704700C0035000B585B008
:104F300003468DF807309DF80730002B13D12D4B19
:104F400000221A602C4B03F580531A464FF40033AD
:104F500053662A4B5B68012B47D1274BD3F80031AE
:104F6000244A136041E0234B1B68002B3DD0234BA8
:104F70005B68012B39D0204A1E4B1B68C2F80031F8
:104F80008020FEF7F9FF0346052B28D14FF4C070AF
:104F9000FEF70CFC0390039B012B04D102214FF47C
:104FA000C070FEF74DFC154B03F500531A4607235E
:104FB0001361124B03F580531A460123536000BF5F
:104FC0000E4B1B6903F00103002BF9D0039B012B4F
:104FD0000BD101214FF4C070FEF732FC05E0074B06
:104FE00003F580531A460123536000BF05B05DF8F6
:104FF00004FB00BF342000200080005000C001509E
:1050000000B583B00190019B1A78054B1A700121FD
:10501000002000F0A3F800BF03B05DF804FB00BF60
:105020003020002082B00190064B5B6F23F4407269
:10503000019B5B781B02034913434B6700BF02B01F
:10504000704700BF0040005000B585B003468DF8A2
:1050500007309DF80730002B02D00020FFF766FFD5
:10506000164B1B69154A43F00403136104F032FD2B
:105070001BF00BFE1248FFF74BFF1BF0B5FD039032
:1050800026F0E2FB03981BF0BBFD1BF000FE04F0D2
:1050900053FD9DF80730002B02D00120FFF746FF9B
:1050A0009DF8073083F00103DBB2002B01D01BF029
:1050B000CCFD00BF05B05DF804FB00BF00ED00E0D3
:1050C0000000FF0F00B585B003468DF807309DF84E
:1050D0000730002B02D00020FFF728FF144B1B697C
:1050E000134A43F0040313611248FFF711FF04F061
:1050F000F1FC1BF079FD039026F0A6FB03981BF052
:105100007FFD04F019FD9DF80730002B02D001202F
:10511000FFF70CFF9DF8073083F00103DBB2002B93
:1051200001D01BF092FD00BF05B05DF804FB00BF8D
:1051300000ED00E00000FF0F82B00190064BDB6E37
:1051400023F03003019A12791146034A0B43D366C8
:1051500000BF02B0704700BF0040005000B585B0EE
:1051600001900B468DF80330019B002B03D1FDF716
:10517000B9FA039001E0019B03930D4B1B78002BC0
:105180000AD0039B0B4A934206D89DF80330194678
:10519000012000F011F806E09DF8033019460220C6
:1051A00000F00AF800BF00BF05B05DF804FB00BFC7
:1051B00030200020005A620210B586B003460A462D
:1051C0008DF8073013468DF80630FFF793FE03463F
:1051D0001A469DF80730934240D0FDF783FA0590B8
:1051E000059B04939DF80730012B03D101210598FD
:1051F0001BF0B9FC1BF0F8FC03901A4B03F50053AD
:105200001A464FF0007353669DF8073018461BF09E
:105210004CFD144C9DF8073018461BF028FD034642
:10522000236702E00F4BD3F884300E4B5B6E03F024
:105230000073002B06D10B4BD3F8843003F020030E
:10524000002BEFD003981BF0DBFC9DF80730022BFE
:1052500005D1002105981BF086FC00E000BF06B0D8
:1052600010BD00BF0040005000B587B003468DF868
:1052700007300023059300230493444B03F5805328
:105280001A464FF000435366414B03F580531A46CC
:10529000012353603E4B5B6C03F00103002B14BFF2
:1052A000012300238DF80F30FFF70EFE9DF8073025
:1052B000002B2BD1364B9B6803F001030293029B1A
:1052C000002B19D0324B03F500531A46012393608B
:1052D00002E0049B013304932D4BDB6A03F00103CE
:1052E000002B03D1049B2B4A9342F2D9049B294AF9
:1052F000934201D907230593254B03F500531A4622
:105300000123536035E0049B01330493204BDB6A97
:1053100003F00803002B03D0049B1E4A9342F2D9EA
:10532000049B1C4A934202D90723059321E0184BA2
:1053300003F500531A4620235362154B03F580539F
:105340001A46012393600023049302E0049B013377
:1053500004930F4B5B6A03F02003002B03D1049BE3
:105360000C4A9342F2D9049B0A4A934201D907237B
:1053700005939DF80F30002B01D0FFF79BFD24F023
:1053800052FC059B184607B05DF804FB00800050F6
:10539000004009503F420F0000B585B001902B4BF3
:1053A00003F580531A464FF000435366284B03F52C
:1053B00080531A4601235360254B5B6C03F00103B5
:1053C000002B14BF012300238DF80F30FFF77CFD65
:1053D000019B5B785B001F4A43F00103D3631C4BC6
:1053E0009B6823F07402019B9B781B011343019A75
:1053F000D278002A01D0042200E00022144913438D
:105400008B60019B1B791B02019A92791146104A0D
:105410000B431361019B5B791B02019AD279114600
:105420000B4A0B435361019B1B781846FFF71CFF87
:105430009DF80F30002B01D0FFF73CFD24F0F3FB6B
:105440000123184605B05DF804FB00BF0080005042
:10545000004009500040005084B003468DF80730EA
:105460000F4BDB6E03F030030393039B202B13D011
:105470009DF80730002B08D0094BDB6E23F030037A
:10548000074A43F01003D36607E0054BDB6E044A7E
:1054900023F03003D36600E000BF04B0704700BFC4
:1054A0000040005082B00190044B03F500531A46AF
:1054B000019BC2F8203400BF02B0704700C0035007
:1054C00082B0034600918DF807309DF80730002B1D
:1054D0000AD09DF80730012B06D09DF80730022B2B
:1054E00002D09DF80730032B08489DF807200121C2
:1054F000009B994013465B0013441B01034403F5D2
:1055000000531033196000BF02B0704700C0035051
:1055100082B0034600918DF807309DF80730002BCC
:105520000AD09DF80730012B06D09DF80730022BDA
:1055300002D09DF80730032B08489DF80720012171
:10554000009B994013465B0013441B01034403F581
:1055500080531033196000BF02B0704700C0035081
:1055600000B587B0029101921A4603468DF80F30BC
:1055700013468DF80E30002305939DF80F30002B55
:105580000AD09DF80F30012B06D09DF80F30022B6A
:1055900002D09DF80F30032B019B072B0FD8019BE6
:1055A0009B00032202FA03F19DF80F20019B9B0050
:1055B00002FA03F31A462D481BF097FB11E0019BFA
:1055C000083B0593059B9B00032202FA03F19DF81B
:1055D0000F20059B9B0002FA03F31A4624481BF098
:1055E00084FB019B072B10D8019B9B00032202FA2E
:1055F00003F1029B03F00302019B9B0002FA03F3F9
:105600001A461C481BF071FB0FE0059B9B00032210
:1056100002FA03F1029B03F00302059B9B0002FACE
:1056200003F31A4614481BF060FB9DF80E301A462F
:10563000019912481BF040FB9DF820301A46019951
:105640000F481BF039FB0122019B02FA03F31846B5
:10565000FFF728FF9DF824301A46019909481BF0EE
:105660002BFB00BF07B05DF804FB00BF00C4035074
:1056700004C4035008C403500CC4035010C40350A6
:1056800014C4035024C4035000B587B002910192A2
:105690001A4603468DF80F3013468DF80E309DF8EC
:1056A0000F30002B0AD09DF80F30012B06D09DF84B
:1056B0000F30022B02D09DF80F30032B9DF80E30D7
:1056C00083F00103DBB29DF80F00032202991BF067
:1056D0002BFB9DF80E20019B103302FA03F3059378
:1056E000019B1033012202FA03F3049305990498F5
:1056F00000F00EF8019B10339DF820201946034856
:105700001BF0DAFA00BF07B05DF804FB24C40350B5
:1057100000B583B001900091124BD3F83024019B67
:10572000DB4310491340C1F830340E4BD3F830241A
:105730000199009B0B400B491343C1F83034094BCE
:10574000D3F82C240749019B1343C1F82C340120C2
:10575000FFF782FE0198FFF7A5FE00BF03B05DF8DA
:1057600004FB00BF00C0035082B003468DF8073031
:105770009DF90730002B0CDB9DF8073003F01F026A
:1057800005499DF907305B09012000FA02F241F852
:10579000232000BF02B0704700E100E082B0034662
:1057A0008DF807309DF90730002B13DB9DF807308B
:1057B00003F01F0209499DF907305B09012000FA37
:1057C00002F2203341F82320BFF34F8F00BFBFF315
:1057D0006F8F00BF00BF02B0704700BF00E100E064
:1057E00082B003468DF807309DF90730002B0DDBA2
:1057F0009DF8073003F01F0206499DF907305B0949
:10580000012000FA02F2603341F8232000BF02B009
:10581000704700BF00E100E082B0034600918DF8C0
:1058200007309DF90730002B0ADB009BDAB20C49E8
:105830009DF907301201D2B20B4483F800230BE02C
:10584000009BDAB207499DF8073003F00F03043BD1
:105850001201D2B20B441A7600BF02B0704700BFEB
:1058600000E100E000ED00E008B51520FFF796FF2D
:10587000094B00225A65084BFF229A62064B002210
:105880005A6000212020FEF76BF800212120FEF74E
:1058900067F800BF08BD00BF0000045000B583B02A
:1058A00001900B468DF8033001999DF8033083F089
:1058B0000103DBB21A4603481BF0AFFA00BF03B086
:1058C0005DF804FB4000045000B585B00190012153
:1058D0002020FEF745F801212120FEF741F81B4B5F
:1058E00001225A60019B1B781B060393174A039BF6
:1058F0009360019B5B781B04019A92781146134ACE
:105900000B439361114BFF229A62104B00229A6362
:105910000E4B00221A640D4B4FF000425A650B4BA0
:1059200003F500531A464FF0FF3313651520FFF7B8
:1059300057FF019BDB7819461520FFF76DFF1520F7
:10594000FFF712FF00BF05B05DF804FB0000045034
:1059500000B587B0039002910192039BDBB21A4617
:105960000123934005933E4B03F500531A46059BD4
:1059700013653C49029B1A68039B41F82320029B54
:105980005B7B37491846039A13465B0013441B019F
:105990000B4460331860029B9B7A1A04029BDB7AEB
:1059A0001B051A43029B1B7B5B0513432C491846BE
:1059B000039A13465B0013441B010B445C331860CD
:1059C000019B274823F00301039A13465B0013440D
:1059D0001B010344703319601BF01CF90490204B29
:1059E0005A6D1F49059B13434B65029B1B7A002B85
:1059F00005D01B4B1A6C1A49059B13430B64029B81
:105A00005B7A002B05D0164B9A6B1549059B134307
:105A10008B63029B1B791B04029A92791343104AF1
:105A200003F0FF1302F500529361029B5B791B04A4
:105A3000029AD27913430A4A03F0FF1302F5805207
:105A40009361059908481BF001FA054A059B936488
:105A500004981BF0EFF800BF07B05DF804FB00BF2F
:105A600000000450004004503400045000B585B0DC
:105A70000190019BDBB21A460123934003931BF074
:105A8000C9F80290084B5A6D039BDB43064913404B
:105A90004B65054A039B936202981BF0CBF800BF4D
:105AA00005B05DF804FB00BF0000045000B587B0EE
:105AB000019000238DF81730019BDBB21A460123B9
:105AC000934004931BF0A6F803900C4BDA6A049BF6
:105AD0001340002B09D1094B5A6B049B1340049AC5
