:10000000C00A00207D2800009D0702009D07020015
:100010006F3002009D0702009D0702009D0702004D
:100020009D0702009D0702009D0702009D07020038
:100030009D0702009D070200B90202009D07020011
:100040009D0702009D0702009D0702009D07020018
:100050009D0702009D0702009D0702009D07020008
:100060009D0702009D0702009D0702009D070200F8
:10007000BF3402009D0702009D0702001D260000FC
:100080000D2600009D0702009D0702009D0702004B
:100090009D070200FD3200009D0702009D0702003F
:1000A0009D070200610D0200390D02009D0702004C
:1000B0009D0702006DC701009D070200C9D1010024
:1000C000CFA90200CBA90200B9C90100DBA9020037
:1000D000D3A90200A1D10100D7A9020009D20100D1
:1000E000A1AA010065AC010079D201009D070200C0
:1000F0009D0702009D0702009D0702009D07020068
:100100009D0702009D0702009D0702009D07020057
:100110009D0702009D0702009D0702009D07020047
:100120009D0702009D0702009D0702009D07020037
:100130009D0702009D0702009D0702009D07020027
:1001400030B589B00190009172B600BF4E4B1B686C
:10015000079362B600BF4D4B1B68079AD31A184627
:100160001DF050FA02460B46CDE90423474A079B8F
:10017000136043A3D3E90023DDE904011DF0E6FB8E
:1001800002460B464249C1E90023424B1B78002B33
:100190000AD0414B1B78F92B09D83F4B1B78013310
:1001A000DAB23D4B1A7002E03B4B00221A70394B19
:1001B0001B78002B17D0384B1A78384B1B789A4293
:1001C00011D3334BD3E90001354BD3E900231DF0A4
:1001D00005FD0346002B06D0324B01221A70012088
:1001E00000F0ECFF0CE02B4B1B7883F00103DBB23B
:1001F000002B05D02B4B00221A70002000F0DEFFF0
:10020000234BD3E900014FF00002274B1DF074FA95
:1002100002460B46104619464FF00002234B1DF0D4
:10022000B5F802460B46104619461DF0FFFC034682
:10023000ADF80E30BDF80E30184600F095FF0323E0
:100240000293029812F0DCFC194B1B68002B12D0B1
:10025000174B1C680E4BD3E90023104619461DF0BE
:1002600005FD05460F4B1B78124A12681946079880
:1002700000EE105AA04700BF09B030BDAFF30080B8
:10028000D7A3703D0AD71640D0140020D814002000
:10029000E0110020742D0020762D0020770E002024
:1002A000C00A0020752D0020000059400000E03FEA
:1002B000DC140020E0140020002370B5404C0546FB
:1002C0008AB0E36318B10088236010F05DF93D48FF
:1002D00029F024FE3C4E3D4B304633603C4B73606E
:1002E00026F0E9FF0021304616F0CCFA32A3D3E91C
:1002F0000023A062C4E9062326F0E8FFD4E9062320
:1003000019431043C4E90601CDE900014FF0FF3362
:100310004FF0FF32A06A29F07CFE02224FF0FF313D
:10032000A06A29F07BFE01200FF0A8FE4FF40073B5
:1003300000222849A06A29F0C5FEB0F5007F38D117
:1003400000239422CDE9073309933C23CDE90332FE
:1003500005939623A06A03A9069316F0B1FB35B363
:10036000287C10F091FA0546F0B9A06A29F08BFFBD
:1003700010F038FA0FF064FE20B14FF480700021C5
:100380000DF0D6FE0FF06CFE20B14FF4006000219E
:100390000DF0CEFE27F05DF8012016F0C7FA0E4AE8
:1003A0000E49A06A26F085FF28460AB070BDFF20DE
:1003B000D7E70725F8E700BF0DD50155200000005D
:1003C00058120020690345ECCC25002001FF0000F5
:1003D000DC250020CC2300205B7202009B7202000F
:1003E0002DE9F04FC76997B08346209E08910C9283
:1003F000129355EC104B8DED000B7FB910201DF0C2
:100400002FFE0246CBF81C0020B9A74BEF21A748CE
:100410001FF016F9C0E901770760C760DBF81C30F0
:10042000196859B15A680123584693404A608B6055
:100430001EF096FCDBF81C3000221A602B1EB7BFA2
:1004400023F00043002301220193A8BF3360019FE2
:10045000974BB8BF3260BB4319D142F20F73129A67
:100460001360C7F31303234300F0DB85219B53B9CB
:10047000904B21E0904B03930833219A136003982B
:1004800017B0BDE8F08F8B4B03930333F5E79DED79
:10049000007B0022002351EC170B8DED0A7B1DF031
:1004A00093FB804650B10123129A1360219B13B134
:1004B000824B219A1360824B0393E0E7C7F30A56FD
:1004C00014AA15A958469DED0A0B1EF0D1FE029004
:1004D000002E76D00B9BA6F2FF36CDF84C80C3F3EE
:1004E000130343F07F53DDE90A0143F44013194637
:1004F0000022744B1CF048FF65A3D3E900231DF0D4
:10050000FBF865A3D3E900231CF040FF04460D4629
:1005100030461DF087F862A3D3E900231DF0ECF804
:1005200002460B46204629461CF030FF04460D4685
:100530001FF010FE002207460023204629461DF02A
:100540004DFB40B138461DF06DF822462B461DF09C
:100550003BFB00B9013F162F52D85B4B03EBC7039F
:10056000DDE90A01D3E900231DF038FB002849D05A
:10057000013F00231193149B9B1B5A1E4CBFC3F1D8
:1005800001030023079245BF0693002306930793B8
:10059000002F39DB079B10973B44079300230993F7
:1005A000089B092B66D8052BC5BF043B00240124FA
:1005B0000893089B023B032B67D8DFE803F02D3A32
:1005C0003859DDE914631E4406F23243202BC9BFBB
:1005D000C3F14003C3F120039F4006F21243D8BF8A
:1005E00004FA03F006F1FF36C4BF24FA03F347EA26
:1005F00003001DF007F80122A1F1F873139276E7CA
:100600000123B7E71190B6E7069BDB1B06937B42FD
:10061000099300231093C3E700230D930C9B002B39
:1006200056DC012399461A4604930C920CE00123F0
:10063000F3E700230D930C9BFB1803F101090493CE
:100640004B46012BB8BF0123DBF81C00002104221C
:1006500002F114059D423FD9416058461EF040FB0F
:10066000039000283BD1194B024640F2AF11CEE671
:100670000123DFE7012400230D9408934FF0FF339B
:100680000022994604931223CFE701230D93F5E747
:1006900061436F63A787D23FB3C8608B288AC63F88
:1006A000FB799F501344D33F7A000300910003006D
:1006B0000000F07F760003006D0003004A00030095
:1006C000490003000000F83F90010300EA00030026
:1006D0000C9B99460493B7E701315200B8E7DBF869
:1006E0001C30B9F10E0F039A1A606FD8002C6DD030
:1006F000002F36DD07F00F02A04BF8054FEA271454
:1007000003EBC20393ED007B8DED0E7B17D59C4B65
:1007100004F00F044FF00308D3E90823DDE90A01D0
:100720001DF014F9CDE90001954D5CB9DDE90E230A
:10073000DDE900011DF00AF9CDE900012BE04FF0E1
:100740000208F1E7E10709D508F10108DDE90E012A
:10075000D5E900231CF0D0FFCDE90E016410083567
:10076000E3E700F007817C42844B854D4FF002089F
:1007700004F00F02241103EBC203DDE90A01D3E9FF
:1007800000231CF0B9FF0023CDE90001002C40F04C
:10079000E580002BD0D1119BDDE90045002B00F056
:1007A0004C810022774B204629461DF017FA00287D
:1007B00000F04381B9F1000F00F03F81049B002B52
:1007C00000F3E480DDE90A34CDE90034159B002B09
:1007D00002DB0E2F40F342820D9A002A40F067821E
:1007E000099C0025DDF81880B8F1000F0DD0079B9B
:1007F000002B0ADD4345069AA8BF4346D21AA8EB50
:1008000003080692079AD31A0793099B0BB30D9B13
:10081000002B00F0A682002C00F0A182294622467F
:1008200058461EF0C7FB029A0146054658461EF080
:1008300017FB0299064658461EF092FA099B1B1BAD
:10084000099300F09182099A314658461EF0B2FB96
:100850000290012158461EF0EDFA109B0446002B31
:1008600000F084821A46014658461EF0A3FB089BFE
:100870000446012B03DC009B002B00F07C82002649
:10088000236904EB830318692AF02AFBC0F12000D6
:100890001096079B184410F01F0000F09182C0F1E1
:1008A0002003042B40F38182C0F11C00069B03440B
:1008B00080440693079B03440793069B002B05DDAA
:1008C0001A46029958461EF0CFFB0290079B002B58
:1008D00005DD21461A4658461EF0C6FB0446119B0C
:1008E000002B00F07682214602982AF048FB00286F
:1008F00080F26F8200230A22029958461EF052FAB3
:100900000D9B7E1E0290002B00F05C820023294686
:100910000A2258461EF046FA049B0546002B03DCCB
:10092000089B022B00F35E82B8F1000F05DD29461B
:10093000424658461EF098FB0546109B002B00F0DF
:10094000D082696858461EF0CBF90746002840F06F
:100950007F820D4B024640F2EF2158E5E20706D5B3
:1009600008F10108D5E900231CF0C6FE012364103C
:1009700008350BE74FF002080DE700BF90010300B8
:10098000680103000000F03FEA0003002046002257
:10099000AC4B29461CF0B0FE7E1E08F10108049CF9
:1009A000CDE9000140461CF03DFEDDE900231CF0CE
:1009B000A3FEA54B00221CF0E9FCA1F15073CDE988
:1009C0000E010F93002C3BD10022A04BDDE900016A
:1009D0001CF0DAFC02460B46CDE90023DDE90E23CC
:1009E0001DF01AF9002840F05781DDE90E2101F1D0
:1009F0000043DDE900011DF0F1F800283FF4E2AE0C
:100A0000002425460C9BDDF80CA0DE434FF00008C7
:100A1000214658461EF0A4F9002D00F0A980B8F137
:100A2000000F05D0A84503D0414658461EF098F95E
:100A3000294658461EF094F99AE03E464C46B1E7E6
:100A4000834B03EBC40353E90201039B1C440D9B3E
:100A5000002B4AD002460B4600207E491CF076FF50
:100A6000DDE90E231CF090FCDDF80CA0CDE90E01B1
:100A7000DDE900011FF06EFB05461CF0D3FD0246C8
:100A800030350B46DDE900011CF07EFC0AF8015B05
:100A900002460B46CDE90001DDE90E011DF0BCF870
:100AA000002865D100206C49DDE900231CF06CFCB6
:100AB00002460B46DDE90E011DF0AEF8002840F0BD
:100AC0000D81A24500F0EA8000225E4BDDE90E01B7
:100AD0001CF012FE00225B4BCDE90E01DDE90001A6
:100AE0001CF00AFECDE90001C2E7DDE90E231CF08F
:100AF00003FEA046DDF80CA0CDE90E01DDE9000102
:100B00001FF028FB05461CF08DFD024630350B46D4
:100B1000DDE900011CF038FC0AF8015B02460B46D7
:100B2000A245CDE900234FF0000223D1494BDDE976
:100B30000E011CF02BFC02460B46DDE900011DF006
:100B40006BF8002840F0CA8000204249DDE90E23FE
:100B50001CF01AFC02460B46DDE900011DF03EF8D0
:100B600070B1C24608F1FF381AF8013C302BF8D0BA
:100B7000374655E0334B1CF0BFFDCDE90001BDE722
:100B8000DDE90A34CDE90034159B002BFFF628AED1
:100B90000E2F3FF725AE2E4B03EBC70393ED007BE3
:100BA0000C9B002B8DED047B02DAB9F1000F64D0B1
:100BB000DDF80CA0DDE90045DDE9042320462946E7
:100BC0001CF0C4FE1FF0C6FA06461CF02BFDDDE942
:100BD00004231CF091FD0246204606F130040B462A
:100BE00029461CF0D1FB0AF8014B039C02460B4638
:100BF000AAEB0404A14540F082801CF0C7FB044628
:100C00000D46DDE904231DF007F8002865D12046D4
:100C10002946DDE904231CF0D7FF08B1F3075CD4B3
:100C2000029958461EF09CF8002301378AF80030DC
:100C3000129B1F60219B002B3FF421ACC3F800A046
:100C40001DE400BF0000244000001C4000001440D0
:100C5000900103000000E03F0000F03FA24B03EBD7
:100C6000C70393ED007B0C9B002B8DED047B9FDA7B
:100C7000B9F1000F9CDC7FF4C3AE00229B4BDDE991
:100C800004011CF039FDDDE900231CF0BBFF044624
:100C900000287FF4B5AE3E462546B4E0DDE90A34CF
:100CA000CDE90034159B002B01DB0E2FD6DD089A11
:100CB000012A36DC139A82B303F23343099CDDF830
:100CC0001880069A012158461A440692079A1A4437
:100CD00007921EF0AFF8054686E53E4653469A4613
:100CE00013F8012D392A06D1039A9A42F7D13022FE
:100CF000039901360A701A7801321A7038E7002217
:100D00007B4B1CF0F9FC0022002304460D461CF02E
:100D10005BFF00283FF450AF82E7149BC3F136031A
:100D2000CCE709F1FF34099BA34208DBB9F1000FBE
:100D3000A3EB04040EDBDDF818804B46C1E7099BEA
:100D4000109AE31A0994DDF8188000241A444B46DF
:100D50001092B6E7069BA3EB09080023B1E7029EB9
:100D600071E5099A029970E5029672E5089B012BDC
:100D700017DC009BABB9019BC3F313039BB9019B29
:100D800023F00046360D360536B1069B01260133A9
:100D90000693079B01330793109B002B7FF470ADE4
:100DA0001096012075E50026F6E73FF486AD1C336A
:100DB000069A1A4498440692079A1A4407927CE5C8
:100DC0000346F4E7049B002B2BDC089B022B09DC79
:100DD00027E0B9F1000F1DDC089B022B1ADD3E460F
:100DE000CDF81090049B002B7FF40CAE2146052219
:100DF00058461DF0D7FF0146044602982AF0BFF876
:100E000000287FF7FFADDDF80CA0312301360AF88A
:100E1000013BFBE50D9B3E46CDF81090002B7FF487
:100E200083AD039F2146029829F0CDFF039B00F17B
:100E30003009049A07F8019BFB1A9A4240F3CB80D1
:100E400000230A22029958461DF0ACFF0290E9E700
:100E50002A6905F10C010C300232920029F09EFF44
:100E60000122394658461EF0FFF8039BA846054666
:100E700003F1010ADDE9032313440793009B03F008
:100E8000010309930AF1FF3321460298049329F0E4
:100E90009AFF4146069000F1300902982AF06FF857
:100EA0002A462146074658461EF04AF9C2680146BE
:100EB00002B358461DF054FF002F3ADA012202997E
:100EC00058461EF0D1F8214602902AF058F8002822
:100ED00003DC29D119F0010F26D0B9F1390F1DD14A
:100EE00032E02846C1E700BF900103000000144033
:100EF000000024400A9002982AF041F80A990C90C8
:100F000058461DF02DFF0C9A5ABB089B53B9099BFC
:100F100043B9B9F1390F17D0002F05DD069B03F156
:100F2000310901E0002F2ADADDF810A00AF8019B50
:100F30006EE5089B3B4304D1009B03F00103002BAB
:100F4000BCD0B9F1390F36D1049F392307F8013BE2
:100F5000BA46013F1AF8013C392B5AD001333B7095
:100F600056E5002F06DB089B3B4306D1009B03F0B0
:100F7000010313B9002AA1DCD6E7002AE1DC079BB4
:100F800057460AF8019C53452ED000230A220299A5
:100F900058461DF007FFA84502904FF000034FF0A0
:100FA0000A02414658460BD11DF0FCFE804605461C
:100FB0000AF1010A66E7DDF810A009F10109B5E7B9
:100FC0001DF0F0FE2946804600230A2258461DF0F7
:100FD000E9FE0546ECE7049B4FF00008002BCCBF70
:100FE0001F460127039B1F440122029958461EF009
:100FF0003BF82146029029F0C2FF0028A8DC02D16C
:1010000019F0010FA4D1BA4617F8013D302BFAD0E0
:10101000FEE4039BBB429BD13123039A013613703C
:10102000F6E4219B002B7FF425AA014BFFF744BA7D
:101030006D0003000348044B834202D0034B03B10D
:1010400018477047DC110020DC1100200000000070
:10105000064B0749C91A891048BF0131491003D00E
:10106000044B0BB101481847704700BFDC1100204A
:10107000DC1100200000000010B5064C237843B9B5
:10108000FFF7D8FF044B13B10448AFF300800123EE
:10109000237010BD702D0020000000008810030098
:1010A00008B5054B1BB105490548AFF30080BDE805
:1010B0000840FFF7CDBF00BF00000000B8140020BB
:1010C00088100300A3F5803A704700BF174B002B30
:1010D00008BF134B9D46FFF7F5FF00218B460F46D7
:1010E0001348144A121A29F040FE0E4B002B00D070
:1010F00098470D4B002B00D098470020002104009A
:101100000D000D48002802D00C48AFF300801DF000
:1011100079FD200029001FF0C2F81CF08FFF00BFEE
:10112000000008000000000000000000C00A0020CD
:10113000DC110020642E00200000000000000000F0
:1011400000B583B01FF05EFF0190064B1B88ADF821
:10115000023001981FF062FFBDF80230184603B05C
:101160005DF804FB182D002000B585B00346ADF8EE
:1011700006301FF047FF0390054ABDF80630138084
:1011800003981FF04BFF00BF05B05DF804FB00BFE4
:10119000182D002000B583B01FF034FF0190064BDE
:1011A0001B788DF8033001981FF038FF9DF803304D
:1011B000184603B05DF804FB712D002000B585B022
:1011C00003468DF807301FF01DFF0390054A9DF878
:1011D0000730137003981FF021FF00BF05B05DF8C2
:1011E00004FB00BF712D002010B586B08DED050AFF
:1011F00004900B4602928DF80F301FF0DDF91FF0BE
:10120000DDF9094B1C6805981CF01EFA02460B46D6
:101210009DF80F100191049900910449204621F096
:10122000D7FA00BF06B010BDC4150020A0BC020054
:1012300008B500F07DFE0021074800F029FF1FF0EF
:10124000BBF91FF0BBF9054B186820231B2204498A
:1012500021F0BEFA00BF08BDE9110000C41500204E
:10126000C8BC020000B58DB00390039B1B6823F43B
:101270007F4323F00703A84A934200F05B82A64A0B
:10128000934200F2A483A54A934200F04583A34A07
:10129000934200F29C83A24A934200F07981A04AD3
:1012A000934200F294839F4A934200F0F2819D4A58
:1012B000934200F28C839C4A934204D09B4A93420F
:1012C00000F04E8183E39A4811F0B6FC0B900B9B23
:1012D000002B2AD0974B1B689749184621F078FAC3
:1012E000944B1B689549184621F072FA1FF064F977
:1012F0001FF064F98F4B1868914B0093B023914A0B
:10130000914921F065FA8B4B18680B9B8F4A9049E5
:1013100021F05EFA0B9801F02BFA864B1B688D4981
:10132000184621F055FA00BFFDE7814B1B780221DA
:10133000184611F0BBFC0B900B9B002B2AD07D4B69
:101340001B687D49184621F043FA7A4B1B687B499C
:10135000184621F03DFA1FF02FF91FF02FF9754BB9
:101360001868774B0093B523764A774921F030FA15
:10137000704B18680B9B754A754921F029FA0B9838
:1013800001F0F6F96B4B1B687249184621F020FA00
:1013900000BFFDE7664B1878002300930023A022CE
:1013A000A02111F061FC0B900B9B002B2AD0614B0C
:1013B0001B686149184621F00BFA5E4B1B685F49B8
:1013C000184621F005FA1FF0F7F81FF0F7F8594B0F
:1013D00018685B4B0093BE235A4A5B4921F0F8F929
:1013E000544B18680B9B594A594921F0F1F90B9855
:1013F00001F0BEF94F4B1B685649184621F0E8F939
:1014000000BFFDE74A4B1B780221184611F062FC31
:101410000B900B9B002B2AD0464B1B684649184665
:1014200021F0D6F9434B1B684449184621F0D0F906
:101430001FF0C2F81FF0C2F83E4B1868404B0093F3
:10144000C323404A404921F0C3F93A4B18680B9B2B
:101450003E4A3F4921F0BCF90B9801F089F9354B20
:101460001B683C49184621F0B3F900BFFDE7002096
:1014700000F0DEFA0B900B9B002B1FD0012001F037
:1014800043F90346002B19D02A4B1B6832491846F2
:1014900021F09EF91FF090F81FF090F8254B186886
:1014A0000B9B2A4A2A4921F093F90B9801F060F925
:1014B000204B1B682949184621F08AF90B9B002B09
:1014C00040F08782002000F0E7FA0B900B9B002B86
:1014D00000F07F82012001F017F90346002B00F095
:1014E0007882144B1B681C49184621F071F91FF0D3
:1014F00063F81FF063F80F4B18680B9B134A1449ED
:1015000021F066F90B9801F033F90A4B1B68134977
:10151000184621F05DF95CE2A0000A03A000010377
:10152000A0000601A0000A00A0000100A000060023
:10153000760E0020C4150020E4BC0200E8BC0200C6
:1015400030C10200F0BC0200FCBC020008BD020079
:101550000CBD020024BD020038BD020040BD0200E7
:10156000032001F0D1F80346002B00F034829D4B9C
:101570001B689D49184621F02BF91FF01DF81FF03C
:101580001DF8984B1B689949184621F021F922E271
:10159000032001F0B9F80346002B0FD0914B1B68D4
:1015A0009149184621F014F91FF006F81FF006F8CB
:1015B0008C4B1B688E49184621F00AF98D4B1B781D
:1015C0000221184611F072FB0B900B9B002B2AD0C6
:1015D000844B1B688849184621F0FAF8814B1B6838
:1015E0008649184621F0F4F81EF0E6FF1EF0E6FFEB
:1015F0007C4B1868824B0093DE23824A824921F09B
:10160000E7F8784B18680B9B804A814921F0E0F895
:101610000B9801F0ADF8734B1B687E49184621F01A
:10162000D7F800BFFDE7734B1B780221184611F075
:1016300051FB0B900B9B002B00F0CF81694B1B687B
:101640006D49184621F0C4F8664B1B686B49184673
:1016500021F0BEF81EF0B0FF1EF0B0FF614B18681D
:10166000674B0093E323674A674921F0B1F85D4B6C
:1016700018680B9B654A664921F0AAF80B9801F09F
:1016800077F8584B1B686349184621F0A1F800BF52
:10169000FDE7039BB3F805309BB21E2B40F09F8102
:1016A00005AA0DF11B0300931346012200211E2001
:1016B00011F024FB0B900B9B002B1FD0012001F09D
:1016C00023F80346002B19D0464B1B685249184695
:1016D00021F07EF81EF070FF1EF070FF414B18687D
:1016E0000B9B4A4A4A4921F073F80B9801F040F8E5
:1016F0003C4B1B684949184621F06AF80B9B002BAC
:1017000001D000BF70E19DF81B30002B14BF0123F6
:101710000023DBB2184600F023FC1EF04DFF1EF044
:101720004DFF304B1B689DF81B203D49184621F0AA
:101730004FF854E1039BB3F805309BB21B2B40F0EC
:1017400086801EF039FF1EF039FF264B1B68354995
:10175000184621F03DF8039B1B899BB203F001035F
:10176000002B67D01EF028FF1EF028FF1D4B1B68C2
:101770002D49184621F02CF8002000F08DF90B902F
:101780001EF01AFF1EF01AFF164B1B682749184659
:1017900021F01EF80B9B002B1FD0012000F0B4FF9E
:1017A0000346002B19D00F4B1B681B49184621F02C
:1017B0000FF81EF001FF1EF001FF0A4B18680B9B8B
:1017C000124A134921F004F80B9800F0D1FF054BA1
:1017D0001B681249184620F0FBFF154B01221A70B6
:1017E00035E000BFC415002044BD02004CBD02001E
:1017F00064BD0200760E0020E4BC0200E8BC0200DA
:1018000030C10200F0BC0200FCBC020008BD0200B6
:101810000CBD020024BD020038BD020040BD020024
:101820007CBD02009CBD0200B0BD0200E8BD02000C
:10183000722D00201EF0C0FE1EF0C0FE6C4B1B6817
:101840006C49184620F0C4FF6B4B00221A70039BB2
:10185000B3F805309BB2202B40F0C3801EF0ACFEE5
:101860001EF0ACFE624B1B686449184620F0B0FFC6
:10187000039B1B899BB203F00103002B3ED01EF09B
:101880009BFE1EF09BFE5A4B1B685D49184620F0DC
:101890009FFF002000F04EF90B901EF08DFE1EF011
:1018A0008DFE534B1B685749184620F091FF0B9B48
:1018B000002B1FD0012000F027FF0346002B19D07A
:1018C0004B4B1B685049184620F082FF1EF074FEF7
:1018D0001EF074FE464B18680B9B4C4A4C4920F096
:1018E00077FF0B9800F044FF414B1B6849491846AD
:1018F00020F06EFF484B01221A7072E01EF05CFE71
:101900001EF05CFE3A4B1B684449184620F060FF0D
:10191000414B00221A7064E01EF04EFE1EF04EFE97
:10192000334B1B683E49184620F052FF039B5B680F
:101930000A930A9B03F00103002B54D0FFF700FC2D
:101940000346ADF82630FFF725FC03468DF8253019
:101950001EF032FE1EF032FE254B1868264B1B7817
:101960001A462D4B1B782F4920F032FF224B1B7853
:10197000002B13D0BDF82630184600F08DF80890E3
:10198000089B002B0AD01EF017FE1EF017FE184B06
:101990001868089B089A244920F01AFF1E4B1B78F0
:1019A000002B20D09DF82530184600F0C3F8079092
:1019B000079B002B17D01EF0FFFD1EF0FFFD0C4B08
:1019C0001868079B079A194920F002FF0BE000BF37
:1019D0000AE000BF08E000BF06E000BF04E000BF6F
:1019E00002E000BF00E000BF00BF0DB05DF804FBE7
:1019F000C415002004BE0200722D00202CBE02007F
:101A000040BE020078BE020038BD020008BD0200E0
:101A10000CBD020040BD0200732D002098BE0200E4
:101A2000C0BE0200D8BE020004BF020024BF0200F4
:101A300000B585B003468DF807300DF1070301228C
:101A400000211E2011F08CF90390039B002B17D16D
:101A5000032000F059FE0346002B11D00B4B1B68EE
:101A60000B49184620F0B4FE1EF0A6FD1EF0A6FDA0
:101A7000064B1B689DF807200649184620F0A8FE73
:101A8000039B184605B05DF804FB00BFC415002099
:101A900044BD020044BF020000B585B00346ADF866
:101AA00006301EF089FD1EF089FD1D4B1B68BDF838
:101AB00006201C49184620F08BFE022303931EF0DB
:101AC0007BFD1EF07BFD164B1868BDF80630039AAF
:101AD000154920F07DFE0DF106031A4602211B2058
:101AE00011F054F90290029B002B08D10C4B1B689B
:101AF000BDF806200D49184620F06AFE0AE01EF0E7
:101B00005BFD1EF05BFD064B1B68029A08491846F8
:101B100020F05EFE029B184605B05DF804FB00BF96
:101B2000C4150020C0BF0200E0BF02000CC00200CC
:101B300038C0020000B585B003468DF80730012398
:101B400003931EF039FD1EF039FD214B1B689DF8F3
:101B500007202049184620F03BFE0DF107031A46E6
:101B60000121202011F012F90290029B002B14D1C8
:101B7000174B1B689DF807201749184620F028FED0
:101B80001EF01AFD1EF01AFD114B18689DF8073063
:101B9000039A124920F01CFE15E01EF00DFD1EF008
:101BA0000DFD0B4B1B68029A0D49184620F010FEE4
:101BB0001EF002FD1EF002FD054B1868029B029A02
:101BC000084920F005FE029B184605B05DF804FBAD
:101BD000C415002064C0020084C00200B0C002002E
:101BE000DCC0020008C1020082B00190044B03F582
:101BF00000531A46019BC2F8203400BF02B0704760
:101C000000C0035000B583B00190019903481EF055
:101C1000CBFA00BF03B05DF804FB00BF24C403503F
:101C200082B0034600918DF807309DF80730002BF5
:101C30000AD09DF80730012B06D09DF80730022B03
:101C400002D09DF80730032B08489DF8072001219A
:101C5000009B994013465B0013441B01034403F5AA
:101C600000531033196000BF02B0704700C003502A
:101C700082B00190019B0E4A93420FD0019B0D4A06
:101C800093420BD0019B0C4A934207D0019B0B4A15
:101C9000934203D0019B0A4A934201D1012300E001
:101CA000002303F00103DBB2184602B0704700BF07
:101CB0000080045000C00450000005500040055052
:101CC0000080055082B00190019B304A93420ED0B3
:101CD000019B2F4A93420AD0019B2E4A934206D081
:101CE000019B2D4A934202D0019B2C4A9342019BB7
:101CF000264A934245D0019B244A934203D0019B3C
:101D0000234A93423AD0019B204A934207D0019B39
:101D10001F4A934203D0019B1E4A93422BD0019B42
:101D20001A4A93420BD0019B194A934207D0019B58
:101D3000184A934203D0019B174A934218D0019B43
:101D4000124A934212D0019B114A93420ED0019B3A
:101D5000104A93420AD0019B0F4A934206D0019B3E
:101D60000E4A934202D14FF6FF730CE000230AE0C3
:101D70004FF6FF7307E04FF6FF7304E04FF6FF7373
:101D800001E04FF0FF33184602B070470080045066
:101D900000C0045000000550004005500080055070
:101DA00000B58DB00121242001F078FF242001F03E
:101DB000A7FF099000230A930023ADF82E3013E00B
:101DC000BDF82E304FF47A7202FA03F3099AB2FB8F
:101DD000F3F3013B0A930A9BB3F5803F0AD3BDF8A6
:101DE0002E300133ADF82E30BDF82E30B3F5806FB4
:101DF000E6D300E000BF05AB00221A605A609A608B
:101E0000DA6001238DF81430BDF82E30ADF81630AD
:101E100000238DF8143005AB19461C481FF0CEFA8C
:101E200001AB00221A605A609A601A7303238DF87E
:101E30000A3001AB1A46002114481FF050FB0A99E2
:101E400012481EF0EBF90A9B1B091A4600210F48A5
:101E50001EF0B7F900230422032103201FF072F9BA
:101E60000B4B4FF00312C3F88025094BD3F87C3598
:101E7000074A43F00103C2F87C35012103481EF0F4
:101E8000B5F900BF0DB05DF804FB00BF0080045041
:101E900000C0035008B5002108481EF0A7F9084B00
:101EA000D3F87C35064A23F00103C2F87C350321C0
:101EB0000320FFF7B5FE00BF08BD00BF008004503F
:101EC00000C0035082B003468DF80730034B1B68F7
:101ED0000133024A136000BF02B07047D0140020E3
:101EE00000B583B001213A2001F0D8FE012303227E
:101EF000002102201FF026F9012301930023009303
:101F0000012300220021022003F0C8FC0120FFF77A
:101F10006BFE1EF0F6FE0549002001F0CFFB01200C
:101F2000FFF770FE00BF03B05DF804FBC51E0000A4
:101F300008B5094B1B78002B0CD11EF07FF9FFF779
:101F4000CFFF21F051F90346044A1360024B0122EE
:101F50001A7000E000BF08BD772D0020D4140020C7
:101F600000B587B003468DF80F303C4B1B789DF8C9
:101F70000F209A426ED0394A9DF80F3013709DF8A9
:101F80000F3018461EF06DF99DF80F30002B56D01B
:101F900000230193002300930023314A4FF47A7108
:101FA000304808F00FF905901EF006FB1EF006FB06
:101FB0002D4B1B68059A2D49184620F009FC059BFE
:101FC0002E2B13D0059B2E2B26D8059B022B18D029
:101FD000059B1A2B20D11EF0EFFA1EF0EFFA224BD0
:101FE0001B682349184620F0F3FB20E01EF0E4FABA
:101FF0001EF0E4FA1C4B1B681E49184620F0E8FB53
:1020000015E01EF0D9FA1EF0D9FA174B1B681A49D1
:10201000184620F0DDFB0AE01EF0CEFA1EF0CEFAE4
:10202000114B1B681549184620F0D2FB00BF144B1A
:102030001B68144A1360144B00221A700BE01348FB
:1020400008F01AF9074808F017F903210320FFF7F1
:10205000E7FD00E000BF07B05DF804FB742D002031
:102060004101000004150020C415002040C10200F9
:102070005CC1020078C1020094C10200ACC1020040
:10208000D0140020D8140020752D0020E414002066
:1020900082B001900091044A019B1360034A009BA7
:1020A000136000BF02B07047DC140020E014002071
:1020B00000B58BB00390039B1B6823F47F4323F090
:1020C0000703994A934240F02881984B0822002147
:1020D000122010F045FE0990099B002B2AD0944B4A
:1020E0001B689449184620F073FB914B1B6892497A
:1020F000184620F06DFB1EF05FFA1EF05FFA8C4B65
:1021000018688E4B00933D238D4A8E4920F060FB6A
:10211000874B1868099B8C4A8C4920F059FB099819
:1021200000F026FB824B1B688949184620F050FBC3
:1021300000BFFDE7874B03220021142010F010FEA2
:102140000990099B002B2AD0794B1B6879491846C6
:1021500020F03EFB764B1B687749184620F038FB91
:102160001EF02AFA1EF02AFA714B1868734B00937E
:102170004B23734A734920F02BFB6D4B1868099B66
:10218000714A724920F024FB099800F0F1FA684B7B
:102190001B686F49184620F01BFB00BFFDE76E4B24
:1021A00005220021162010F0DBFD0990099B002B71
:1021B0002AD05F4B1B685F49184620F009FB5C4B37
:1021C0001B685D49184620F003FB1EF0F5F91EF070
:1021D000F5F9574B1868594B00935923584A5949F8
:1021E00020F0F6FA524B1868099B574A574920F0DD
:1021F000EFFA099800F0BCFA4D4B1B685449184699
:1022000020F0E6FA00BFFDE70DF11B0207AB114617
:10221000184610F0D1FD0990099B002B2AD0444BA1
:102220001B684449184620F0D3FA414B1B684249C9
:10223000184620F0CDFA1EF0BFF91EF0BFF93C4B56
:1022400018683E4B009364233D4A3E4920F0C0FA93
:10225000374B1868099B3C4A3C4920F0B9FA099869
:1022600000F086FA324B1B683949184620F0B0FA64
:1022700000BFFDE79DF821308DF810309DF820302B
:102280008DF811309DF81F308DF81230FF238DF836
:102290001330FE238DF814309DF81E308DF8153064
:1022A0009DF81D308DF816309DF81C308DF81730D4
:1022B00004AB08220021182010F052FD0990099B60
:1022C000002B2CD01A4B1B681A49184620F080FAB4
:1022D000174B1B681849184620F07AFA1EF06CF963
:1022E0001EF06CF9124B1868144B00937423144AB7
:1022F000144920F06DFA0E4B1868099B124A1349D5
:1023000020F066FA099800F033FA094B1B6810496F
:10231000184620F05DFA00BFFDE700BF00E000BFF7
:1023200000BF0BB05DF804FBA0000100BCC10200BF
:10233000C4150020C8C10200CCC1020044C2020082
:10234000D4C10200FCC1020008C202000CC202009B
:1023500024C2020038C202003CC2020082B003461E
:102360008DF807309DF90730002B0CDB9DF8073006
:1023700003F01F0205499DF907305B09012000FAAF
:1023800002F241F8232000BF02B0704700E100E0F4
:1023900082B003468DF807309DF90730002B0DDB26
:1023A0009DF8073003F01F0206499DF907305B09CD
:1023B000012000FA02F2603341F8232000BF02B08E
:1023C000704700BF00E100E008B502F0BDF81EF064
:1023D000B4FD2A4B1B6F23F00703284A43F0030385
:1023E00013671EF0B7FD264B9B6A03F00203002B18
:1023F00005D1234B03F500531A46012393621F4B6B
:10240000D3F8203123F003031C4A43F00203C2F83F
:1024100020311A4BD3F8243123F00703174A43F035
:102420000203C2F82431154BD3F8403123F00303E3
:10243000124A43F00203C2F84031104BD3F8603126
:1024400023F003030D4A43F00203C2F860310B4B43
:10245000D3F8403223F00303084A43F00203C2F8E2
:102460004032064BD3F8003223F00703034A43F00F
:102470000203C2F800320023184608BD0080005055
:1024800000C0005000B583B003F08AFD0346012B65
:102490001ED1114B5B6E03F48023002B0CBF012374
:1024A00000238DF807300C4B03F580531A464FF488
:1024B00080235366094B04221A609DF80730002BD5
:1024C00006D0054B03F500531A464FF4802353669C
:1024D00000BF03B05DF804FB0080005020200150D5
:1024E00030B599B03A4B0FAC1D460FCD0FC495E8EF
:1024F000070084E807004FF4E13311930023ADF89F
:102500004A304FF48053ADF84C3003238DF85530EA
:102510000AAB00221A605A609A60DA601A612D4B89
:102520000A9329230B9305238DF8313006238DF868
:10253000333008238DF8353007238DF837300123E9
:102540008DF83930244A08AB92E8030083E8030091
:1025500002AB00221A605A609A60DA601A615A610E
:1025600002AB08AA92E8030083E803000F238DF86A
:10257000103010238DF81130184B0593202306934B
:1025800001238DF81D3000238DF81E300AAB0FAAF1
:1025900002A913480090134806F0E4FA16900023AD
:1025A0008DF85F309DF81E3083F00103DBB2002B05
:1025B00003D003238DF85F3000BF9DF85F301946CC
:1025C0004FF4E1301EF05DF8169B184619B030BD8F
:1025D00028C502000000065044C50200A4150020D2
:1025E000501500202C15002000B583B00549064881
:1025F00007F030F8FFF774FF019000BF03B05DF8FB
:1026000004FB00BF5C0B00202415002008B5024825
:1026100006F0EAFB00BF08BD2C15002008B50248F3
:1026200006F0E2FB00BF08BD2C15002008B50348EA
:102630001DF001FF0346184608BD00BF2C15002001
:1026400000B585B003460A468DF8073013468DF86D
:1026500006309DF80730022B03D09DF80730032B7E
:1026600013D19DF80630012B03D09DF80630002BC6
:102670000BD1052100201DF0F9FE0390039B0422DD
:10268000052100201EF05EFD1AE09DF80630022BA9
:1026900003D09DF80630032B12D19DF80730012B93
:1026A00003D09DF80730002B0AD1052100201DF032
:1026B000DDFE0390039B0022052100201EF042FD59
:1026C0009DF80630012B09D8064B1B681B68002BB0
:1026D00004D0044B1B6818461DF09FFE00BF05B0D8
:1026E0005DF804FB640B002008B502481EF095F865
:1026F00000BF08BD4CC5020008B502481EF0F8F93D
:1027000000BF08BD64C5020084B003468DF80730E1
:1027100001238DF80F30124B1B78002B08D0114B82
:102720001B789DF807209A4202D900238DF80F30BC
:102730000D4B1B78002B0DD00C4B1B781A469DF8C7
:10274000073042FA03F303F00103002B02D1002308
:102750008DF80F309DF80F30184604B0704700BF59
:10276000780E0020790E0020782D00207A0E0020AF
:1027700000B585B001900F4B1B680F49184620F03B
:1027800027F805F02FFF03900A4B1B68184605F049
:1027900015FF019800F032F8039805F00FFF054B84
:1027A0001B680649184620F013F800BF05B05DF815
:1027B00004FB00BFC41500207CC5020080C50200D8
:1027C00008B5094B01221A70084B00221A70084BF9
:1027D00004221A70074B1F221A7005F003FF0346EC
:1027E000054A136000BF08BD780E0020782D002038
:1027F000790E00207A0E0020C415002000B583B0A9
:102800000190054B1B68054918461FF0E1FF00BF0A
:1028100003B05DF804FB00BFC415002084C50200AE
:1028200000B583B002238DF8003000220221074852
:102830001DF0FBFE034601936B46082118461DF070
:102840003AFF00BF03B05DF804FB00BF006A180048
:1028500000B583B0064A074BD31A9B100193019A27
:10286000054904481DF09CFF00BF03B05DF804FB60
:10287000B8170300B8170300642E002000B585B018
:1028800000F080F8FFF7E4FF1F4B039319E00023EB
:1028900002930EE0039B1A68029B9B001A44039B61
:1028A0005968029B9B000B4412681A60029B01331B
:1028B0000293039B9B68029A9A42EBD3039B0C33CF
:1028C0000393039B114A9342E1D3114B019314E00C
:1028D0000023009309E0019B1A68009B9B001344AE
:1028E00000221A60009B01330093019B5B68009AF1
:1028F0009A42F0D3019B08330193019B054A93420E
:10290000E6D3FEF7E3FB00BF901003009C1003002A
:102910009C1003009C10030082B003468DF8073022
:102920009DF90730002B0CDB9DF8073003F01F02E8
:1029300005499DF907305B09012000FA02F241F8D0
:10294000232000BF02B0704700E100E082B00346E0
:102950008DF807309DF90730002B0DDB9DF807300F
:1029600003F01F0206499DF907305B09012000FAB8
:1029700002F2603341F8232000BF02B0704700BF6D
:1029800000E100E008B51E4B1E4A9A601C4BD3F8CC
:1029900088301B4A43F47003C2F888301A4B03F5A1
:1029A00080531A464FF400439366184B03F50053C7
:1029B0001A464FF0FF331366144B03F500531A46C3
:1029C0004FF6DF735366124B02221A60BFF34F8F2C
:1029D00000BFBFF36F8F00BF0320FFF7B7FF0B4BA4
:1029E00003F500531A464FF44033D3600320FFF73A
:1029F00093FF064B4FF440321A6100BF08BD00BF81
:102A000000ED00E000000000008000500080004465
:102A1000D0ED00E0014B1B68184670477C0B00208E
:102A200000B583B0002301930E4B1B6F03F0070327
:102A3000032B09D0032B0FD8012B09D0022B0BD16C
:102A4000FFF7E8FF019008E0074B1B68019304E0E3
:102A5000064B019301E0FFE7FDE7019B184603B039
:102A60005DF804FB00800050740B0020002D310144
:102A700000B583B0FFF7D4FF01900A4B1B6F1B0B0F
:102A800003F00F030093009B0133019AB2FBF3F3B1
:102A90000193054A019B1360019B184603B05DF842
:102AA00004FB00BF00800050800B0020014B184643
:102AB000704700BF00B4C404014B1B681846704740
:102AC000740B002000B583B00190074A019B13608E
:102AD000064B1B6F03F00703032B01D1FFF7C8FF61
:102AE00000BF03B05DF804FB740B002000800050B1
:102AF000014B1846704700BF002D3101014B1B6888
:102B000018467047780B002084B001900B4B1A6870
:102B1000019B13440A4A934202D94FF0FF3309E064
:102B2000064B1B680393054B1A68019B1344034A29
:102B30001360039B184604B0704700BF840B00204D
:102B40000080002000B589B00390039B0793079B8A
:102B50001B68069301213A2001F0A0F8069B187922
:102B6000069B5B791946002301221EF0EBFA069BB7
:102B70001A79069B5B79194610461DF072FE0346D2
:102B8000002B0CBF01230023DBB21A46069B1A70F0
:102B9000069B9B79022B43D11EF0B3F8069B187954
:102BA000069B5979079B214A00F0AAFD0590059BD9
:102BB000FF2B15D1069B5B79079A1C49184600F03C
:102BC0001FFE0590069B1879069B5B791946012329
:102BD0000193012300930123059A02F05FFE1FE099
:102BE000069B1879069B5B79194601230093002305
:102BF000059A02F0E7FE069B5B79079A0B49184697
:102C000000F0FEFD0590069B1879069B5B7919463E
:102C100001230193002300930123059A02F03EFE55
:102C20000023184609B05DF804FB00BFD30802007A
:102C300000B585B003468DF807309DF80730002BAE
:102C400001D0012300E000230393039A00210348ED
:102C50001DF00EFF00BF05B05DF804FB44C4035037
:102C600000B585B0002303930023ADF80A3000239C
:102C7000ADF808300023019301213A2001F00EF84D
:102C800001230422032100201EF05CFA01981EF0AB
:102C900054FA0120FFF7CCFF4FF4607001F030F8D8
:102CA00003902D4B1B682C4A43F0010313602A4B01
:102CB000DB68294A43F08073D3600123ADF80A3002
:102CC0000F23ADF80830BDF80A305A02BDF80830BD
:102CD0005B001A432149224B13430B60039B03F50E
:102CE000D52303F2FC43DB081E4AA2FB03239B0A05
:102CF0001D4A013B13611C4B0222C3F8F0201A4B02
:102D00004FF48072C3F804234FF06043174AC3F8AE
:102D1000B02F4FF06043164AC3F8802E4FF0604347
:102D2000D3F8003E4FF0604243F48073C2F8003E97
:102D30004FF06043FF2283F820204FF06043D3F828
:102D4000003E4FF0604223F48073C2F8003E00233F
:102D5000184605B05DF804FBF0ED00E0001000E05F
:102D6000E101004017916502000004E055CEACC5BA
:102D70000900010082B001900B468DF803304FF03E
:102D80006043D3F8803E03F00103002B22D0134BA5
:102D9000DB68124A43F08073D3604FF06043D3F88E
:102DA000002E0121019B01FA03F34FF06041134310
:102DB000C1F8003E4FF06042019B52F82330002BD7
:102DC000E5D04FF06041019B9DF8032001F82320DE
:102DD000002300E01123184602B07047F0ED00E038
:102DE00082B0034600918DF807309DF80730002B24
:102DF0000AD09DF80730012B06D09DF80730022B32
:102E000002D09DF80730032B08489DF807200121C8
:102E1000009B994013465B0013441B01034403F5D8
:102E200000531033196000BF02B0704700C0035058
:102E300082B0034600918DF807309DF80730002BD3
:102E40000AD09DF80730012B06D09DF80730022BE1
:102E500002D09DF80730032B08489DF80720012178
:102E6000009B994013465B0013441B01034403F588
:102E700080531033196000BF02B0704700C0035088
:102E800082B0034600918DF807309DF80730002B83
:102E90000AD09DF80730012B06D09DF80730022B91
:102EA00002D09DF80730032B08489DF80720012128
:102EB000009B994013465B0013441B01034403F538
:102EC00040531033196000BF02B0704700C0035078
:102ED00000B585B001900091204B1B7883F0010371
:102EE000DBB2002B01D01E4B34E0019B002B01D143
:102EF0001C4B2FE01EF09CF802900023039322E06D
:102F0000194A039B1B0113440C331B7883F0010304
:102F1000DBB2002B14D0019B039A1A60124A039B68
:102F20001B0113440C3301221A700F4A039B1B012F
:102F3000134400221A6002981EF08AF8002309E068
:102F4000039B01330393039B072BD9D902981EF0EF
:102F50007FF8064B184605B05DF804FB792D00207C
:102F6000028000F0018000F0C8150020048000F00D
:102F700000B585B000238DF80B301EF059F8019094
:102F8000002303930EE0154A039B1B0113440C33EB
:102F90001B78002B03D001238DF80B3005E0039B39
:102FA00001330393039B072BEDDD9DF80B3083F07A
:102FB0000103DBB2002B09D002F0F4FD084B002224
:102FC0001A7001981EF044F8002303E001981EF0E7
:102FD0003FF8044B184605B05DF804FBC815002007
:102FE000792D0020058000F000B585B00190164BCA
:102FF0001B7883F00103DBB2002B01D0134B1FE0E1
:10300000019B072B01D9124B1AE01EF011F8039017
:10301000104A019B1B0113440C331B78002B0BD06F
:103020000C4A019B1B0113440C3300221A700398B5
:103030001EF00EF8002303E003981EF009F8064B7B
:10304000184605B05DF804FB792D0020028000F0E1
:10305000018000F0C8150020068000F000B585B0A2
:10306000194B1B68019300238DF804301DF0E0FF1D
:103070000290164B1B78002B04D002981DF0E8FF3D
:10308000134B1DE0114B01221A7002981DF0E0FF56
:103090000023039309E00F4A039B1B0113440C33E5
:1030A00000221A70039B01330393039B072BF2DD6D
:1030B00008238DF8073001AB184602F0A3FD00236A
:1030C000184605B05DF804FB88C50200792D002084
:1030D000038000F0C815002000B583B00190124BAA
:1030E0001B7883F00103DBB2002B01D00F4B17E0FC
:1030F000019B072B01D90E4B12E00E4A019B1B01CD
:1031000013440C331B7883F00103DBB2002B01D096
:10311000094B05E0019B0021184602F05DFD0023EC
:10312000184603B05DF804FB792D0020028000F002
:10313000018000F0C8150020078000F000B583B0C2
:103140000190124B1B7883F00103DBB2002B01D0FE
:103150000F4B17E0019B072B01D90E4B12E00E4AD3
:10316000019B1B0113440C331B7883F00103DBB27A
:10317000002B01D0094B05E0019B0121184602F00C
:103180002BFD0023184603B05DF804FB792D0020C9
:10319000028000F0018000F0C8150020078000F0D8
:1031A00000B583B00190124B1B7883F00103DBB2B2
:1031B000002B01D00F4B16E0019B072B01D90E4BC2
:1031C00011E00E4A019B1B0113440C331B7883F062
:1031D0000103DBB2002B01D0094B04E0019B184630
:1031E00002F0E2FD0023184603B05DF804FB00BFC7
:1031F000792D0020028000F0018000F0C815002029
:10320000078000F082B001900091194B1B7883F089
:103210000103DBB2002B01D0164B25E0019B072BED
:1032200002D8009B002B01D1134B1DE0134A019BD8
:103230001B0113440C331B7883F00103DBB2002B1A
:1032400001D00F4B10E00F4B1B6D0121019A01FAC9
:1032500002F21340002B03D0009B01221A7002E0FF
:10326000009B00221A700023184602B0704700BF6E
:10327000792D0020028000F0018000F0C8150020A8
:10328000078000F00000045000B583B00190009169
:10329000154B1B7883F00103DBB2002B01D0134BDD
:1032A0001DE0019B072B02D8009B002B01D1104B86
:1032B00015E0104A019B1B0113440C331B7883F06B
:1032C0000103DBB2002B01D00B4B08E0019B184639
:1032D00002F08AFD03461A46009B1A700023184626
:1032E00003B05DF804FB00BF792D0020028000F0E0
:1032F000018000F0C8150020078000F000B587B0FD
:10330000364B1B6D0393354B5B6D039A1340039350
:10331000039B002B01DA00BFFDE700230593012387
:10332000049353E0039A049B1340002B48D02B4B8B
:1033300003F500531A46049B1365059B1B01284A9D
:1033400013440293029B1B68002B39D0029B9B689D
:103350005A1C029B9A60029B1B68029A9168029A0F
:103360005268059898470346002B14BF0123002399
:10337000DBB283F00103DBB28DF807309DF8073034
:1033800003F001038DF80730029B5B7B012B17D103
:103390009DF80730002B13D0124A059B5B011344A4
:1033A00003F1080213796FF3410313710D4A059B72
:1033B0005B01134403F1180213796FF34103137196
:1033C000059B01330593049B5B000493059B072B2E
:1033D000A8D900BF00BF07B05DF804FB000004508F
:1033E000C81500204816002010B58AB0029201933B
:1033F00003468DF80F300B468DF80E307B4B1B7853
:1034000083F00103DBB2002B01D0794BEBE0029B90
:10341000072B10D80C9B002B0DD00D9B002B0AD036
:10342000109BB3F5006F06DC9DF80F30012B04D123
:103430000E9B002B01D16F4BD5E0029B1B016E4A06
:1034400013440993099B1B7B83F00103DBB2002B20
:1034500001D06A4BC7E004AB00221A605A609A6040
:10346000DA60029B5B01664A134408939DF80E30B4
:10347000002B1DD1089B1A460023136053609360F4
:10348000D360089A937843F010039370089AD37826
:1034900043F03003D3709DF83C3083F00103DBB27E
:1034A000002B22D0089AD37843F00303D3701CE09A
:1034B000089B1A460023136053609360D360089AF8
:1034C000937843F010039370089AD37843F0030382
:1034D000D3709DF83C3083F00103DBB2002B04D0A5
:1034E000089AD37843F03003D370019B0493109B68
:1034F0009BB2013B9BB2C3F30A0399B2089A1388AB
:1035000061F30E1313800C9A089B9A600D9A089B26
:103510005A609DF8443003F00303D9B2089AD37877
:1035200061F38303D3709DF80F30012B3BD1089AD0
:10353000137B43F001031373089A137B43F00203D8
:103540001373089AD368042161F39F03D3602C4A54
:10355000029B5B01134403F11002089B14460FCB3E
:1035600084E80F00264A029B5B01134403F1180212
:1035700053686FF0030161F39F0353600E9A204973
:10358000029B5B010B4414331A609DF80E30012B33
:1035900009D10D9A1A49029B5B010B4418331A603A
:1035A0000E9A089B5A60129B002B08D19DF80F3091
:1035B000002B04D1089A93786FF304139370099B3E
:1035C000129A1A60099B139A5A60099B00229A600A
:1035D000099B9DF80F205A73029B04A9089A18466C
:1035E00002F054FB002318460AB010BD792D0020CC
:1035F000028000F0018000F0C8150020078000F074
:103600004816002082B003468DF807309DF9073038
:10361000002B0CDB9DF8073003F01F0205499DF9D4
:1036200007305B09012000FA02F241F8232000BFB5
:1036300002B0704700E100E082B003468DF8073029
:103640009DF90730002B0DDB9DF8073003F01F02BA
:1036500006499DF907305B09012000FA02F2603348
:1036600041F8232000BF02B0704700BF00E100E036
:1036700082B00190044B03F500531A46019BC2F837
:10368000203400BF02B0704700C00350024BD3F893
:1036900024341846704700BF00C0035082B0064B68
:1036A000D3F824340193044BD3F82024019B134016
:1036B000184602B0704700BF00C0035000B585B087
:1036C000034600918DF807301DF0B2FC03909DF881
:1036D00007300A4A1B0113440433009A1A609DF80C
:1036E0000730064A1B0113440C3300221A7003985A
:1036F0001DF0AEFC00BF05B05DF804FB48170020CC
:1037000000B587B00292019303468DF80F300B4647
:103710008DF80E30FF2305931DF08AFC04909DF870
:103720000F30002B06D19DF80E30052B02D100235F
:10373000059340E09DF80F30012B06D19DF80E3027
:10374000012B02D10323059335E09DF80F30012BA7
:1037500006D19DF80E30032B02D1042305932AE0F5
:103760009DF80F30022B06D19DF80E30002B02D1B0
:10377000062305931FE09DF80F30022B06D19DF81C
:103780000E30052B02D10723059314E09DF80F306E
:10379000022B06D19DF80E30072B02D1082305938A
:1037A00009E09DF80F30032B05D19DF80E30022B58
:1037B00001D109230593059BFF2B17D0059B1033DF
:1037C0000E4A1B0113440433029A1A60059B1033FE
:1037D0000A4A1B0113440833019A1A60059B1033EF
:1037E000064A1B0113440C3301221A7004981DF081
:1037F0002FFC059B184607B05DF804FB4817002016
:1038000000B58BB00346029101928DF80F30FF2373
:1038100009931DF00DFC07909DF80F2040F6FC73F6
:1038200013400693FFF732FF059000238DF82330F5
:1038300019E09DF80F209DF82330134403F0030393
:10384000069A13440493059A049B22FA03F303F0A7
:103850000103002B02D1049B099308E09DF823305B
:1038600001338DF823309DF82330032BE1D9099BD8
:10387000FF2B14D00E4A099B1B0113440433029AF8
:103880001A600B4A099B1B0113440833019A1A6002
:10389000074A099B1B0113440C3301221A70079835
:1038A0001DF0D6FB099B18460BB05DF804FB00BF6A
:1038B0004817002000B587B001902BE001981DF05B
:1038C0000AFA05900122059B02FA03F3DB43019AF1
:1038D00013400193059B1B01124A13440493049B5C
:1038E0005B68002B16D0049B1B7B002B0AD0049B2B
:1038F0005B680293059BDAB2049B9968029B1046B1
:10390000984707E0049B5B680393059BDAB2039B2F
:1039100010469847019B002BD0D100BF00BF07B0D5
:103920005DF804FB4817002008B5054B1B68054AE5
:1039300012681146184612F0B7FB0346184608BD38
:10394000880B0020A80B002084B003468DF80730B8
:103950009DF90730B3F1FF3F04D0002B05D10023C0
:10396000039305E0044B039302E0044B039300BF71
:10397000039B184604B0704721E000F024E000F0FB
:1039800000B58BB0039002910192029B0893039BB8
:103990000793019B9B000693069A0899079828F0C5
:1039A0005FF903468DF817309DF917301846FFF779
:1039B000CBFF0990099B002B09D1069A089907981B
:1039C00027F0A9F90346002B01D0034B0993099B6B
:1039D00018460BB05DF804FB10E000F000B585B0B0
:1039E0000190019828F038F903468DF80B309DF9C5
:1039F0000B301846FFF7A8FF0390039B002B0ED156
:103A000002F0D6FA0346194601981DF0BDF90346A7
:103A100083F00103DBB2002B01D0034B0393039B24
:103A2000184605B05DF804FB0EE000F008B51DF087
:103A3000E9FA0346014A136000BF08BD881F002051
:103A400008B5034B1B6818461DF0E8FA00BF08BD17
:103A5000881F002008B500BF042104481DF046FA65
:103A60000346002BF8D100BF00BF08BD84400050C2
:103A700008B5FFF7EFFF044BD3F884309B0903F040
:103A80000303DBB2184608BD00400050054BDB695C
:103A900003F48033002B14BF01230023DBB218464C
:103AA000704700BF00000350024B0022DA6300BFE2
:103AB000704700BF00000350024B41F67132DA63D9
:103AC00000BF704700000350014B9B6818467047C9
:103AD0000000035082B00190024A019B936000BF36
:103AE00002B070470000035084B00190002303939C
:103AF000019BB3F5607F21D0019BB3F5607F34D883
:103B0000019BB3F5207F29D0019BB3F5207F2CD8F2
:103B1000019BB3F5007F19D0019BB3F5007F24D83A
:103B2000019B002B03D0019BB3F5C07F1DD1124B2D
:103B30001B6F1B0B03F00F03039317E00E4BD3F81F
:103B400080301B0903F0030303930FE00A4BD3F803
:103B500090301B0E03F01F03039307E0064B1B6F0F
:103B60009B0A03F00103039300E000BF039B0133B2
:103B7000184604B0704700BF0080005010B582B0F6
:103B800001900091019BB3F5607F49D0019BB3F593
:103B9000607F7CD8019BB3F5207F68D0019BB3F593
:103BA000207F74D8019BB3F5007F4ED0019BB3F505
:103BB000007F6CD8019B002B03D0019BB3F5C07F25
:103BC00065D1009B012B0AD0009B022B07D0009BE4
:103BD000042B04D0009B082B01D0009B102B1DF060
:103BE00007FA1DF0FDF901F043F82B4B1B6F23F48E
:103BF0007042009B013B1B03274913430B671DF0D9
:103C000056F90446FFF734FF0346C3F10203194691
:103C100020461DF0B6F901F0E9F901F035F837E07A
:103C2000009B012B04D0009B022B01D0009B042B96
:103C3000194BD3F8803023F03002009B013B1B016D
:103C400015491343C1F8803022E0009B002B01D0BE
:103C5000009B202B104BD3F8903023F0F852009BA0
:103C6000013B1B060C491343C1F8903010E0009B48
:103C7000012B01D0009B022B074B1B6F23F48062AA
:103C8000009B013B9B02044913430B6700E000BF0C
:103C900000BF02B010BD00BF0080005000B585B06D
:103CA00001900B468DF8033000230393019B5B09C1
:103CB000002B0FD0019B5B09012B02D10D4B03930D
:103CC00008E0019B5B09022B02D10B4B039301E03F
:103CD0000A4B0393019B03F01F0302939DF80330EB
:103CE0001A46029903981DF0E8F800BF05B05DF888
:103CF00004FB00BF64800050688000506082005068
:103D000010B584B001900023039300230293019B1C
:103D1000B3F5F06F00F0C282019BB3F5F06F00F2D3
:103D2000C382019BB3F5E06F00F0B282019BB3F553
:103D3000E06F00F2B982019BB3F5D06F00F0A28270
:103D4000019BB3F5D06F00F2AF82019BB3F5C06F5A
:103D500000F09282019BB3F5C06F00F2A582019B37
:103D6000B3F5B06F00F07C82019BB3F5B06F00F249
:103D70009B82019BB3F5A06F00F06C82019BB3F5B1
:103D8000A06F00F29182019BB3F5906F00F05C820E
:103D9000019BB3F5906F00F28782019BB3F5806FB2
:103DA00000F04C82019BB3F5806F00F27D82019B95
:103DB000B3F5607F00F03382019BB3F5607F00F2C2
:103DC0007382019BB3F5407F00F01C82019BB3F529
:103DD000407F00F26982019BB3F5207F00F00682EC
:103DE000019BB3F5207F00F25F82019BB3F5007F5A
:103DF00000F0F081019BB3F5007F00F25582019B3A
:103E0000B3F5C07F00F0E181019BB3F5C07F00F204
:103E10004B82019B002B00F0D881019BB3F5807F82
:103E200000F24282019B202BC0F03E82019B203B8E
:103E3000E02B00F2398201A252F823F0CB410000BE
:103E4000ED410000CB410000ED4100003D4200008B
:103E50003D4200003D4200003D420000ED410000B7
:103E6000ED4100006142000005420000794200007F
:103E70008542000005420000ED410000ED410000D8
:103E8000ED410000A9420000A9420000A942000043
:103E9000A9420000A9420000A942000055420000CA
:103EA00049420000ED410000ED410000ED410000FD
:103EB0009D42000091420000ED410000A942000037
:103EC000A9420000A9420000A9420000A942000046
:103ED000A9420000A9420000A9420000A942000036
:103EE000A9420000A9420000A9420000A942000026
:103EF000CB410000A9420000CB410000CB410000B3
:103F0000CB4100003D420000A9420000A942000050
:103F1000A9420000A9420000A9420000A9420000F5
:103F2000A9420000A9420000A9420000A9420000E5
:103F3000A9420000A9420000A9420000CB410000B4
:103F4000CB410000A9420000A9420000A9420000A4
:103F5000A9420000A9420000A9420000A9420000B5
:103F6000A9420000A9420000A9420000A9420000A5
:103F7000A9420000A9420000A9420000A942000095
:103F8000A9420000A9420000A9420000A942000085
:103F9000A9420000A9420000A9420000A942000075
:103FA000A9420000A9420000A9420000A942000065
:103FB000A9420000A9420000A9420000C14100003E
:103FC000A9420000A9420000A9420000A942000045
:103FD000A9420000A9420000A9420000A942000035
:103FE000A9420000A9420000A9420000A942000025
:103FF000A9420000A9420000A9420000A942000015
:10400000A9420000A9420000A9420000A942000004
:10401000A9420000A9420000A9420000A9420000F4
:10402000A9420000A9420000A9420000A9420000E4
:10403000A9420000A9420000A9420000A9420000D4
:10404000A9420000A9420000A9420000A9420000C4
:10405000A9420000A9420000A9420000A9420000B4
:10406000A9420000A9420000A9420000A9420000A4
:10407000A9420000A9420000A9420000A942000094
:10408000A9420000A9420000A9420000A942000084
:10409000A9420000A9420000A9420000A942000074
:1040A000A9420000A9420000A9420000A942000064
:1040B000A9420000A9420000A9420000A942000054
:1040C000A9420000A9420000A9420000A942000044
:1040D000A9420000A9420000A9420000A942000034
:1040E000A9420000A9420000A9420000A942000024
:1040F000A9420000A9420000A9420000A942000014
:10410000A9420000A9420000A9420000A942000003
:10411000A9420000A9420000A9420000A9420000F3
:10412000A9420000A9420000A9420000A9420000E3
:10413000A9420000A9420000A9420000A9420000D3
:10414000A9420000A9420000A9420000A9420000C3
:10415000A9420000A9420000A9420000A9420000B3
:10416000A9420000A9420000A9420000A9420000A3
:10417000A9420000A9420000A9420000A942000093
:10418000A9420000A9420000A9420000A942000083
:10419000A9420000A9420000A9420000A942000073
:1041A000A9420000A9420000A9420000A942000063
:1041B000A9420000A9420000A94200006D4200008F
:1041C000FEF72EFC034603936FE0FEF751FC034617
:1041D00003936AE0FEF724FC04464FF40070FFF7F7
:1041E00083FC0346B4FBF3F303935EE0FEF740FC6D
:1041F00004464FF42070FFF777FC0346B4FBF3F35B
:10420000039352E0FEF734FC04464FF42070FFF7AE
:104210006BFC0346B4FBF3F35B08039345E002AB8E
:10422000002118461CF0C1FE029C4FF46070FFF79D
:104230005BFC0346B4FBF3F3039336E003AB0021CE
:10424000184600F079FD30E003AB0021184600F07D
:1042500089FC2AE003AB0021184600F0DDFC24E0D5
:1042600003AB0021184600F08DFE1EE003AB0021D9
:10427000184600F05DFF18E003AB0021184600F07F
:104280009DFD12E003AB0021184600F005FF0CE095
:1042900003AB0021184600F0C3FE06E003AB00218B
:1042A000184600F0CDFD00E000BF039B184604B0A7
:1042B00010BD00BF00B585B0019000230393019BA2
:1042C000B3F5086F00F02681019BB3F5086F00F28B
:1042D0003381019BB3F5006F00F01081019BB3F5B2
:1042E000006F00F22981019BB3F5F06F00F00081AF
:1042F000019BB3F5F06F00F21F81019BB3F5E06FF6
:1043000000F01481019BB3F5E06F00F21581019B71
:10431000B3F5D06F00F0F880019BB3F5D06F00F2D9
:104320000B81019BB3F5C06F00F0DC80019BB3F5FE
:10433000C06F00F20181019BB3F5B06F00F0C08047
:10434000019BB3F5B06F00F2F780019BB3F5A06F4E
:1043500000F0E680019BB3F5A06F00F2ED80019BB9
:10436000B3F5906F00F0CA80019BB3F5906F00F237
:10437000E380019BB3F5806F00F0A880019BB3F54B
:10438000806F00F2D980019BB3F5807F00F0A4809C
:10439000019BB3F5807F00F2CF80019B522B69D83F
:1043A000019B242BC0F0C880019B243B2E2B00F2E4
:1043B000C38001A252F823F0CD440000CD44000098
:1043C000CD440000CD4400003945000039450000CF
:1043D000C144000039450000E544000009450000E3
:1043E00039450000394500003945000039450000D5
:1043F00039450000394500003945000039450000C5
:1044000039450000394500002145000039450000CC
:10441000394500003945000039450000F1440000ED
:104420002D450000394500003945000039450000A0
:104430003945000039450000394500003945000084
:104440003945000039450000394500003945000074
:104450003945000039450000394500003945000064
:104460003945000039450000394500003945000054
:10447000CD440000019B802B5ED1324B1B6F03F0BB
:104480000703013B032B17D801A252F823F000BF0A
:10449000B3440000A1440000A7440000AD44000064
:1044A000052303930BE00323039308E007230393FF
:1044B00005E00223039302E00023039300BF3CE0E6
:1044C00003AB1946002000F05DFD36E003AB194652
:1044D000002000F031FC30E003AB1946002000F072
:1044E00027FE2AE003AB1946002000F067FC24E019
:1044F00003AB1946002000F0A3FC1EE003AB1946F5
:10450000002000F02FFB18E003AB1946002000F05C
:10451000C3FD12E003AB1946002000F0CBFB0CE01A
:1045200003AB1946002000F077FB06E003AB194609
:10453000002000F075FD00E000BF039B184605B0A9
:104540005DF804FB00800050074B03F580531A46CA
:104550004FF400235366054B03F580531A4601239D
:10456000936200BF704700BF0080005000C0005041
:1045700000B585B001900198FFF79CFE0290029B68
:10458000082B07D0029B082B20D3029B093B012B51
:104590001CD804E0134B1B88ADF80E301BE0124B07
:1045A00003F580531A464FF4001353660F4B5B6AB2
:1045B00003F00103002B04D04FF4FA73ADF80E3072
:1045C00009E04FF6FF73ADF80E3004E04FF6FF73CD
:1045D000ADF80E3000BFBDF80E30184605B05DF8DE
:1045E00004FB00BF680E0020008000500040025015
:1045F00000B583B001908020FFF75CFE0346032BDB
:1046000000F0E280724B03F580531A464FF400230A
:104610005366704B45F60E02C3F880206D4B03F5D0
:1046200080531A46022393626A4B03F500531A46DD
:104630000123936200BF674B9B6D03F48033002B13
:10464000F9D1019B1B681A06019B5B681B051A4385
:10465000019B1B7B1B041A43019B5B7B1B031A43BF
:10466000019B9B7B9B011343019AD27B1146594AC4
:104670000B431361574B9B6903F00042019B1B697D
:104680009B061A43019B5B691B061A43019B1B7E19
:104690001B041A43019B5B7E1B021343019A927E0B
:1046A00011464C4A0B4393614A4B1B6A23F00D039E
:1046B000019AD269002A01D1002200E008221A439F
:1046C000019BDB7E9B001A43019BDB69414913433D
:1046D0000B62019BDB69002B57D13E4B9B6A23F099
:1046E0003302019B93F820305B011A43019B93F83E
:1046F00021301B011343374A43F00103936200BF8B
:10470000344B9A6D344B1340334A9342F8D1314BBA
:1047100003F580531A46022393622E4B02221A6538
:1047200000BF2C4B9B6D03F08043002BF9D1294B2C
:104730001B6923F47002019B9B681B0525491343E9
:104740000B61244B03F580531A464FF000439361ED
:10475000019B93F8223083F00103DBB2002B05D0DC
:104760001C4B03F500531A4602239362019B93F8F6
:10477000233083F00103DBB2002B1BD0154B03F574
:1047800000531A460123936214E0124B9B6A23F0F4
:104790003302019B93F820305B011A43019B93F88D
:1047A00022305B001343019A92F823201146094AF4
:1047B0000B439362019B93F82430002B05D0054BEB
:1047C000064AC3F8802000E000BF03B05DF804FB98
:1047D0000080005000C0005003000140F1A7FFFF1F
:1047E00000B585B00190354B9B6A0293019BFF2B6E
:1047F00001D921235DE0314B9B6D03F48033002B05
:1048000005D02E4B03F580531A46012393622B4BA0
:1048100003F580531A4602239362284B9B6D03F4E1
:104820008033002B06D000BF244B9B6D03F00203A6
:10483000002BF9D0214B03F580531A460223136550
:1048400000BF1E4B9B6D03F08043002BF9D100F09D
:1048500039F803461A46019B13440393039B002B2C
:1048600002DA0023039304E0039BFF2B01DDFF2307
:104870000393124B9B6923F47F0323F47F43039A32
:1048800012041A43019B1B029BB20C4913438B6118
:10489000029A02210A481CF036FB084B9B6D03F478
:1048A0008033002B04D0029A012105481CF02BFB19
:1048B0000023184605B05DF804FB00BF00C000509F
:1048C00028C00050024B93F900301846704700BFD3
:1048D0007A2D002000B583B02A4B9B6A0193294BA7
:1048E00003F580531A460123936200BF254B9B6D4D
:1048F00003F00303032BF9D1224B03F580531A462F
:10490000022393621F4B03F580531A46022313655B
:1049100000BF1C4B9B6D03F08043002BF9D100BFFF
:10492000184B9A6D184B1340174A9342F8D1154B08
:1049300003F580531A460123136500BF114B9B6D8D
:1049400003F00203022BF9D000BF0E4B9B6D03F066
:104950000203002BF9D00B4B03F580531A460223B8
:10496000136500BF074B9B6D03F00203002BF9D0CA
:10497000019A032105481CF0C6FA00BF03B05DF898
:1049800004FB00BF00C000500300010028C000501D
:1049900084B001904F230393019B5B788DF80B301B
:1049A0009DF80B20039B934228BF13468DF80A30D5
:1049B000284B03F580531A464FF480035366264B69
:1049C0004FF4D1525A62244B03F580531A46022306
:1049D0005360214B03F500531A460123536000BF77
:1049E0001D4B1B6903F48033002BF9D1019B1B780D
:1049F0001A029DF80A30184913434B61019B5B680A
:104A00001A02019B9B681B011A43019B1B7B5B00E5
:104A10001343019A527B11460F4A0B439360019B4B
:104A20009B7B5A01019BDB7B1B011A43019B1B7C77
:104A30005B001343019A527C1A43074B5A60019B57
:104A40009B7C002B03D0044B6FF4D1525A6200BF01
:104A500004B07047008000500000025082B003464E
:104A6000ADF80630034ABDF80630138000BF02B02F
:104A7000704700BF680E002082B00346ADF80630D4
:104A8000034ABDF80630138000BF02B0704700BF74
:104A90006A0E002000B587B003468DF8073000236A
:104AA00003930023059300230493274B03F58053BE
:104AB0001A464FF400135366244B02225A6000BF7B
:104AC000224B9B6803F48033002BF9D19DF807300B
:104AD000012B2ED1FDF7F0FF0390039B1C4A93425C
:104AE00005D11C4B059345F67A13049317E0039BFD
:104AF000194A934205D1194B059345F61A030493BD
:104B00000DE0039A13469B0013445B0A0593144B74
:104B10000493039B5B0A049AB2FBF3F304930B4ADE
:104B2000059BD362094A049B1363084B01225A6216
:104B300002E0064B00225A62044B00225A6000BF7A
:104B400007B05DF804FB00BF008000500040025039
:104B500000F04902D8B80500C0175302BBCF0500CA
:104B60006466666600B585B00190009100230393EA
:104B7000284BD3F8243103F00703062B37D801A2C2
:104B800052F823F0E94B0000A14B0000B94B0000A4
:104B9000D14B0000DD4B0000AD4B0000C54B0000C9
:104BA000FDF738FF03900523029323E0FDF732FF62
:104BB0000390062302931DE0FDF77EFF039003237D
:104BC000029317E0FDF778FF03900423029311E0AE
:104BD000FDF78EFF0390022302930BE01BF0F8FD1C
:104BE00003900723029305E00123029302E00023D0
:104BF000029300BF019B002B02D0019B039A1A6015
:104C0000009B002B02D0009B029A1A6000BF05B0E7
:104C10005DF804FB0080005000B583B00190009166
:104C2000124BD3F8203203F00303012B02D0022BE6
:104C300005D009E00099019800F07EF811E0009994
:104C4000019800F0BBF80CE0019B002B02D0019B07
:104C500000221A60009B002B02D0009B00221A60E9
:104C600000BF00BF03B05DF804FB00BF0080005030
:104C7000044B03F580531A464FF48033136700BF8B
:104C8000704700BF0080005008B58020FFF738F85B
:104C90000346064A934206D8054B03F500531A46CD
:104CA0004FF48033136700BF08BD00BF005A620293
:104CB0000080005000B585B001900091002303935F
:104CC0001C4BD3F8003103F00303032B1FD801A2C0
:104CD00052F823F0094D0000E54C0000F14C0000B3
:104CE000FD4C0000FDF7E8FE03900323029311E062
:104CF000FDF704FF0390082302930BE01BF068FD0F
:104D000003900723029305E00123029302E00023AE
:104D1000029300BF019B002B02D0019B039A1A60F3
:104D2000009B002B02D0009B029A1A6000BF05B0C6
:104D30005DF804FB0080005000B585B00190009143
:104D4000002303931C4BD3F8203103F00303032B00
:104D50001FD801A252F823F08D4D0000694D0000CC
:104D6000754D0000814D0000FDF754FE03900523B2
:104D7000029311E0FDF7A0FE0390032302930BE0E2
:104D8000FDF7B6FE03900223029305E00123029390
:104D900002E00023029300BF019B002B02D0019B85
:104DA000039A1A60009B002B02D0009B029A1A60A3
:104DB00000BF05B05DF804FB0080005000B585B071
:104DC00001900091002303931C4BD3F8403103F072
:104DD0000303032B1FD801A252F823F0114E000049
:104DE000ED4D0000F94D0000054E00001BF0F3FCF6
:104DF00003900923029311E0FDF780FE039008233E
:104E000002930BE01BF0EBFC03900B23029305E0F5
:104E10000123029302E00023029300BF019B002BB9
:104E200002D0019B039A1A60009B002B02D0009BCA
:104E3000029A1A6000BF05B05DF804FB00800050C4
:104E400000B585B001900091002303931C4BD3F86B
:104E5000603103F00303032B1FD801A252F823F0A3
:104E6000954E0000714E00007D4E0000894E0000FE
:104E70001BF0B1FC03900923029311E0FDF73EFE05
:104E80000390082302930BE01BF0A9FC03900B2373
:104E9000029305E00123029302E00023029300BF86
:104EA000019B002B02D0019B039A1A60009B002BF0
:104EB00002D0009B029A1A6000BF05B05DF804FBA7
:104EC0000080005084B0019000914FF44013039390
:104ED000009B002B0AD1019B0D4A934203D94FF44A
:104EE000801303930FE0002303930CE0009B002B3F
:104EF00009DD019B064A934203D94FF480130393C3
:104F000001E000230393039B184604B0704700BFE1
:104F1000005A620200B585B001900091184B03F56C
:104F200080531A464FF4003393660020FEF7DCFDF1
:104F30000246019B02FB03F30193FEF7A7FD034624
:104F40008DF80F30FEF7B8FDFEF7BEFD034623F4E3
:104F50004013029300990198FFF7B4FF0246029BA9
:104F6000134302930298FEF7B5FD9DF80F30002B16
:104F700001D0FEF799FD00BF05B05DF804FB00BF4E
:104F80000080005000B585B001900091002302938D
:104F9000154BD3F8803103F00303012B02D0022B11
:104FA00008D00EE002AB00211846FFF7C5FE0F2324
:104FB000039309E0FDF79CFD03460293022303934C
:104FC00002E00023039300BF019B002B02D0029A52
:104FD000019B1A60009B002B02D0009B039A1A6071
:104FE00000BF05B05DF804FB0080005000B583B041
:104FF000022301934FF4C070FEF782FE0346074A76
:10500000934201D80123019301994FF42070FEF7D8
:10501000B5FD00BF03B05DF804FB00BF80F0FA02ED
:1050200000B585B00190009100230393194BD3F88C
:10503000403203F00303032B12D0032B16D8012BAD
:1050400002D0022B06D011E01BF0C5FB0390092310
:1050500002930EE0FDF752FD03900823029308E04F
:105060001BF0BDFB03900B23029302E0002302938D
:1050700000BF019B002B02D0019B039A1A60009B8A
:10508000002B02D0009B029A1A6000BF05B05DF8A9
:1050900004FB00BF0080005000B585B00190009176
:1050A00000230393214BD3F8003203F00703042BB2
:1050B00029D801A252F823F001510000CD50000080
:1050C000D9500000E5500000F15000001BF083FBB8
:1050D00003900923029319E0FDF710FD03900823C4
:1050E000029313E01BF07BFB03900B2302930DE074
:1050F000FDF7BEFC03469B0A03930E23029305E0D3
:105100000123029302E00023029300BF019B002BC6
:1051100002D0019B039A1A60009B002B02D0009BD7
:10512000029A1A6000BF05B05DF804FB00800050D1
:1051300000B585B00190009100230393114B1B68CB
:1051400003F00403002B06D0FDF792FC0346039303
:105150000C23029305E002AA03AB11461846FFF7A1
:105160002DFE019B002B02D0039A019B1A60009B2D
:10517000002B02D0029A009B1A6000BF05B05DF8B8
:1051800004FB00BF10E000E0054B5B68C3F30803BD
:10519000002B14BF01230023DBB21846704700BF69
:1051A00000ED00E084B003468DF807309DF907302C
:1051B000002B02DB9DF907303F2B0C4B03939DF92D
:1051C00007305A09039B53F822209DF8073003F05B
:1051D0001F0322FA03F303F00103002B0CBF01238A
:1051E0000023DBB2184604B0704700BF00E100E0C6
:1051F000024B034A1A6400BF704700BF00400950C9
:105200003254FFFF024B4AF6CD321A6400BF70479A
:105210000040095008B500BF042104481BF028FFD6
:105220000346002BF8D100BF00BF08BD84400050EA
:1052300008B5FFF7EFFF044BD3F884309B0903F068
:105240000303DBB2184608BD0040005082B0019055
:10525000044B03F500531A46019BC2F8203400BFEB
:1052600002B0704700C0035000B585B003468DF80A
:1052700007309DF80730002B13D12D4B00221A6008
:105280002C4B03F580531A464FF4003353662A4BD8
:105290005B68012B47D1274BD3F80031244A1360B8
:1052A00041E0234B1B68002B3DD0234B5B68012B57
:1052B00039D0204A1E4B1B68C2F800318020FEF70F
:1052C000F9FF0346052B28D14FF4C070FEF70CFC04
:1052D0000390039B012B04D102214FF4C070FEF711
:1052E0004DFC154B03F500531A4607231361124B6F
:1052F00003F580531A460123536000BF0E4B1B6910
:1053000003F00103002BF9D0039B012B0BD10121EA
:105310004FF4C070FEF732FC05E0074B03F58053F5
:105320001A460123536000BF05B05DF804FB00BFBF
:10533000402000200080005000C0015000B583B024
:105340000190019B1A78054B1A700121002000F092
:10535000A3F800BF03B05DF804FB00BF3C200020B1
:1053600082B00190064B5B6F23F44072019B5B7827
:105370001B02034913434B6700BF02B0704700BFD5
:105380000040005000B585B003468DF807309DF809
:105390000730002B02D00020FFF766FF164B1B6979
:1053A000154A43F00403136104F032FD1BF07BFE49
:1053B0001248FFF74BFF1BF025FE039026F054FC2C
:1053C00003981BF02BFE1BF070FE04F053FD9DF8BC
:1053D0000730002B02D00120FFF746FF9DF8073071
:1053E00083F00103DBB2002B01D01BF03CFE00BFB9
:1053F00005B05DF804FB00BF00ED00E00000FF0F0A
:1054000000B585B003468DF807309DF80730002BB6
:1054100002D00020FFF728FF144B1B69134A43F00A
:10542000040313611248FFF711FF04F0F1FC1BF0B5
:10543000E9FD039026F018FC03981BF0EFFD04F043
:1054400019FD9DF80730002B02D00120FFF70CFF5B
:105450009DF8073083F00103DBB2002B01D01BF075
:1054600002FE00BF05B05DF804FB00BF00ED00E0E8
:105470000000FF0F82B00190064BDB6E23F030037B
:10548000019A12791146034A0B43D36600BF02B05A
:10549000704700BF0040005000B585B001900B463A
:1054A0008DF80330019B002B03D1FDF7B9FA03906F
:1054B00001E0019B03930D4B1B78002B0AD0039B4B
:1054C0000B4A934206D89DF803301946012000F09C
:1054D00011F806E09DF803301946022000F00AF8A2
:1054E00000BF00BF05B05DF804FB00BF3C200020FA
:1054F000005A620210B586B003460A468DF807309E
:1055000013468DF80630FFF793FE03461A469DF8C2
:105510000730934240D0FDF783FA0590059B049332
:105520009DF80730012B03D1012105981BF029FDBF
:105530001BF068FD03901A4B03F500531A464FF019
:10554000007353669DF8073018461BF0BCFD144CE1
:105550009DF8073018461BF098FD0346236702E0CC
:105560000F4BD3F884300E4B5B6E03F00073002BAF
:1055700006D10B4BD3F8843003F02003002BEFD07F
:1055800003981BF04BFD9DF80730022B05D100213D
:1055900005981BF0F6FC00E000BF06B010BD00BF90
:1055A0000040005000B587B003468DF80730002357
:1055B000059300230493444B03F580531A464FF0A0
:1055C00000435366414B03F580531A460123536051
:1055D0003E4B5B6C03F00103002B14BF012300233F
:1055E0008DF80F30FFF70EFE9DF80730002B2BD102
:1055F000364B9B6803F001030293029B002B19D0EA
:10560000324B03F500531A460123936002E0049BDA
:10561000013304932D4BDB6A03F00103002B03D10C
:10562000049B2B4A9342F2D9049B294A934201D905
:1056300007230593254B03F500531A4601235360B6
:1056400035E0049B01330493204BDB6A03F008032D
:10565000002B03D0049B1E4A9342F2D9049B1C4AA0
:10566000934202D90723059321E0184B03F5005319
:105670001A4620235362154B03F580531A46012323
:1056800093600023049302E0049B013304930F4BC7
:105690005B6A03F02003002B03D1049B0C4A934266
:1056A000F2D9049B0A4A934201D9072305939DF836
:1056B0000F30002B01D0FFF79BFD24F0C2FC059BAF
:1056C000184607B05DF804FB008000500040095008
:1056D0003F420F0000B585B001902B4B03F580537E
:1056E0001A464FF000435366284B03F580531A4681
:1056F00001235360254B5B6C03F00103002B14BFA7
:10570000012300238DF80F30FFF77CFD019B5B78B0
:105710005B001F4A43F00103D3631C4B9B6823F0DB
:105720007402019B9B781B011343019AD278002AD3
:1057300001D0042200E00022144913438B60019B36
:105740001B791B02019A92791146104A0B4313618F
:10575000019B5B791B02019AD27911460B4A0B43DC
:105760005361019B1B781846FFF71CFF9DF80F3013
:10577000002B01D0FFF73CFD24F063FC0123184609
:1057800005B05DF804FB00BF0080005000400950E8
:105790000040005084B003468DF807300F4BDB6E9D
:1057A00003F030030393039B202B13D09DF80730A5
:1057B000002B08D0094BDB6E23F03003074A43F07F
:1057C0001003D36607E0054BDB6E044A23F0300379
:1057D000D36600E000BF04B0704700BF0040005037
:1057E00082B00190044B03F500531A46019BC2F8A6
:1057F000203400BF02B0704700C0035082B003469F
:1058000000918DF807309DF80730002B0AD09DF8E5
:105810000730012B06D09DF80730022B02D09DF8EF
:105820000730032B08489DF807200121009B994071
:1058300013465B0013441B01034403F5005310336C
:10584000196000BF02B0704700C0035082B0034629
:1058500000918DF807309DF80730002B0AD09DF895
:105860000730012B06D09DF80730022B02D09DF89F
:105870000730032B08489DF807200121009B994021
:1058800013465B0013441B01034403F5805310339C
:10589000196000BF02B0704700C0035000B587B068
:1058A000029101921A4603468DF80F3013468DF887
:1058B0000E30002305939DF80F30002B0AD09DF881
:1058C0000F30012B06D09DF80F30022B02D09DF82F
:1058D0000F30032B019B072B0FD8019B9B0003224A
:1058E00002FA03F19DF80F20019B9B0002FA03F3DB
:1058F0001A462D481BF007FC11E0019B083B05935D
:10590000059B9B00032202FA03F19DF80F20059BE3
:105910009B0002FA03F31A4624481BF0F4FB019B98
:10592000072B10D8019B9B00032202FA03F1029B74
:1059300003F00302019B9B0002FA03F31A461C4882
:105940001BF0E1FB0FE0059B9B00032202FA03F131
:10595000029B03F00302059B9B0002FA03F31A4625
:1059600014481BF0D0FB9DF80E301A4601991248DE
:105970001BF0B0FB9DF820301A4601990F481BF030
:10598000A9FB0122019B02FA03F31846FFF728FF47
:105990009DF824301A46019909481BF09BFB00BF73
:1059A00007B05DF804FB00BF00C4035004C40350FB
:1059B00008C403500CC4035010C4035014C4035053
:1059C00024C4035000B587B0029101921A460346E1
:1059D0008DF80F3013468DF80E309DF80F30002BE8
:1059E0000AD09DF80F30012B06D09DF80F30022B06
:1059F00002D09DF80F30032B9DF80E3083F0010389
:105A0000DBB29DF80F00032202991BF09BFB9DF86F
:105A10000E20019B103302FA03F30593019B103310
:105A2000012202FA03F304930599049800F00EF89A
:105A3000019B10339DF82020194603481BF04AFBB8
:105A400000BF07B05DF804FB24C4035000B583B069
:105A500001900091124BD3F83024019BDB43104995
:105A60001340C1F830340E4BD3F830240199009B19
:105A70000B400B491343C1F83034094BD3F82C24A5
:105A80000749019B1343C1F82C340120FFF782FE24
:105A90000198FFF7A5FE00BF03B05DF804FB00BF4F
:105AA00000C0035082B003468DF807309DF90730DF
:105AB000002B0CDB9DF8073003F01F0205499DF910
:105AC00007305B09012000FA02F241F8232000BFF1
:105AD00002B0704700E100E082B003468DF8073065
