:10000000C00A002035280000B5060200B50602002F
:10001000872F0200B5060200B5060200B5060200F1
:10002000B5060200B5060200B5060200B5060200DC
:10003000B5060200B5060200D1010200B5060200B5
:10004000B5060200B5060200B5060200B5060200BC
:10005000B5060200B5060200B5060200B5060200AC
:10006000B5060200B5060200B5060200B50602009C
:10007000D7330200B5060200B5060200D525000000
:10008000C5250000B5060200B5060200B50602004F
:10009000B5060200B5320000B5060200B506020042
:1000A000B5060200790C0200510C0200B5060200F0
:1000B000B506020025C70100B506020081D1010086
:1000C000E7A80200E3A8020071C90100F3A802003A
:1000D000EBA8020059D10100EFA80200C1D1010034
:1000E00059AA01001DAC010031D20100B506020081
:1000F000B5060200B5060200B5060200B50602000C
:10010000B5060200B5060200B5060200B5060200FB
:10011000B5060200B5060200B5060200B5060200EB
:10012000B5060200B5060200B5060200B5060200DB
:10013000B5060200B5060200B5060200B5060200CB
:1001400010B52DED028B88B00190009172B600BF02
:100150005B4B1B68079362B600BF5A4B1B68079A3C
:10016000D31A18461DF02AFA02460B46CDE904239D
:10017000544A079B136050A3D3E90023DDE904012F
:100180001DF0C0FB02460B464F49C1E900234F4B0F
:100190001B78002B0AD04E4B1B78F92B09D84C4BFF
:1001A0001B780133DAB24A4B1A7002E0484B002246
:1001B0001A70464B1B78002B14D0454B1A78454BD0
:1001C0001B789A420ED3404BD3E90001424BD3E94E
:1001D00000231DF0DFFC0346002B03D0012001F0BB
:1001E00009F81FE0394B1B7883F00103DBB2002BC9
:1001F00003D0002000F0FEFF14E0344B1B7883F0A6
:100200000103DBB2002B0DD02F4BD3E90001324BA1
:10021000D3E900231DF0DCFC0346002B02D00220B2
:1002200000F0E8FF284BD3E900014FF000022B4B10
:100230001DF03EFA02460B46104619464FF00002EA
:10024000274B1DF07FF802460B46104619461DF05D
:10025000C9FC0346ADF80E30BDF80E30184600F06C
:100260009FFF03230293029812F0A6FC1D4B1B680C
:10027000002B19D01B4B1C6800F07EFF03461A466A
:10028000194BA3FB02235B099BB207EE903AB8EE31
:10029000E78A00F09BFF03461946144B1B681A4679
:1002A0000798B0EE480AA04700BF08B0BDEC028B2B
:1002B00010BD00BFAFF30080D7A3703D0AD7164032
:1002C000D0140020D8140020E0110020742D00204C
:1002D000762D0020770E0020C00A00200000594033
:1002E0000000E03FDC1400201F85EB51E0140020EB
:1002F000002370B5404C05468AB0E36318B100880E
:10030000236010F01DF93D4829F094FD3C4E3D4B13
:10031000304633603C4B736026F059FF0021304675
:1003200016F08CFA32A3D3E90023A062C4E90623B5
:1003300026F058FFD4E9062319431043C4E9060107
:10034000CDE900014FF0FF334FF0FF32A06A29F0F2
:10035000ECFD02224FF0FF31A06A29F0EBFD0120F5
:100360000FF068FE4FF4007300222849A06A29F0BC
:1003700035FEB0F5007F38D100239422CDE9073354
:1003800009933C23CDE9033205939623A06A03A980
:10039000069316F071FB35B3287C10F051FA054630
:1003A000F0B9A06A29F0FBFE10F0F8F90FF024FE76
:1003B00020B14FF4807000210DF096FE0FF02CFE5E
:1003C00020B14FF4006000210DF08EFE26F0CDFF2D
:1003D000012016F087FA0E4A0E49A06A26F0F5FEB3
:1003E00028460AB070BDFF20D7E70725F8E700BF11
:1003F0000DD501552000000058120020690345EC7E
:10040000CC250020B9FE0000DC250020CC230020F4
:1004100073710200B37102002DE9F04FC76997B004
:100420008346209E08910C92129355EC104B8DED53
:10043000000B7FB910201DF09FFD0246CBF81C0079
:1004400020B9A74BEF21A7481FF086F8C0E9017734
:100450000760C760DBF81C30196859B15A6801237E
:10046000584693404A608B601EF006FCDBF81C3057
:1004700000221A602B1EB7BF23F000430023012285
:100480000193A8BF3360019F974BB8BF3260BB4355
:1004900019D142F20F73129A1360C7F31303234367
:1004A00000F0DB85219B53B9904B21E0904B0393E7
:1004B0000833219A1360039817B0BDE8F08F8B4B77
:1004C00003930333F5E79DED007B0022002351ECFD
:1004D000170B8DED0A7B1DF053FB804650B10123B5
:1004E000129A1360219B13B1824B219A1360824BA5
:1004F0000393E0E7C7F30A5614AA15A958469DEDE1
:100500000A0B1EF041FE0290002E76D00B9BA6F245
:10051000FF36CDF84C80C3F3130343F07F53DDE97E
:100520000A0143F4401319460022744B1CF008FFE3
:1005300065A3D3E900231DF0BBF865A3D3E900232D
:100540001CF000FF04460D4630461DF047F862A33C
:10055000D3E900231DF0ACF802460B46204629469D
:100560001CF0F0FE04460D461FF080FD00220746F9
:100570000023204629461DF00DFB40B138461DF0F2
:100580002DF822462B461DF0FBFA00B9013F162F2D
:1005900052D85B4B03EBC703DDE90A01D3E9002323
:1005A0001DF0F8FA002849D0013F00231193149B55
:1005B0009B1B5A1E4CBFC3F101030023079245BF8A
:1005C0000693002306930793002F39DB079B1097B0
:1005D0003B44079300230993089B092B66D8052BFE
:1005E000C5BF043B002401240893089B023B032B56
:1005F00067D8DFE803F02D3A3859DDE914631E446B
:1006000006F23243202BC9BFC3F14003C3F12003DC
:100610009F4006F21243D8BF04FA03F006F1FF36FA
:10062000C4BF24FA03F347EA03001CF0C7FF01220A
:10063000A1F1F873139276E70123B7E71190B6E7BB
:10064000069BDB1B06937B42099300231093C3E7B1
:1006500000230D930C9B002B56DC012399461A4670
:1006600004930C920CE00123F3E700230D930C9B01
:10067000FB1803F1010904934B46012BB8BF01237A
:10068000DBF81C000021042202F114059D423FD931
:10069000416058461EF0B0FA039000283BD1194B38
:1006A000024640F2AF11CEE60123DFE7012400232A
:1006B0000D9408934FF0FF330022994604931223C0
:1006C000CFE701230D93F5E761436F63A787D23F1F
:1006D000B3C8608B288AC63FFB799F501344D33F31
:1006E0001AFF020031FF02000000F07F16FF020037
:1006F0000DFF0200EAFE0200E9FE02000000F83FE2
:10070000300003008AFF02000C9B99460493B7E770
:1007100001315200B8E7DBF81C30B9F10E0F039A33
:100720001A606FD8002C6DD0002F36DD07F00F0255
:10073000A04BF8054FEA271403EBC20393ED007BAF
:100740008DED0E7B17D59C4B04F00F044FF0030882
:10075000D3E90823DDE90A011DF0D4F8CDE9000151
:10076000954D5CB9DDE90E23DDE900011DF0CAF805
:10077000CDE900012BE04FF00208F1E7E10709D5D0
:1007800008F10108DDE90E01D5E900231CF090FF16
:10079000CDE90E0164100835E3E700F007817C42E3
:1007A000844B854D4FF0020804F00F02241103EB37
:1007B000C203DDE90A01D3E900231CF079FF00231D
:1007C000CDE90001002C40F0E580002BD0D1119B39
:1007D000DDE90045002B00F04C810022774B2046DC
:1007E00029461DF0D7F9002800F04381B9F1000F28
:1007F00000F03F81049B002B00F3E480DDE90A3424
:10080000CDE90034159B002B02DB0E2F40F3428212
:100810000D9A002A40F06782099C0025DDF81880B7
:10082000B8F1000F0DD0079B002B0ADD4345069A57
:10083000A8BF4346D21AA8EB03080692079AD31A18
:100840000793099B0BB30D9B002B00F0A682002C95
:1008500000F0A1822946224658461EF037FB029A34
:100860000146054658461EF087FA02990646584644
:100870001EF002FA099B1B1B099300F09182099A52
:10088000314658461EF022FB0290012158461EF0C8
:100890005DFA109B0446002B00F084821A46014644
:1008A00058461EF013FB089B0446012B03DC009BFB
:1008B000002B00F07C820026236904EB8303186977
:1008C0002AF09AFAC0F120001096079B184410F005
:1008D0001F0000F09182C0F12003042B40F38182BD
:1008E000C0F11C00069B034480440693079B03440D
:1008F0000793069B002B05DD1A46029958461EF009
:100900003FFB0290079B002B05DD21461A46584607
:100910001EF036FB0446119B002B00F07682214628
:1009200002982AF0B8FA002880F26F8200230A2287
:10093000029958461EF0C2F90D9B7E1E0290002BB4
:1009400000F05C82002329460A2258461EF0B6F9C0
:10095000049B0546002B03DC089B022B00F35E8200
:10096000B8F1000F05DD2946424658461EF008FB47
:100970000546109B002B00F0D082696858461EF097
:100980003BF90746002840F07F820D4B024640F2BB
:10099000EF2158E5E20706D508F10108D5E9002363
:1009A0001CF086FE0123641008350BE74FF00208A7
:1009B0000DE700BF30000300080003000000F03F17
:1009C0008AFF020020460022AC4B29461CF070FE34
:1009D0007E1E08F10108049CCDE9000140461CF090
:1009E000FDFDDDE900231CF063FEA54B00221CF099
:1009F000A9FCA1F15073CDE90E010F93002C3BD15E
:100A00000022A04BDDE900011CF09AFC02460B46D7
:100A1000CDE90023DDE90E231DF0DAF8002840F0CF
:100A20005781DDE90E2101F10043DDE900011DF0F0
:100A3000B1F800283FF4E2AE002425460C9BDDF817
:100A40000CA0DE434FF00008214658461EF014F972
:100A5000002D00F0A980B8F1000F05D0A84503D003
:100A6000414658461EF008F9294658461EF004F93A
:100A70009AE03E464C46B1E7834B03EBC40353E98F
:100A80000201039B1C440D9B002B4AD002460B46DF
:100A900000207E491CF036FFDDE90E231CF050FCDF
:100AA000DDF80CA0CDE90E01DDE900011FF0DEFA52
:100AB00005461CF093FD024630350B46DDE900018A
:100AC0001CF03EFC0AF8015B02460B46CDE9000132
:100AD000DDE90E011DF07CF8002865D100206C498D
:100AE000DDE900231CF02CFC02460B46DDE90E017B
:100AF0001DF06EF8002840F00D81A24500F0EA805C
:100B000000225E4BDDE90E011CF0D2FD00225B4BA2
:100B1000CDE90E01DDE900011CF0CAFDCDE90001BF
:100B2000C2E7DDE90E231CF0C3FDA046DDF80CA0F2
:100B3000CDE90E01DDE900011FF098FA05461CF031
:100B40004DFD024630350B46DDE900011CF0F8FB97
:100B50000AF8015B02460B46A245CDE900234FF09F
:100B6000000223D1494BDDE90E011CF0EBFB0246EC
:100B70000B46DDE900011DF02BF8002840F0CA808B
:100B800000204249DDE90E231CF0DAFB02460B4649
:100B9000DDE900011CF0FEFF70B1C24608F1FF382C
:100BA0001AF8013C302BF8D0374655E0334B1CF097
:100BB0007FFDCDE90001BDE7DDE90A34CDE9003470
:100BC000159B002BFFF628AE0E2F3FF725AE2E4BC0
:100BD00003EBC70393ED007B0C9B002B8DED047B97
:100BE00002DAB9F1000F64D0DDF80CA0DDE90045B0
:100BF000DDE90423204629461CF084FE1FF036FA66
:100C000006461CF0EBFCDDE904231CF051FD024616
:100C1000204606F130040B4629461CF091FB0AF8E9
:100C2000014B039C02460B46AAEB0404A14540F08D
:100C300082801CF087FB04460D46DDE904231CF08E
:100C4000C7FF002865D120462946DDE904231CF0B2
:100C500097FF08B1F3075CD4029958461EF00CF8D0
:100C6000002301378AF80030129B1F60219B002B64
:100C70003FF421ACC3F800A01DE400BF00002440F5
:100C800000001C4000001440300003000000E03F62
:100C90000000F03FA24B03EBC70393ED007B0C9BDE
:100CA000002B8DED047B9FDAB9F1000F9CDC7FF403
:100CB000C3AE00229B4BDDE904011CF0F9FCDDE929
:100CC00000231CF07BFF044600287FF4B5AE3E46AF
:100CD0002546B4E0DDE90A34CDE90034159B002B4C
:100CE00001DB0E2FD6DD089A012A36DC139A82B377
:100CF00003F23343099CDDF81880069A0121584617
:100D00001A440692079A1A4407921EF01FF80546E5
:100D100086E53E4653469A4613F8012D392A06D1F8
:100D2000039A9A42F7D13022039901360A701A7851
:100D300001321A7038E700227B4B1CF0B9FC00220C
:100D4000002304460D461CF01BFF00283FF450AF63
:100D500082E7149BC3F13603CCE709F1FF34099B0A
:100D6000A34208DBB9F1000FA3EB04040EDBDDF8AE
:100D700018804B46C1E7099B109AE31A0994DDF8E5
:100D8000188000241A444B461092B6E7069BA3EB4A
:100D900009080023B1E7029E71E5099A029970E5FE
:100DA000029672E5089B012B17DC009BABB9019BF7
:100DB000C3F313039BB9019B23F00046360D3605A0
:100DC00036B1069B012601330693079B0133079337
:100DD000109B002B7FF470AD1096012075E5002666
:100DE000F6E73FF486AD1C33069A1A4498440692FF
:100DF000079A1A4407927CE50346F4E7049B002B0C
:100E00002BDC089B022B09DC27E0B9F1000F1DDC6D
:100E1000089B022B1ADD3E46CDF81090049B002B58
:100E20007FF40CAE2146052258461DF047FF0146CF
:100E3000044602982AF02FF800287FF7FFADDDF86E
:100E40000CA0312301360AF8013BFBE50D9B3E4621
:100E5000CDF81090002B7FF483AD039F21460298BC
:100E600029F03DFF039B00F13009049A07F8019B2C
:100E7000FB1A9A4240F3CB8000230A22029958467B
:100E80001DF01CFF0290E9E72A6905F10C010C3006
:100E90000232920029F00EFF0122394658461EF018
:100EA0006FF8039BA846054603F1010ADDE9032319
:100EB00013440793009B03F0010309930AF1FF33E6
:100EC00021460298049329F00AFF4146069000F15A
:100ED0003009029829F0DFFF2A4621460746584686
:100EE0001EF0BAF8C268014602B358461DF0C4FEAF
:100EF000002F3ADA0122029958461EF041F82146A5
:100F0000029029F0C8FF002803DC29D119F0010F55
:100F100026D0B9F1390F1DD132E02846C1E700BF14
:100F20003000030000001440000024400A900298A2
:100F300029F0B1FF0A990C9058461DF09DFE0C9ABD
:100F40005ABB089B53B9099B43B9B9F1390F17D064
:100F5000002F05DD069B03F1310901E0002F2ADA9D
:100F6000DDF810A00AF8019B6EE5089B3B4304D115
:100F7000009B03F00103002BBCD0B9F1390F36D12F
:100F8000049F392307F8013BBA46013F1AF8013C98
:100F9000392B5AD001333B7056E5002F06DB089BF6
:100FA0003B4306D1009B03F0010313B9002AA1DCE7
:100FB000D6E7002AE1DC079B57460AF8019C534517
:100FC0002ED000230A22029958461DF077FEA8452C
:100FD00002904FF000034FF00A02414658460BD1F1
:100FE0001DF06CFE804605460AF1010A66E7DDF851
:100FF00010A009F10109B5E71DF060FE2946804601
:1010000000230A2258461DF059FE0546ECE7049BD2
:101010004FF00008002BCCBF1F460127039B1F4445
:101020000122029958461DF0ABFF2146029029F09B
:1010300032FF0028A8DC02D119F0010FA4D1BA4672
:1010400017F8013D302BFAD0FEE4039BBB429BD145
:101050003123039A01361370F6E4219B002B7FF4B1
:1010600025AA014BFFF744BA0DFF02000348044BC9
:10107000834202D0034B03B118477047DC110020B4
:10108000DC11002000000000064B0749C91A891036
:1010900048BF0131491003D0044B0BB10148184738
:1010A000704700BFDC110020DC11002000000000B0
:1010B00010B5064C237843B9FFF7D8FF044B13B1A2
:1010C0000448AFF300800123237010BD702D002071
:1010D00000000000280F030008B5054B1BB10549AF
:1010E0000548AFF30080BDE80840FFF7CDBF00BF63
:1010F00000000000B8140020280F0300A3F5803A78
:10110000704700BF174B002B08BF134B9D46FFF7DE
:10111000F5FF00218B460F461348144A121A29F096
:10112000B0FD0E4B002B00D098470D4B002B00D08C
:1011300098470020002104000D000D48002802D02F
:101140000C48AFF300801DF0E9FC200029001FF0DF
:1011500032F81CF0FFFE00BF000008000000000095
:1011600000000000C00A0020DC110020642E0020D6
:10117000000000000000000000B583B01FF0CEFEAC
:101180000190064B1B88ADF8023001981FF0D2FE8B
:10119000BDF80230184603B05DF804FB182D00209E
:1011A00000B585B00346ADF806301FF0B7FE0390DA
:1011B000054ABDF80630138003981FF0BBFE00BF40
:1011C00005B05DF804FB00BF182D002000B583B00A
:1011D0001FF0A4FE0190064B1B788DF80330019898
:1011E0001FF0A8FE9DF80330184603B05DF804FB1D
:1011F000712D002000B585B003468DF807301FF033
:101200008DFE0390054A9DF80730137003981FF078
:1012100091FE00BF05B05DF804FB00BF712D0020FA
:1012200010B586B08DED050A04900B4602928DF83C
:101230000F301FF04DF91FF04DF9094B1C68059850
:101240001CF0DEF902460B469DF80F10019104993F
:1012500000910449204621F047FA00BF06B010BDB6
:10126000C4150020A0BB020008B500F07DFE0021DF
:10127000074800F0E9FE1FF02BF91FF02BF9054B92
:10128000186820231B22044921F02EFA00BF08BD54
:1012900021120000C4150020C8BB020000B58DB0AB
:1012A0000390039B1B6823F47F4323F00703A84AA2
:1012B000934200F05B82A64A934200F2A483A54ABF
:1012C000934200F04583A34A934200F29C83A24AD2
:1012D000934200F07981A04A934200F294839F4A9E
:1012E000934200F0F2819D4A934200F28C839C4A23
:1012F000934204D09B4A934200F04E8183E39A4884
:1013000011F076FC0B900B9B002B2AD0974B1B689F
:101310009749184621F0E8F9944B1B6895491846FF
:1013200021F0E2F91FF0D4F81FF0D4F88F4B1868C1
:10133000914B00939323914A914921F0D5F98B4B1E
:1013400018680B9B8F4A904921F0CEF90B9801F059
:10135000EBF9864B1B688D49184621F0C5F900BF93
:10136000FDE7814B1B780221184611F07BFC0B90A6
:101370000B9B002B2AD07D4B1B687D49184621F022
:10138000B3F97A4B1B687B49184621F0ADF91FF081
:101390009FF81FF09FF8754B1868774B00939823C0
:1013A000764A774921F0A0F9704B18680B9B754A73
:1013B000754921F099F90B9801F0B6F96B4B1B6850
:1013C0007249184621F090F900BFFDE7664B187886
:1013D000002300930023A022A02111F021FC0B90F8
:1013E0000B9B002B2AD0614B1B686149184621F0EA
:1013F0007BF95E4B1B685F49184621F075F91FF0B9
:1014000067F81FF067F8594B18685B4B0093A123EE
:101410005A4A5B4921F068F9544B18680B9B594AAA
:10142000594921F061F90B9801F07EF94F4B1B6887
:101430005649184621F058F900BFFDE74A4B1B7882
:101440000221184611F022FC0B900B9B002B2AD096
:10145000464B1B684649184621F046F9434B1B682A
:101460004449184621F040F91FF032F81FF032F8D5
:101470003E4B1868404B0093A623404A404921F058
:1014800033F93A4B18680B9B3E4A3F4921F02CF93F
:101490000B9801F049F9354B1B683C49184621F07F
:1014A00023F900BFFDE7002000F0DEFA0B900B9B54
:1014B000002B1FD0012001F003F90346002B19D0A7
:1014C0002A4B1B683249184621F00EF91FF000F82C
:1014D0001FF000F8254B18680B9B2A4A2A4921F077
:1014E00003F90B9801F020F9204B1B682949184695
:1014F00021F0FAF80B9B002B40F08782002000F0CF
:10150000E7FA0B900B9B002B00F07F82012001F08B
:10151000D7F80346002B00F07882144B1B681C4957
:10152000184621F0E1F81EF0D3FF1EF0D3FF0F4B59
:1015300018680B9B134A144921F0D6F80B9801F058
:10154000F3F80A4B1B681349184621F0CDF85CE20A
:10155000A0000A03A0000103A0000601A0000A00E9
:10156000A0000100A0000600760E0020C415002097
:10157000E4BB0200E8BB020030C00200F0BB020086
:10158000FCBB020008BC02000CBC020024BC020030
:1015900038BC020040BC0200032001F091F8034671
:1015A000002B00F034829D4B1B689D49184621F0AA
:1015B0009BF81EF08DFF1EF08DFF984B1B6899491C
:1015C000184621F091F822E2032001F079F8034651
:1015D000002B0FD0914B1B689149184621F084F8DD
:1015E0001EF076FF1EF076FF8C4B1B688E49184666
:1015F00021F07AF88D4B1B780221184611F032FB4E
:101600000B900B9B002B2AD0844B1B6888491846F3
:1016100021F06AF8814B1B688649184621F064F86E
:101620001EF056FF1EF056FF7C4B1868824B00934D
:10163000C123824A824921F057F8784B18680B9BE6
:10164000804A814921F050F80B9801F06DF8734BF6
:101650001B687E49184621F047F800BFFDE7734B31
:101660001B780221184611F011FB0B900B9B002BED
:1016700000F0CF81694B1B686D49184621F034F8A2
:10168000664B1B686B49184621F02EF81EF020FFB0
:101690001EF020FF614B1868674B0093C623674A12
:1016A000674921F021F85D4B18680B9B654A664934
:1016B00021F01AF80B9801F037F8584B1B68634972
:1016C000184621F011F800BFFDE7039BB3F8053081
:1016D0009BB21E2B40F09F8105AA0DF11B030093C6
:1016E0001346012200211E2011F0E4FA0B900B9BFF
:1016F000002B1FD0012000F0E3FF0346002B19D080
:10170000464B1B685249184620F0EEFF1EF0E0FEE3
:101710001EF0E0FE414B18680B9B4A4A4A4920F0F4
:10172000E3FF0B9801F000F83C4B1B684949184651
:1017300020F0DAFF0B9B002B01D000BF70E19DF879
:101740001B30002B14BF01230023DBB2184600F02E
:1017500023FC1EF0BDFE1EF0BDFE304B1B689DF845
:101760001B203D49184620F0BFFF54E1039BB3F80E
:1017700005309BB21B2B40F086801EF0A9FE1EF0A8
:10178000A9FE264B1B683549184620F0ADFF039B88
:101790001B899BB203F00103002B67D01EF098FE5B
:1017A0001EF098FE1D4B1B682D49184620F09CFF2B
:1017B000002000F08DF90B901EF08AFE1EF08AFECC
:1017C000164B1B682749184620F08EFF0B9B002BF9
:1017D0001FD0012000F074FF0346002B19D00F4BDF
:1017E0001B681B49184620F07FFF1EF071FE1EF09B
:1017F00071FE0A4B18680B9B124A134920F074FFC4
:101800000B9800F091FF054B1B681249184620F019
:101810006BFF154B01221A7035E000BFC415002084
:1018200044BC02004CBC020064BC0200760E0020E6
:10183000E4BB0200E8BB020030C00200F0BB0200C3
:10184000FCBB020008BC02000CBC020024BC02006D
:1018500038BC020040BC02007CBC02009CBC020000
:10186000B0BC0200E8BC0200722D00201EF030FE69
:101870001EF030FE6C4B1B686C49184620F034FF9C
:101880006B4B00221A70039BB3F805309BB2202BE0
:1018900040F0C3801EF01CFE1EF01CFE624B1B6855
:1018A0006449184620F020FF039B1B899BB203F07C
:1018B0000103002B3ED01EF00BFE1EF00BFE5A4B18
:1018C0001B685D49184620F00FFF002000F04EF91C
:1018D0000B901EF0FDFD1EF0FDFD534B1B6857499C
:1018E000184620F001FF0B9B002B1FD0012000F0B9
:1018F000E7FE0346002B19D04B4B1B685049184696
:1019000020F0F2FE1EF0E4FD1EF0E4FD464B1868E8
:101910000B9B4C4A4C4920F0E7FE0B9800F004FF6B
:10192000414B1B684949184620F0DEFE484B012216
:101930001A7072E01EF0CCFD1EF0CCFD3A4B1B6815
:101940004449184620F0D0FE414B00221A7064E052
:101950001EF0BEFD1EF0BEFD334B1B683E4918460F
:1019600020F0C2FE039B5B680A930A9B03F001030D
:10197000002B54D0FFF700FC0346ADF82630FFF7EC
:1019800025FC03468DF825301EF0A2FD1EF0A2FDB9
:10199000254B1868264B1B781A462D4B1B782F4970
:1019A00020F0A2FE224B1B78002B13D0BDF826306E
:1019B000184600F08DF80890089B002B0AD01EF006
:1019C00087FD1EF087FD184B1868089B089A24496C
:1019D00020F08AFE1E4B1B78002B20D09DF825306E
:1019E000184600F0C3F80790079B002B17D01EF095
:1019F0006FFD1EF06FFD0C4B1868079B079A194985
:101A000020F072FE0BE000BF0AE000BF08E000BF5C
:101A100006E000BF04E000BF02E000BF00E000BF3E
:101A200000BF0DB05DF804FBC415002004BD02002A
:101A3000722D00202CBD020040BD020078BD0200C6
:101A400038BC020008BC02000CBC020040BC020012
:101A5000732D002098BD0200C0BD0200D8BD020059
:101A600004BE020024BE020000B585B003468DF816
:101A700007300DF10703012200211E2011F04CF95F
:101A80000390039B002B17D1032000F019FE03469F
:101A9000002B11D00B4B1B680B49184620F024FE7D
:101AA0001EF016FD1EF016FD064B1B689DF8072064
:101AB0000649184620F018FE039B184605B05DF84D
:101AC00004FB00BFC415002044BC020044BE020059
:101AD00000B585B00346ADF806301EF0F9FC1EF0E7
:101AE000F9FC1D4B1B68BDF806201C49184620F068
:101AF000FBFD022303931EF0EBFC1EF0EBFC164BE8
:101B00001868BDF80630039A154920F0EDFD0DF177
:101B100006031A4602211B2011F014F90290029BC1
:101B2000002B08D10C4B1B68BDF806200D49184648
:101B300020F0DAFD0AE01EF0CBFC1EF0CBFC064BD9
:101B40001B68029A0849184620F0CEFD029B1846F1
:101B500005B05DF804FB00BFC4150020C0BE020044
:101B6000E0BE02000CBF020038BF020000B585B025
:101B700003468DF80730012303931EF0A9FC1EF0E5
:101B8000A9FC214B1B689DF807202049184620F02E
:101B9000ABFD0DF107031A460121202011F0D2F808
:101BA0000290029B002B14D1174B1B689DF8072055
:101BB0001749184620F098FD1EF08AFC1EF08AFC9A
:101BC000114B18689DF80730039A124920F08CFDDC
:101BD00015E01EF07DFC1EF07DFC0B4B1B68029A8D
:101BE0000D49184620F080FD1EF072FC1EF072FCBC
:101BF000054B1868029B029A084920F075FD029B6C
:101C0000184605B05DF804FBC415002064BF02004F
:101C100084BF0200B0BF0200DCBF020008C00200A7
:101C200082B00190044B03F500531A46019BC2F8A1
:101C3000203400BF02B0704700C0035000B583B02D
:101C40000190019903481EF03BFA00BF03B05DF814
:101C500004FB00BF24C4035082B0034600918DF8FA
:101C600007309DF80730002B0AD09DF80730012B74
:101C700006D09DF80730022B02D09DF80730032BC9
:101C800008489DF807200121009B994013465B00FE
:101C900013441B01034403F500531033196000BFC4
:101CA00002B0704700C0035082B00190019B0E4A01
:101CB00093420FD0019B0D4A93420BD0019B0C4ADB
:101CC000934207D0019B0B4A934203D0019B0A4ADF
:101CD000934201D1012300E0002303F00103DBB2B2
:101CE000184602B0704700BF0080045000C0045086
:101CF00000000550004005500080055082B0019062
:101D0000019B304A93420ED0019B2F4A93420AD046
:101D1000019B2E4A934206D0019B2D4A934202D04A
:101D2000019B2C4A9342019B264A934245D0019B3A
:101D3000244A934203D0019B234A93423AD0019B09
:101D4000204A934207D0019B1F4A934203D0019B34
:101D50001E4A93422BD0019B1A4A93420BD0019BFF
:101D6000194A934207D0019B184A934203D0019B22
:101D7000174A934218D0019B124A934212D0019BFA
:101D8000114A93420ED0019B104A93420AD0019B04
:101D90000F4A934206D0019B0E4A934202D14FF65E
:101DA000FF730CE000230AE04FF6FF7307E04FF6E5
:101DB000FF7304E04FF6FF7301E04FF0FF33184666
:101DC00002B070470080045000C00450000005506D
:101DD000004005500080055000B58DB00121242041
:101DE00001F038FF242001F067FF099000230A93D7
:101DF0000023ADF82E3013E0BDF82E304FF47A7288
:101E000002FA03F3099AB2FBF3F3013B0A930A9B2C
:101E1000B3F5803F0AD3BDF82E300133ADF82E3034
:101E2000BDF82E30B3F5806FE6D300E000BF05AB00
:101E300000221A605A609A60DA6001238DF814302B
:101E4000BDF82E30ADF8163000238DF8143005ABF8
:101E500019461C481FF03EFA01AB00221A605A6076
:101E60009A601A7303238DF80A3001AB1A460021D9
:101E700014481FF0C0FA0A9912481EF05BF90A9B39
:101E80001B091A4600210F481EF027F900230422DF
:101E9000032103201FF0E2F80B4B4FF00312C3F8AD
:101EA0008025094BD3F87C35074A43F00103C2F87B
:101EB0007C35012103481EF025F900BF0DB05DF807
:101EC00004FB00BF0080045000C0035008B500218F
:101ED00008481EF017F9084BD3F87C35064A23F062
:101EE0000103C2F87C3503210320FFF7B5FE00BFD4
:101EF00008BD00BF0080045000C0035082B00346FC
:101F00008DF80730034B1B680133024A136000BF92
:101F100002B07047D014002000B583B001213A20F0
:101F200001F098FE01230322002102201FF096F801
:101F300001230193002300930123002200210220AA
:101F400003F088FC0120FFF76BFE1EF066FE0549DA
:101F5000002001F08FFB0120FFF770FE00BF03B0EF
:101F60005DF804FBFD1E000008B5094B1B78002B33
:101F70000CD11EF0EFF8FFF7CFFF21F0C1F80346B8
:101F8000044A1360024B01221A7000E000BF08BD32
:101F9000772D0020D414002000B587B003468DF8BB
:101FA0000F30204B1B789DF80F209A4236D01D4AE7
:101FB0009DF80F3013709DF80F3018461EF0DDF8B5
:101FC0009DF80F30002B1ED00023019300230093B7
:101FD0000023154A4FF47A71144808F0CFF80590A1
:101FE0001EF076FA1EF076FA114B1B68059A11491D
:101FF000184620F079FB104B1B68104A1360104BF9
:1020000000221A700BE00F4808F012F9074808F098
:102010000FF903210320FFF71FFE00E000BF07B008
:102020005DF804FB742D0020410100000415002020
:10203000C415002040C00200D0140020D814002095
:10204000752D0020E414002082B001900091044A14
:10205000019B1360034A009B136000BF02B07047EE
:10206000DC140020E014002000B58BB00390039B2B
:102070001B6823F47F4323F00703994A934240F0FF
:102080002881984B08220021122010F045FE09906B
:10209000099B002B2AD0944B1B689449184620F0CA
:1020A00023FB914B1B689249184620F01DFB1EF044
:1020B0000FFA1EF00FFA8C4B18688E4B00933D23DD
:1020C0008D4A8E4920F010FB874B1868099B8C4A7B
:1020D0008C4920F009FB099800F026FB824B1B6815
:1020E0008949184620F000FB00BFFDE7874B03221B
:1020F0000021142010F010FE0990099B002B2AD01B
:10210000794B1B687949184620F0EEFA764B1B682C
:102110007749184620F0E8FA1EF0DAF91EF0DAF9ED
:10212000714B1868734B00934B23734A734920F02B
:10213000DBFA6D4B1868099B714A724920F0D4FA9A
:10214000099800F0F1FA684B1B686F49184620F0B7
:10215000CBFA00BFFDE76E4B05220021162010F0E0
:10216000DBFD0990099B002B2AD05F4B1B685F4960
:10217000184620F0B9FA5C4B1B685D49184620F000
:10218000B3FA1EF0A5F91EF0A5F9574B1868594B84
:1021900000935923584A594920F0A6FA524B18681F
:1021A000099B574A574920F09FFA099800F0BCFA5A
:1021B0004D4B1B685449184620F096FA00BFFDE7C6
:1021C0000DF11B0207AB1146184610F0D1FD099026
:1021D000099B002B2AD0444B1B684449184620F029
:1021E00083FA414B1B684249184620F07DFA1EF0E5
:1021F0006FF91EF06FF93C4B18683E4B0093642357
:102200003D4A3E4920F070FA374B1868099B3C4A1A
:102210003C4920F069FA099800F086FA324B1B68B5
:102220003949184620F060FA00BFFDE79DF82130DB
:102230008DF810309DF820308DF811309DF81F304A
:102240008DF81230FF238DF81330FE238DF81430F3
:102250009DF81E308DF815309DF81D308DF8163024
:102260009DF81C308DF8173004AB0822002118208F
:1022700010F052FD0990099B002B2CD01A4B1B68C3
:102280001A49184620F030FA174B1B6818491846AF
:1022900020F02AFA1EF01CF91EF01CF9124B1868E7
:1022A000144B00937423144A144920F01DFA0E4B6A
:1022B0001868099B124A134920F016FA099800F091
:1022C00033FA094B1B681049184620F00DFA00BF7D
:1022D000FDE700BF00E000BF00BF0BB05DF804FBEE
:1022E000A00001005CC00200C415002068C002000C
:1022F0006CC00200E4C0020074C002009CC0020076
:10230000A8C00200ACC00200C4C00200D8C00200D5
:10231000DCC0020082B003468DF807309DF907301B
:10232000002B0CDB9DF8073003F01F0205499DF9D7
:1023300007305B09012000FA02F241F8232000BFB8
:1023400002B0704700E100E082B003468DF807302C
:102350009DF90730002B0DDB9DF8073003F01F02BD
:1023600006499DF907305B09012000FA02F260334B
:1023700041F8232000BF02B0704700BF00E100E039
:1023800008B502F0BDF81EF064FD2A4B1B6F23F068
:102390000703284A43F0030313671EF067FD264B2B
:1023A0009B6A03F00203002B05D1234B03F5005376
:1023B0001A46012393621F4BD3F8203123F0030305
:1023C0001C4A43F00203C2F820311A4BD3F82431DF
:1023D00023F00703174A43F00203C2F82431154BD8
:1023E000D3F8403123F00303124A43F00203C2F84A
:1023F0004031104BD3F8603123F003030D4A43F012
:102400000203C2F860310B4BD3F8403223F00303D0
:10241000084A43F00203C2F84032064BD3F80032B8
:1024200023F00703034A43F00203C2F800320023FB
:10243000184608BD0080005000C0005000B583B0B1
:1024400003F08AFD0346012B1ED1114B5B6E03F492
:102450008023002B0CBF012300238DF807300C4B89
:1024600003F580531A464FF480235366094B042228
:102470001A609DF80730002B06D0054B03F500537A
:102480001A464FF48023536600BF03B05DF804FB87
:10249000008000502020015030B599B03A4B0FAC6D
:1024A0001D460FCD0FC495E8070084E807004FF4E0
:1024B000E13311930023ADF84A304FF48053ADF867
:1024C0004C3003238DF855300AAB00221A605A6055
:1024D0009A60DA601A612D4B0A9329230B93052326
:1024E0008DF8313006238DF8333008238DF83530E0
:1024F00007238DF8373001238DF83930244A08AB93
:1025000092E8030083E8030002AB00221A605A60DD
:102510009A60DA601A615A6102AB08AA92E8030075
:1025200083E803000F238DF8103010238DF811304D
:10253000184B05932023069301238DF81D300023AB
:102540008DF81E300AAB0FAA02A913480090134859
:1025500006F0E4FA169000238DF85F309DF81E30E7
:1025600083F00103DBB2002B03D003238DF85F302F
:1025700000BF9DF85F3019464FF4E1301EF00DF8B2
:10258000169B184619B030BDC8C3020000000650A3
:10259000E4C30200A4150020501500202C150020D3
:1025A00000B583B00549064807F030F8FFF774FF1F
:1025B000019000BF03B05DF804FB00BF5C0B00207E
:1025C0002415002008B5024806F0EAFB00BF08BD4C
:1025D0002C15002008B5024806F0E2FB00BF08BD3C
:1025E0002C15002008B503481DF0B1FE034618461F
:1025F00008BD00BF2C15002000B585B003460A4673
:102600008DF8073013468DF806309DF80730022B01
:1026100003D09DF80730032B13D19DF80630012B12
:1026200003D09DF80630002B0BD1052100201DF0B2
:10263000A9FE0390039B0422052100201EF00EFD3D
:102640001AE09DF80630022B03D09DF80630032BCC
:1026500012D19DF80730012B03D09DF80730002BD5
:102660000AD1052100201DF08DFE0390039B00225E
:10267000052100201EF0F2FC9DF80630012B09D840
:10268000064B1B681B68002B04D0044B1B681846C4
:102690001DF04FFE00BF05B05DF804FB640B002089
:1026A00008B502481EF045F800BF08BDECC30200A3
:1026B00008B502481EF0A8F900BF08BD04C4020016
:1026C00084B003468DF8073001238DF80F30124B8C
:1026D0001B78002B08D0114B1B789DF807209A42DD
:1026E00002D900238DF80F300D4B1B78002B0DD035
:1026F0000C4B1B781A469DF8073042FA03F303F09F
:102700000103002B02D100238DF80F309DF80F300C
:10271000184604B0704700BF780E0020790E0020E4
:10272000782D00207A0E002000B585B001900F4B67
:102730001B680F4918461FF0D7FF05F02FFF0390C5
:102740000A4B1B68184605F015FF019800F032F897
:10275000039805F00FFF054B1B68064918461FF04C
:10276000C3FF00BF05B05DF804FB00BFC415002027
:102770001CC4020020C4020008B5094B01221A70D3
:10278000084B00221A70084B04221A70074B1F22B4
:102790001A7005F003FF0346054A136000BF08BD29
:1027A000780E0020782D0020790E00207A0E00206F
:1027B000C415002000B583B00190054B1B68054986
:1027C00018461FF091FF00BF03B05DF804FB00BF87
:1027D000C415002024C4020000B583B002238DF884
:1027E00000300022022107481DF0ABFE0346019392
:1027F0006B46082118461DF0EAFE00BF03B05DF8E5
:1028000004FB00BF006A180000B583B0064A074BFE
:10281000D31A9B100193019A054904481DF04CFFFF
:1028200000BF03B05DF804FB581603005816030000
:10283000642E002000B585B000F080F8FFF7E4FFBB
:102840001F4B039319E0002302930EE0039B1A68C9
:10285000029B9B001A44039B5968029B9B000B44FC
:1028600012681A60029B01330293039B9B68029AD1
:102870009A42EBD3039B0C330393039B114A93427D
:10288000E1D3114B019314E00023009309E0019B75
:102890001A68009B9B00134400221A60009B0133BE
:1028A0000093019B5B68009A9A42F0D3019B083326
:1028B0000193019B054A9342E6D3FEF723FC00BF38
:1028C000300F03003C0F03003C0F03003C0F0300DC
:1028D00082B003468DF807309DF90730002B0CDBE2
:1028E0009DF8073003F01F0205499DF907305B0989
:1028F000012000FA02F241F8232000BF02B0704725
:1029000000E100E082B003468DF807309DF9073002
:10291000002B0DDB9DF8073003F01F0206499DF9DF
:1029200007305B09012000FA02F2603341F82320EE
:1029300000BF02B0704700BF00E100E008B51E4BC9
:102940001E4A9A601C4BD3F888301B4A43F470032C
:10295000C2F888301A4B03F580531A464FF40043EF
:102960009366184B03F500531A464FF0FF33136676
:10297000144B03F500531A464FF6DF735366124BA0
:1029800002221A60BFF34F8F00BFBFF36F8F00BFEB
:102990000320FFF7B7FF0B4B03F500531A464FF424
:1029A0004033D3600320FFF793FF064B4FF44032D0
:1029B0001A6100BF08BD00BF00ED00E0000000008C
:1029C0000080005000800044D0ED00E0014B1B6807
:1029D000184670477C0B002000B583B0002301939C
:1029E0000E4B1B6F03F00703032B09D0032B0FD8EB
:1029F000012B09D0022B0BD1FFF7E8FF019008E073
:102A0000074B1B68019304E0064B019301E0FFE7CD
:102A1000FDE7019B184603B05DF804FB0080005001
:102A2000740B0020002D310100B583B0FFF7D4FFF7
:102A300001900A4B1B6F1B0B03F00F030093009BCD
:102A40000133019AB2FBF3F30193054A019B136032
:102A5000019B184603B05DF804FB00BF00800050E6
:102A6000800B0020014B1846704700BF00B4C4041F
:102A7000014B1B6818467047740B002000B583B0EB
:102A80000190074A019B1360064B1B6F03F007037D
:102A9000032B01D1FFF7C8FF00BF03B05DF804FBB3
:102AA000740B002000800050014B1846704700BF97
:102AB000002D3101014B1B6818467047780B002030
:102AC00084B001900B4B1A68019B13440A4A93424D
:102AD00002D94FF0FF3309E0064B1B680393054B07
:102AE0001A68019B1344034A1360039B184604B001
:102AF000704700BF840B00200080002000B589B023
:102B00000390039B0793079B1B68069301213A20C0
:102B100001F0A0F8069B1879069B5B791946002303
:102B200001221EF09BFA069B1A79069B5B791946D7
:102B300010461DF022FE0346002B0CBF012300238C
:102B4000DBB21A46069B1A70069B9B79022B43D177
:102B50001EF063F8069B1879069B5979079B214A5A
:102B600000F0AAFD0590059BFF2B15D1069B5B7914
:102B7000079A1C49184600F01FFE0590069B18791D
:102B8000069B5B79194601230193012300930123DE
:102B9000059A02F05FFE1FE0069B1879069B5B79A1
:102BA0001946012300930023059A02F0E7FE069BD5
:102BB0005B79079A0B49184600F0FEFD0590069BCD
:102BC0001879069B5B791946012301930023009332
:102BD0000123059A02F03EFE0023184609B05DF875
:102BE00004FB00BFEB07020000B585B003468DF87B
:102BF00007309DF80730002B01D0012300E00023AF
:102C00000393039A002103481DF0BEFE00BF05B0E8
:102C10005DF804FB44C4035000B585B00023039362
:102C20000023ADF80A300023ADF8083000230193EB
:102C300001213A2001F00EF8012304220321002093
:102C40001EF00CFA01981EF004FA0120FFF7CCFFE9
:102C50004FF4607001F030F803902D4B1B682C4A44
:102C600043F0010313602A4BDB68294A43F0807369
:102C7000D3600123ADF80A300F23ADF80830BDF85A
:102C80000A305A02BDF808305B001A432149224B32
:102C900013430B60039B03F5D52303F2FC43DB08CE
:102CA0001E4AA2FB03239B0A1D4A013B13611C4BD6
:102CB0000222C3F8F0201A4B4FF48072C3F80423A9
:102CC0004FF06043174AC3F8B02F4FF06043164AE5
:102CD000C3F8802E4FF06043D3F8003E4FF06042BF
:102CE00043F48073C2F8003E4FF06043FF2283F844
:102CF00020204FF06043D3F8003E4FF0604223F4B1
:102D00008073C2F8003E0023184605B05DF804FB4E
:102D1000F0ED00E0001000E0E101004017916502D5
:102D2000000004E055CEACC50900010082B001905E
:102D30000B468DF803304FF06043D3F8803E03F02C
:102D40000103002B22D0134BDB68124A43F080733F
:102D5000D3604FF06043D3F8002E0121019B01FAAC
:102D600003F34FF060411343C1F8003E4FF060425F
:102D7000019B52F82330002BE5D04FF06041019BBE
:102D80009DF8032001F82320002300E011231846BA
:102D900002B07047F0ED00E082B0034600918DF87C
:102DA00007309DF80730002B0AD09DF80730012B23
:102DB00006D09DF80730022B02D09DF80730032B78
:102DC00008489DF807200121009B994013465B00AD
:102DD00013441B01034403F500531033196000BF73
:102DE00002B0704700C0035082B0034600918DF8D6
:102DF00007309DF80730002B0AD09DF80730012BD3
:102E000006D09DF80730022B02D09DF80730032B27
:102E100008489DF807200121009B994013465B005C
:102E200013441B01034403F580531033196000BFA2
:102E300002B0704700C0035082B0034600918DF885
:102E400007309DF80730002B0AD09DF80730012B82
:102E500006D09DF80730022B02D09DF80730032BD7
:102E600008489DF807200121009B994013465B000C
:102E700013441B01034403F540531033196000BF92
:102E800002B0704700C0035000B585B001900091BA
:102E9000204B1B7883F00103DBB2002B01D01E4BCB
:102EA00034E0019B002B01D11C4B2FE01EF04CF8AD
:102EB00002900023039322E0194A039B1B01134451
:102EC0000C331B7883F00103DBB2002B14D0019B81
:102ED000039A1A60124A039B1B0113440C3301220C
:102EE0001A700F4A039B1B01134400221A600298B8
:102EF0001EF03AF8002309E0039B01330393039B80
:102F0000072BD9D902981EF02FF8064B184605B0AA
:102F10005DF804FB792D0020028000F0018000F0B4
:102F2000C8150020048000F000B585B000238DF89E
:102F30000B301EF009F80190002303930EE0154AB0
:102F4000039B1B0113440C331B78002B03D001237C
:102F50008DF80B3005E0039B01330393039B072B94
:102F6000EDDD9DF80B3083F00103DBB2002B09D0BF
:102F700002F0F4FD084B00221A7001981DF0F4FFD6
:102F8000002303E001981DF0EFFF044B184605B045
:102F90005DF804FBC8150020792D0020058000F0A5
:102FA00000B585B00190164B1B7883F00103DBB2AE
:102FB000002B01D0134B1FE0019B072B01D9124BB3
:102FC0001AE01DF0C1FF0390104A019B1B0113443E
:102FD0000C331B78002B0BD00C4A019B1B011344B4
:102FE0000C3300221A7003981DF0BEFF002303E08B
:102FF00003981DF0B9FF064B184605B05DF804FBB9
:10300000792D0020028000F0018000F0C81500201A
:10301000068000F000B585B0194B1B6801930023B2
:103020008DF804301DF090FF0290164B1B78002B9A
:1030300004D002981DF098FF134B1DE0114B0122A4
:103040001A7002981DF090FF0023039309E00F4AC5
:10305000039B1B0113440C3300221A70039B0133A2
:103060000393039B072BF2DD08238DF8073001AB98
:10307000184602F0A3FD0023184605B05DF804FBD6
:1030800028C40200792D0020038000F0C81500201C
:1030900000B583B00190124B1B7883F00103DBB2C3
:1030A000002B01D00F4B17E0019B072B01D90E4BD2
:1030B00012E00E4A019B1B0113440C331B7883F072
:1030C0000103DBB2002B01D0094B05E0019B00217D
:1030D000184602F05DFD0023184603B05DF804FBBE
:1030E000792D0020028000F0018000F0C81500203A
:1030F000078000F000B583B00190124B1B7883F07D
:103100000103DBB2002B01D00F4B17E0019B072B13
:1031100001D90E4B12E00E4A019B1B0113440C33E4
:103120001B7883F00103DBB2002B01D0094B05E0D3
:10313000019B0121184602F02BFD0023184603B025
:103140005DF804FB792D0020028000F0018000F082
:10315000C8150020078000F000B583B00190124B25
:103160001B7883F00103DBB2002B01D00F4B16E07C
:10317000019B072B01D90E4B11E00E4A019B1B014D
:1031800013440C331B7883F00103DBB2002B01D016
:10319000094B04E0019B184602F0E2FD00231846AB
:1031A00003B05DF804FB00BF792D0020028000F021
:1031B000018000F0C8150020078000F082B0019067
:1031C0000091194B1B7883F00103DBB2002B01D077
:1031D000164B25E0019B072B02D8009B002B01D149
:1031E000134B1DE0134A019B1B0113440C331B7846
:1031F00083F00103DBB2002B01D00F4B10E00F4B2B
:103200001B6D0121019A01FA02F21340002B03D039
:10321000009B01221A7002E0009B00221A7000231A
:10322000184602B0704700BF792D0020028000F0E0
:10323000018000F0C8150020078000F00000045055
:1032400000B583B001900091154B1B7883F001030A
:10325000DBB2002B01D0134B1DE0019B072B02D8E2
:10326000009B002B01D1104B15E0104A019B1B0164
:1032700013440C331B7883F00103DBB2002B01D025
:103280000B4B08E0019B184602F08AFD03461A46E4
:10329000009B1A700023184603B05DF804FB00BFC2
:1032A000792D0020028000F0018000F0C815002078
:1032B000078000F000B587B0364B1B6D0393354B8C
:1032C0005B6D039A13400393039B002B01DA00BF4D
:1032D000FDE7002305930123049353E0039A049B25
:1032E0001340002B48D02B4B03F500531A46049B88
:1032F0001365059B1B01284A13440293029B1B681C
:10330000002B39D0029B9B685A1C029B9A60029B3F
:103310001B68029A9168029A52680598984703467A
:10332000002B14BF01230023DBB283F00103DBB2C7
:103330008DF807309DF8073003F001038DF8073052
:10334000029B5B7B012B17D19DF80730002B13D01C
:10335000124A059B5B01134403F1080213796FF3D2
:10336000410313710D4A059B5B01134403F11802DD
:1033700013796FF341031371059B01330593049B8C
:103380005B000493059B072BA8D900BF00BF07B0C3
:103390005DF804FB00000450C8150020481600200A
:1033A00010B58AB00292019303468DF80F300B4698
:1033B0008DF80E307B4B1B7883F00103DBB2002BC2
:1033C00001D0794BEBE0029B072B10D80C9B002B14
:1033D0000DD00D9B002B0AD0109BB3F5006F06DCBF
:1033E0009DF80F30012B04D10E9B002B01D16F4BA8
:1033F000D5E0029B1B016E4A13440993099B1B7B7A
:1034000083F00103DBB2002B01D06A4BC7E004ABB1
:1034100000221A605A609A60DA60029B5B01664A79
:10342000134408939DF80E30002B1DD1089B1A46BB
:103430000023136053609360D360089A937843F03D
:1034400010039370089AD37843F03003D3709DF83B
:103450003C3083F00103DBB2002B22D0089AD378F2
:1034600043F00303D3701CE0089B1A46002313604B
:1034700053609360D360089A937843F0100393707D
:10348000089AD37843F00303D3709DF83C3083F05F
:103490000103DBB2002B04D0089AD37843F0300349
:1034A000D370019B0493109B9BB2013B9BB2C3F36F
:1034B0000A0399B2089A138861F30E1313800C9AC9
:1034C000089B9A600D9A089B5A609DF8443003F05F
:1034D0000303D9B2089AD37861F38303D3709DF8BC
:1034E0000F30012B3BD1089A137B43F00103137378
:1034F000089A137B43F002031373089AD3680421DC
:1035000061F39F03D3602C4A029B5B01134403F1D8
:103510001002089B14460FCB84E80F00264A029B3A
:103520005B01134403F1180253686FF0030161F368
:103530009F0353600E9A2049029B5B010B44143396
:103540001A609DF80E30012B09D10D9A1A49029B81
:103550005B010B4418331A600E9A089B5A60129B49
:10356000002B08D19DF80F30002B04D1089A9378D6
:103570006FF304139370099B129A1A60099B139AB4
:103580005A60099B00229A60099B9DF80F205A738C
:10359000029B04A9089A184602F054FB002318461F
:1035A0000AB010BD792D0020028000F0018000F0EB
:1035B000C8150020078000F04816002082B003469E
:1035C0008DF807309DF90730002B0CDB9DF8073094
:1035D00003F01F0205499DF907305B09012000FA3D
:1035E00002F241F8232000BF02B0704700E100E082
:1035F00082B003468DF807309DF90730002B0DDBB4
:103600009DF8073003F01F0206499DF907305B095A
:10361000012000FA02F2603341F8232000BF02B01B
:10362000704700BF00E100E082B00190044B03F559
:1036300000531A46019BC2F8203400BF02B0704705
:1036400000C00350024BD3F824341846704700BF23
:1036500000C0035082B0064BD3F824340193044BCE
:10366000D3F82024019B1340184602B0704700BFD6
:1036700000C0035000B585B0034600918DF80730B7
:103680001DF062FC03909DF807300A4A1B011344A9
:103690000433009A1A609DF80730064A1B01134450
:1036A0000C3300221A7003981DF05EFC00BF05B0B9
:1036B0005DF804FB4817002000B587B00292019323
:1036C00003468DF80F300B468DF80E30FF2305931F
:1036D0001DF03AFC04909DF80F30002B06D19DF8A8
:1036E0000E30052B02D10023059340E09DF80F30EA
:1036F000012B06D19DF80E30012B02D10323059337
:1037000035E09DF80F30012B06D19DF80E30032BCC
:1037100002D1042305932AE09DF80F30022B06D135
:103720009DF80E30002B02D1062305931FE09DF873
:103730000F30022B06D19DF80E30052B02D1072346
:10374000059314E09DF80F30022B06D19DF80E3042
:10375000072B02D10823059309E09DF80F30032BB6
:1037600005D19DF80E30022B01D109230593059B4D
:10377000FF2B17D0059B10330E4A1B011344043353
:10378000029A1A60059B10330A4A1B01134408333E
:10379000019A1A60059B1033064A1B0113440C332F
:1037A00001221A7004981DF0DFFB059B184607B034
:1037B0005DF804FB4817002000B58BB0034602916A
:1037C00001928DF80F30FF2309931DF0BDFB079088
:1037D0009DF80F2040F6FC7313400693FFF732FF6D
:1037E000059000238DF8233019E09DF80F209DF8F7
:1037F0002330134403F00303069A13440493059AF9
:10380000049B22FA03F303F00103002B02D1049B73
:10381000099308E09DF8233001338DF823309DF89B
:103820002330032BE1D9099BFF2B14D00E4A099BAF
:103830001B0113440433029A1A600B4A099B1B01B3
:1038400013440833019A1A60074A099B1B01134469
:103850000C3301221A7007981DF086FB099B18464D
:103860000BB05DF804FB00BF4817002000B587B01F
:1038700001902BE001981DF0BAF905900122059BFB
:1038800002FA03F3DB43019A13400193059B1B01EA
:10389000124A13440493049B5B68002B16D0049BCC
:1038A0001B7B002B0AD0049B5B680293059BDAB25A
:1038B000049B9968029B1046984707E0049B5B684D
:1038C0000393059BDAB2039B10469847019B002B9C
:1038D000D0D100BF00BF07B05DF804FB481700203F
:1038E00008B5054B1B68054A12681146184612F0C8
:1038F000B7FB0346184608BD880B0020A80B002024
:1039000084B003468DF807309DF90730B3F1FF3FCF
:1039100004D0002B05D10023039305E0044B03934F
:1039200002E0044B039300BF039B184604B07047AA
:1039300021E000F024E000F000B58BB0039002918C
:103940000192029B0893039B0793019B9B000693A4
:10395000069A0899079828F003F903468DF817305E
:103960009DF917301846FFF7CBFF0990099B002BF4
:1039700009D1069A0899079827F059F90346002BB0
:1039800001D0034B0993099B18460BB05DF804FB6B
:1039900010E000F000B585B00190019828F0DCF847
:1039A00003468DF80B309DF90B301846FFF7A8FF42
:1039B0000390039B002B0ED102F0D6FA0346194662
:1039C00001981DF06DF9034683F00103DBB2002B73
:1039D00001D0034B0393039B184605B05DF804FB2D
:1039E0000EE000F008B51DF099FA0346014A136095
:1039F00000BF08BD881F002008B5034B1B68184690
:103A00001DF098FA00BF08BD881F002008B500BF50
:103A1000042104481DF0F6F90346002BF8D100BF3D
:103A200000BF08BD8440005008B5FFF7EFFF044B0E
:103A3000D3F884309B0903F00303DBB2184608BDBA
:103A400000400050054BDB6903F48033002B14BFAA
:103A500001230023DBB21846704700BF000003506B
:103A6000024B0022DA6300BF704700BF0000035022
:103A7000024B41F67132DA6300BF70470000035019
:103A8000014B9B68184670470000035082B00190BC
:103A9000024A019B936000BF02B0704700000350D0
:103AA00084B0019000230393019BB3F5607F21D084
:103AB000019BB3F5607F34D8019BB3F5207F29D0FB
:103AC000019BB3F5207F2CD8019BB3F5007F19D063
:103AD000019BB3F5007F24D8019B002B03D0019BF1
:103AE000B3F5C07F1DD1124B1B6F1B0B03F00F03EF
:103AF000039317E00E4BD3F880301B0903F0030348
:103B000003930FE00A4BD3F890301B0E03F01F0312
:103B1000039307E0064B1B6F9B0A03F0010303931B
:103B200000E000BF039B0133184604B0704700BF9C
:103B30000080005010B582B001900091019BB3F558
:103B4000607F49D0019BB3F5607F7CD8019BB3F5C2
:103B5000207F68D0019BB3F5207F74D8019BB3F51B
:103B6000007F4ED0019BB3F5007F6CD8019B002BEA
:103B700003D0019BB3F5C07F65D1009B012B0AD018
:103B8000009B022B07D0009B042B04D0009B082B2A
:103B900001D0009B102B1DF0B7F91DF0ADF901F01D
:103BA00043F82B4B1B6F23F47042009B013B1B031C
:103BB000274913430B671DF006F90446FFF734FF4E
:103BC0000346C3F10203194620461DF066F901F0D1
:103BD000E9F901F035F837E0009B012B04D0009B98
:103BE000022B01D0009B042B194BD3F8803023F01B
:103BF0003002009B013B1B0115491343C1F8803083
:103C000022E0009B002B01D0009B202B104BD3F80F
:103C1000903023F0F852009B013B1B060C491343E4
:103C2000C1F8903010E0009B012B01D0009B022BCB
:103C3000074B1B6F23F48062009B013B9B020449EE
:103C400013430B6700E000BF00BF02B010BD00BF10
:103C50000080005000B585B001900B468DF8033010
:103C600000230393019B5B09002B0FD0019B5B0991
:103C7000012B02D10D4B039308E0019B5B09022B42
:103C800002D10B4B039301E00A4B0393019B03F01A
:103C90001F0302939DF803301A46029903981DF002
:103CA00098F800BF05B05DF804FB00BF64800050C9
:103CB000688000506082005010B584B001900023ED
:103CC000039300230293019BB3F5F06F00F0C282CF
:103CD000019BB3F5F06F00F2C382019BB3F5E06F77
:103CE00000F0B282019BB3F5E06F00F2B982019B54
:103CF000B3F5D06F00F0A282019BB3F5D06F00F254
:103D0000AF82019BB3F5C06F00F09282019BB3F5C7
:103D1000C06F00F2A582019BB3F5B06F00F07C820A
:103D2000019BB3F5B06F00F29B82019BB3F5A06FCE
:103D300000F06C82019BB3F5A06F00F29182019BB1
:103D4000B3F5906F00F05C82019BB3F5906F00F2C9
:103D50008782019BB3F5806F00F04C82019BB3F525
:103D6000806F00F27D82019BB3F5607F00F03382AB
:103D7000019BB3F5607F00F27382019BB3F5407F36
:103D800000F01C82019BB3F5407F00F26982019B29
:103D9000B3F5207F00F00682019BB3F5207F00F28F
:103DA0005F82019BB3F5007F00F0F081019BB3F5CA
:103DB000007F00F25582019BB3F5C07F00F0E181E6
:103DC000019BB3F5C07F00F24B82019B002B00F0FA
:103DD000D881019BB3F5807F00F24282019B202BAA
:103DE000C0F03E82019B203BE02B00F2398201A211
:103DF00052F823F083410000A541000083410000F8
:103E0000A5410000F5410000F5410000F54100002A
:103E1000F5410000A5410000A54100001942000045
:103E2000BD410000314200003D420000BD410000A4
:103E3000A5410000A5410000A5410000614200002D
:103E400061420000614200006142000061420000E6
:103E5000614200000D42000001420000A541000047
:103E6000A5410000A5410000554200004942000064
:103E7000A541000061420000614200006142000073
:103E800061420000614200006142000061420000A6
:103E90006142000061420000614200006142000096
:103EA0006142000061420000834100006142000065
:103EB000834100008341000083410000F541000080
:103EC0006142000061420000614200006142000066
:103ED0006142000061420000614200006142000056
:103EE0006142000061420000614200006142000046
:103EF00061420000834100008341000061420000F4
:103F00006142000061420000614200006142000025
:103F10006142000061420000614200006142000015
:103F20006142000061420000614200006142000005
:103F300061420000614200006142000061420000F5
:103F400061420000614200006142000061420000E5
:103F500061420000614200006142000061420000D5
:103F600061420000614200006142000061420000C5
:103F7000614200007941000061420000614200009E
:103F800061420000614200006142000061420000A5
:103F90006142000061420000614200006142000095
:103FA0006142000061420000614200006142000085
:103FB0006142000061420000614200006142000075
:103FC0006142000061420000614200006142000065
:103FD0006142000061420000614200006142000055
:103FE0006142000061420000614200006142000045
:103FF0006142000061420000614200006142000035
:104000006142000061420000614200006142000024
:104010006142000061420000614200006142000014
:104020006142000061420000614200006142000004
:1040300061420000614200006142000061420000F4
:1040400061420000614200006142000061420000E4
:1040500061420000614200006142000061420000D4
:1040600061420000614200006142000061420000C4
:1040700061420000614200006142000061420000B4
:1040800061420000614200006142000061420000A4
:104090006142000061420000614200006142000094
:1040A0006142000061420000614200006142000084
:1040B0006142000061420000614200006142000074
:1040C0006142000061420000614200006142000064
:1040D0006142000061420000614200006142000054
:1040E0006142000061420000614200006142000044
:1040F0006142000061420000614200006142000034
:104100006142000061420000614200006142000023
:104110006142000061420000614200006142000013
:104120006142000061420000614200006142000003
:1041300061420000614200006142000061420000F3
:1041400061420000614200006142000061420000E3
:1041500061420000614200006142000061420000D3
:1041600061420000614200006142000061420000C3
:104170006142000025420000FEF72EFC0346039337
:104180006FE0FEF751FC034603936AE0FEF724FC60
:1041900004464FF40070FFF783FC0346B4FBF3F3CF
:1041A00003935EE0FEF740FC04464FF42070FFF7F7
:1041B00077FC0346B4FBF3F3039352E0FEF734FCC1
:1041C00004464FF42070FFF76BFC0346B4FBF3F397
:1041D0005B08039345E002AB002118461CF071FE1A
:1041E000029C4FF46070FFF75BFC0346B4FBF3F3F3
:1041F000039336E003AB0021184600F079FD30E070
:1042000003AB0021184600F089FC2AE003AB002133
:10421000184600F0DDFC24E003AB0021184600F056
:104220008DFE1EE003AB0021184600F05DFF18E094
:1042300003AB0021184600F09DFD12E003AB002106
:10424000184600F005FF0CE003AB0021184600F013
:10425000C3FE06E003AB0021184600F0CDFD00E0F0
:1042600000BF039B184604B010BD00BF00B585B069
:10427000019000230393019BB3F5086F00F02681A2
:10428000019BB3F5086F00F23381019BB3F5006F1A
:1042900000F01081019BB3F5006F00F22981019BB2
:1042A000B3F5F06F00F00081019BB3F5F06F00F201
:1042B0001F81019BB3F5E06F00F01481019BB3F502
:1042C000E06F00F21581019BB3F5D06F00F0F8802C
:1042D000019BB3F5D06F00F20B81019BB3F5C06F6A
:1042E00000F0DC80019BB3F5C06F00F20181019BFF
:1042F000B3F5B06F00F0C080019BB3F5B06F00F272
:10430000F780019BB3F5A06F00F0E680019BB3F549
:10431000A06F00F2ED80019BB3F5906F00F0CA80B2
:10432000019BB3F5906F00F2E380019BB3F5806FC2
:1043300000F0A880019BB3F5806F00F2D980019B4B
:10434000B3F5807F00F0A480019BB3F5807F00F27D
:10435000CF80019B522B69D8019B242BC0F0C880D1
:10436000019B243B2E2B00F2C38001A252F823F0C4
:104370008544000085440000854400008544000019
:10438000F1440000F144000079440000F1440000D1
:104390009D440000C1440000F1440000F1440000CD
:1043A000F1440000F1440000F1440000F144000039
:1043B000F1440000F1440000F1440000F144000029
:1043C000D9440000F1440000F1440000F144000031
:1043D000F1440000A9440000E5440000F14400005D
:1043E000F1440000F1440000F1440000F1440000F9
:1043F000F1440000F1440000F1440000F1440000E9
:10440000F1440000F1440000F1440000F1440000D8
:10441000F1440000F1440000F1440000F1440000C8
:10442000F1440000F144000085440000019B802B12
:104430005ED1324B1B6F03F00703013B032B17D8F0
:1044400001A252F823F000BF6B4400005944000061
:104450005F44000065440000052303930BE0032341
:10446000039308E00723039305E00223039302E08C
:104470000023039300BF3CE003AB1946002000F08B
:104480005DFD36E003AB1946002000F031FC30E062
:1044900003AB1946002000F027FE2AE003AB1946C3
:1044A000002000F067FC24E003AB1946002000F078
:1044B000A3FC1EE003AB1946002000F02FFB18E020
:1044C00003AB1946002000F0C3FD12E003AB194610
:1044D000002000F0CBFB0CE003AB1946002000F0FD
:1044E00077FB06E003AB1946002000F075FD00E005
:1044F00000BF039B184605B05DF804FB0080005028
:10450000074B03F580531A464FF400235366054BBF
:1045100003F580531A460123936200BF704700BF22
:104520000080005000C0005000B585B00190019897
:10453000FFF79CFE0290029B082B07D0029B082BE2
:1045400020D3029B093B012B1CD804E0134B1B8892
:10455000ADF80E301BE0124B03F580531A464FF4B2
:10456000001353660F4B5B6A03F00103002B04D06A
:104570004FF4FA73ADF80E3009E04FF6FF73ADF863
:104580000E3004E04FF6FF73ADF80E3000BFBDF8FB
:104590000E30184605B05DF804FB00BF680E002021
:1045A000008000500040025000B583B00190802090
:1045B000FFF75CFE0346032B00F0E280724B03F52D
:1045C00080531A464FF400235366704B45F60E0293
:1045D000C3F880206D4B03F580531A460223936283
:1045E0006A4B03F500531A460123936200BF674BE1
:1045F0009B6D03F48033002BF9D1019B1B681A06D5
:10460000019B5B681B051A43019B1B7B1B041A4320
:10461000019B5B7B1B031A43019B9B7B9B01134309
:10462000019AD27B1146594A0B431361574B9B6940
:1046300003F00042019B1B699B061A43019B5B69C7
:104640001B061A43019B1B7E1B041A43019B5B7EC6
:104650001B021343019A927E11464C4A0B4393610D
:104660004A4B1B6A23F00D03019AD269002A01D13B
:10467000002200E008221A43019BDB7E9B001A43C4
:10468000019BDB69414913430B62019BDB69002BF2
:1046900057D13E4B9B6A23F03302019B93F82030A5
:1046A0005B011A43019B93F821301B011343374AE6
:1046B00043F00103936200BF344B9A6D344B1340B7
:1046C000334A9342F8D1314B03F580531A46022303
:1046D00093622E4B02221A6500BF2C4B9B6D03F098
:1046E0008043002BF9D1294B1B6923F47002019BF5
:1046F0009B681B05254913430B61244B03F580532D
:104700001A464FF000439361019B93F8223083F0E7
:104710000103DBB2002B05D01C4B03F500531A46F6
:1047200002239362019B93F8233083F00103DBB2F1
:10473000002B1BD0154B03F500531A46012393623F
:1047400014E0124B9B6A23F03302019B93F8203054
:104750005B011A43019B93F822305B001343019ADB
:1047600092F823201146094A0B439362019B93F868
:104770002430002B05D0054B064AC3F8802000E00A
:1047800000BF03B05DF804FB0080005000C0005083
:1047900003000140F1A7FFFF00B585B00190354B44
:1047A0009B6A0293019BFF2B01D921235DE0314BD2
:1047B0009B6D03F48033002B05D02E4B03F5805303
:1047C0001A46012393622B4B03F580531A460223AA
:1047D0009362284B9B6D03F48033002B06D000BFFF
:1047E000244B9B6D03F00203002BF9D0214B03F502
:1047F00080531A460223136500BF1E4B9B6D03F0C6
:104800008043002BF9D100F039F803461A46019B8A
:1048100013440393039B002B02DA0023039304E069
:10482000039BFF2B01DDFF230393124B9B6923F4B2
:104830007F0323F47F43039A12041A43019B1B0254
:104840009BB20C4913438B61029A02210A481CF067
:10485000E6FA084B9B6D03F48033002B04D0029AD8
:10486000012105481CF0DBFA0023184605B05DF86D
:1048700004FB00BF00C0005028C00050024B93F959
:1048800000301846704700BF7A2D002000B583B075
:104890002A4B9B6A0193294B03F580531A46012347
:1048A000936200BF254B9B6D03F00303032BF9D1EB
:1048B000224B03F580531A46022393621F4B03F5E4
:1048C00080531A460223136500BF1C4B9B6D03F0F7
:1048D0008043002BF9D100BF184B9A6D184B134041
:1048E000174A9342F8D1154B03F580531A4601231A
:1048F000136500BF114B9B6D03F00203022BF9D02F
:1049000000BF0E4B9B6D03F00203002BF9D00B4B45
:1049100003F580531A460223136500BF074B9B6DB6
:1049200003F00203002BF9D0019A032105481CF083
:1049300076FA00BF03B05DF804FB00BF00C0005072
:104940000300010028C0005084B001904F2303935E
:10495000019B5B788DF80B309DF80B20039B9342F5
:1049600028BF13468DF80A30284B03F580531A46AA
:104970004FF480035366264B4FF4D1525A62244BB6
:1049800003F580531A4602235360214B03F500536D
:104990001A460123536000BF1D4B1B6903F480338B
:1049A000002BF9D1019B1B781A029DF80A30184997
:1049B00013434B61019B5B681A02019B9B681B01BF
:1049C0001A43019B1B7B5B001343019A527B1146E8
:1049D0000F4A0B439360019B9B7B5A01019BDB7B3E
:1049E0001B011A43019B1B7C5B001343019A527C01
:1049F0001A43074B5A60019B9B7C002B03D0044B4E
:104A00006FF4D1525A6200BF04B07047008000506A
:104A10000000025082B00346ADF80630034ABDF8EC
:104A20000630138000BF02B0704700BF680E002040
:104A300082B00346ADF80630034ABDF80630138055
:104A400000BF02B0704700BF6A0E002000B587B0FB
:104A500003468DF8073000230393002305930023BA
:104A60000493274B03F580531A464FF40013536603
:104A7000244B02225A6000BF224B9B6803F4803310
:104A8000002BF9D19DF80730012B2ED1FDF7F0FF57
:104A90000390039B1C4A934205D11C4B059345F69A
:104AA0007A13049317E0039B194A934205D1194BDB
:104AB000059345F61A0304930DE0039A13469B00F1
:104AC00013445B0A0593144B0493039B5B0A049AFB
:104AD000B2FBF3F304930B4A059BD362094A049B90
:104AE0001363084B01225A6202E0064B00225A620D
:104AF000044B00225A6000BF07B05DF804FB00BF02
:104B0000008000500040025000F04902D8B8050073
:104B1000C0175302BBCF05006466666600B585B05A
:104B20000190009100230393284BD3F8243103F024
:104B30000703062B37D801A252F823F0A14B00003F
:104B4000594B0000714B0000894B0000954B000051
:104B5000654B00007D4B0000FDF738FF03900523F7
:104B6000029323E0FDF732FF0390062302931DE03A
:104B7000FDF77EFF03900323029317E0FDF778FF14
:104B800003900423029311E0FDF78EFF03900223AC
:104B900002930BE01BF0A8FD03900723029305E0AE
:104BA0000123029302E00023029300BF019B002B2C
:104BB00002D0019B039A1A60009B002B02D0009B3D
:104BC000029A1A6000BF05B05DF804FB0080005037
:104BD00000B583B001900091124BD3F8203203F05E
:104BE0000303012B02D0022B05D009E000990198A4
:104BF00000F07EF811E00099019800F0BBF80CE09D
:104C0000019B002B02D0019B00221A60009B002B0D
:104C100002D0009B00221A6000BF00BF03B05DF805
:104C200004FB00BF00800050044B03F580531A467C
:104C30004FF48033136700BF704700BF00800050FF
:104C400008B58020FFF738F80346064A934206D895
:104C5000054B03F500531A464FF48033136700BF2A
:104C600008BD00BF005A62020080005000B585B048
:104C700001900091002303931C4BD3F8003103F003
:104C80000303032B1FD801A252F823F0C14C0000EC
:104C90009D4C0000A94C0000B54C0000FDF7E8FE5B
:104CA00003900323029311E0FDF704FF0390082310
:104CB00002930BE01BF018FD03900723029305E01D
:104CC0000123029302E00023029300BF019B002B0B
:104CD00002D0019B039A1A60009B002B02D0009B1C
:104CE000029A1A6000BF05B05DF804FB0080005016
:104CF00000B585B001900091002303931C4BD3F8BD
:104D0000203103F00303032B1FD801A252F823F034
:104D1000454D0000214D00002D4D0000394D000093
:104D2000FDF754FE03900523029311E0FDF7A0FE6A
:104D30000390032302930BE0FDF7B6FE03900223DA
:104D4000029305E00123029302E00023029300BFD7
:104D5000019B002B02D0019B039A1A60009B002B41
:104D600002D0009B029A1A6000BF05B05DF804FBF8
:104D70000080005000B585B001900091002303939E
:104D80001C4BD3F8403103F00303032B1FD801A2BF
:104D900052F823F0C94D0000A54D0000B14D0000B0
:104DA000BD4D00001BF0A3FC03900923029311E00A
:104DB000FDF780FE0390082302930BE01BF09BFCA1
:104DC00003900B23029305E00123029302E00023EA
:104DD000029300BF019B002B02D0019B039A1A6033
:104DE000009B002B02D0009B029A1A6000BF05B006
:104DF0005DF804FB0080005000B585B00190009183
:104E0000002303931C4BD3F8603103F00303032BFF
:104E10001FD801A252F823F04D4E0000294E000089
:104E2000354E0000414E00001BF061FC0390092349
:104E3000029311E0FDF73EFE0390082302930BE07E
:104E40001BF059FC03900B23029305E0012302930E
:104E500002E00023029300BF019B002B02D0019BC4
:104E6000039A1A60009B002B02D0009B029A1A60E2
:104E700000BF05B05DF804FB0080005084B00190D5
:104E800000914FF440130393009B002B0AD1019B28
:104E90000D4A934203D94FF4801303930FE000238C
:104EA00003930CE0009B002B09DD019B064A934213
:104EB00003D94FF48013039301E000230393039B72
:104EC000184604B0704700BF005A620200B585B0B2
:104ED00001900091184B03F580531A464FF40033AC
:104EE00093660020FEF7DCFD0246019B02FB03F304
:104EF0000193FEF7A7FD03468DF80F30FEF7B8FDCE
:104F0000FEF7BEFD034623F4401302930099019877
:104F1000FFF7B4FF0246029B134302930298FEF789
:104F2000B5FD9DF80F30002B01D0FEF799FD00BFB5
:104F300005B05DF804FB00BF0080005000B585B0EF
:104F40000190009100230293154BD3F8803103F0B8
:104F50000303012B02D0022B08D00EE002AB00218C
:104F60001846FFF7C5FE0F23039309E0FDF79CFDEC
:104F7000034602930223039302E00023039300BF3E
:104F8000019B002B02D0029A019B1A60009B002B10
:104F900002D0009B039A1A6000BF05B05DF804FBC5
:104FA0000080005000B583B0022301934FF4C0701D
:104FB000FEF782FE0346074A934201D8012301937C
:104FC00001994FF42070FEF7B5FD00BF03B05DF806
:104FD00004FB00BF80F0FA0200B585B0019000919B
:104FE00000230393194BD3F8403203F00303032B40
:104FF00012D0032B16D8012B02D0022B06D011E0C1
:105000001BF075FB0390092302930EE0FDF752FDA0
:1050100003900823029308E01BF06DFB03900B2321
:10502000029302E00023029300BF019B002B02D0F9
:10503000019B039A1A60009B002B02D0009B029AEE
:105040001A6000BF05B05DF804FB00BF008000508F
:1050500000B585B00190009100230393214BD3F854
:10506000003203F00703042B29D801A252F823F0E1
:10507000B950000085500000915000009D50000084
:10508000A95000001BF033FB03900923029319E0A1
:10509000FDF710FD03900823029313E01BF02BFB98
:1050A00003900B2302930DE0FDF7BEFC03469B0A21
:1050B00003930E23029305E00123029302E00023F1
:1050C000029300BF019B002B02D0019B039A1A6040
:1050D000009B002B02D0009B029A1A6000BF05B013
:1050E0005DF804FB0080005000B585B00190009190
:1050F00000230393114B1B6803F00403002B06D01D
:10510000FDF792FC034603930C23029305E002AAE9
:1051100003AB11461846FFF72DFE019B002B02D072
:10512000039A019B1A60009B002B02D0029A009BFD
:105130001A6000BF05B05DF804FB00BF10E000E09E
:10514000054B5B68C3F30803002B14BF0123002346
:10515000DBB21846704700BF00ED00E084B00346A4
:105160008DF807309DF90730002B02DB9DF90730E1
:105170003F2B0C4B03939DF907305A09039B53F8BF
:1051800022209DF8073003F01F0322FA03F303F0F7
:105190000103002B0CBF01230023DBB2184604B02F
:1051A000704700BF00E100E0024B034A1A6400BFF1
:1051B000704700BF004009503254FFFF024B4AF6CF
:1051C000CD321A6400BF70470040095008B500BFD7
:1051D000042104481BF0D8FE0346002BF8D100BF81
:1051E00000BF08BD8440005008B5FFF7EFFF044B37
:1051F000D3F884309B0903F00303DBB2184608BDE3
:105200000040005082B00190044B03F500531A4651
:10521000019BC2F8203400BF02B0704700C00350A9
:1052200000B585B003468DF807309DF80730002B98
:1052300013D12D4B00221A602C4B03F580531A46D4
:105240004FF4003353662A4B5B68012B47D1274B41
:10525000D3F80031244A136041E0234B1B68002B34
:105260003DD0234B5B68012B39D0204A1E4B1B6875
:10527000C2F800318020FEF7F9FF0346052B28D144
:105280004FF4C070FEF70CFC0390039B012B04D17C
:1052900002214FF4C070FEF74DFC154B03F500538F
:1052A0001A4607231361124B03F580531A46012354
:1052B000536000BF0E4B1B6903F00103002BF9D0B4
:1052C000039B012B0BD101214FF4C070FEF732FC80
:1052D00005E0074B03F580531A460123536000BFD6
:1052E00005B05DF804FB00BF4020002000800050A6
:1052F00000C0015000B583B00190019B1A78054BA6
:105300001A700121002000F0A3F800BF03B05DF87F
:1053100004FB00BF3C20002082B00190064B5B6F75
:1053200023F44072019B5B781B02034913434B67D4
:1053300000BF02B0704700BF0040005000B585B00C
:1053400003468DF807309DF80730002B02D000206F
:10535000FFF766FF164B1B69154A43F00403136100
:1053600004F032FD1BF02BFE1248FFF74BFF1BF041
:10537000D5FD039026F0F8FB03981BF0DBFD1BF036
:1053800020FE04F053FD9DF80730002B02D00120D1
:10539000FFF746FF9DF8073083F00103DBB2002BD7
:1053A00001D01BF0ECFD00BF05B05DF804FB00BFB1
:1053B00000ED00E00000FF0F00B585B003468DF85A
:1053C00007309DF80730002B02D00020FFF728FFA0
:1053D000144B1B69134A43F0040313611248FFF78F
:1053E00011FF04F0F1FC1BF099FD039026F0BCFBCB
:1053F00003981BF09FFD04F019FD9DF80730002B6A
:1054000002D00120FFF70CFF9DF8073083F0010365
:10541000DBB2002B01D01BF0B2FD00BF05B05DF880
:1054200004FB00BF00ED00E00000FF0F82B0019020
:10543000064BDB6E23F03003019A12791146034AC2
:105440000B43D36600BF02B0704700BF004000505E
:1054500000B585B001900B468DF80330019B002B01
:1054600003D1FDF7B9FA039001E0019B03930D4BC3
:105470001B78002B0AD0039B0B4A934206D89DF859
:1054800003301946012000F011F806E09DF80330C2
:105490001946022000F00AF800BF00BF05B05DF811
:1054A00004FB00BF3C200020005A620210B586B009
:1054B00003460A468DF8073013468DF80630FFF78D
:1054C00093FE03461A469DF80730934240D0FDF7FD
:1054D00083FA0590059B04939DF80730012B03D1B7
:1054E000012105981BF0D9FC1BF018FD03901A4B05
:1054F00003F500531A464FF0007353669DF80730CA
:1055000018461BF06CFD144C9DF8073018461BF034
:1055100048FD0346236702E00F4BD3F884300E4B5F
:105520005B6E03F00073002B06D10B4BD3F8843075
:1055300003F02003002BEFD003981BF0FBFC9DF839
:105540000730022B05D1002105981BF0A6FC00E0D6
:1055500000BF06B010BD00BF0040005000B587B0CE
:1055600003468DF807300023059300230493444B32
:1055700003F580531A464FF000435366414B03F541
:1055800080531A46012353603E4B5B6C03F00103CA
:10559000002B14BF012300238DF80F30FFF70EFE00
:1055A0009DF80730002B2BD1364B9B6803F001038D
:1055B0000293029B002B19D0324B03F500531A467D
:1055C0000123936002E0049B013304932D4BDB6ABB
:1055D00003F00103002B03D1049B2B4A9342F2D921
:1055E000049B294A934201D907230593254B03F5D0
:1055F00000531A460123536035E0049B01330493A2
:10560000204BDB6A03F00803002B03D0049B1E4AE7
:105610009342F2D9049B1C4A934202D90723059373
:1056200021E0184B03F500531A4620235362154B13
:1056300003F580531A46012393600023049302E08C
:10564000049B013304930F4B5B6A03F02003002B90
:1056500003D1049B0C4A9342F2D9049B0A4A934219
:1056600001D9072305939DF80F30002B01D0FFF7D8
:105670009BFD24F072FC059B184607B05DF804FB07
:1056800000800050004009503F420F0000B585B037
:1056900001902B4B03F580531A464FF0004353669D
:1056A000284B03F580531A4601235360254B5B6C4E
:1056B00003F00103002B14BF012300238DF80F30EA
:1056C000FFF77CFD019B5B785B001F4A43F0010301
:1056D000D3631C4B9B6823F07402019B9B781B01D6
:1056E0001343019AD278002A01D0042200E000225C
:1056F000144913438B60019B1B791B02019A927919
:105700001146104A0B431361019B5B791B02019AFE
:10571000D27911460B4A0B435361019B1B78184603
:10572000FFF71CFF9DF80F30002B01D0FFF73CFD69
:1057300024F013FC0123184605B05DF804FB00BFFC
:1057400000800050004009500040005084B00346E3
:105750008DF807300F4BDB6E03F030030393039B90
:10576000202B13D09DF80730002B08D0094BDB6E9F
:1057700023F03003074A43F01003D36607E0054BDC
:10578000DB6E044A23F03003D36600E000BF04B0B0
:10579000704700BF0040005082B00190044B03F5F9
:1057A00000531A46019BC2F8203400BF02B0704774
:1057B00000C0035082B0034600918DF807309DF879
:1057C0000730002B0AD09DF80730012B06D09DF83A
:1057D0000730022B02D09DF80730032B08489DF8B4
:1057E00007200121009B994013465B0013441B01D5
:1057F000034403F500531033196000BF02B0704733
:1058000000C0035082B0034600918DF807309DF828
:105810000730002B0AD09DF80730012B06D09DF8E9
:105820000730022B02D09DF80730032B08489DF863
:1058300007200121009B994013465B0013441B0184
:10584000034403F580531033196000BF02B0704762
:1058500000C0035000B587B0029101921A4603467A
:105860008DF80F3013468DF80E30002305939DF808
:105870000F30002B0AD09DF80F30012B06D09DF879
:105880000F30022B02D09DF80F30032B019B072B0A
:105890000FD8019B9B00032202FA03F19DF80F2011
:1058A000019B9B0002FA03F31A462D481BF0B7FB3D
:1058B00011E0019B083B0593059B9B00032202FA24
:1058C00003F19DF80F20059B9B0002FA03F31A4693
:1058D00024481BF0A4FB019B072B10D8019B9B00C5
:1058E000032202FA03F1029B03F00302019B9B00D7
:1058F00002FA03F31A461C481BF091FB0FE0059BCC
:105900009B00032202FA03F1029B03F00302059BB2
:105910009B0002FA03F31A4614481BF080FB9DF823
:105920000E301A46019912481BF060FB9DF820309A
:105930001A4601990F481BF059FB0122019B02FAFC
:1059400003F31846FFF728FF9DF824301A46019903
:1059500009481BF04BFB00BF07B05DF804FB00BF1C
:1059600000C4035004C4035008C403500CC40350C3
:1059700010C4035014C4035024C4035000B587B0AE
:10598000029101921A4603468DF80F3013468DF8A6
:105990000E309DF80F30002B0AD09DF80F30012BF0
:1059A00006D09DF80F30022B02D09DF80F30032B4C
:1059B0009DF80E3083F00103DBB29DF80F00032247
:1059C00002991BF04BFB9DF80E20019B103302FA4D
:1059D00003F30593019B1033012202FA03F30493AE
:1059E0000599049800F00EF8019B10339DF82020D3
:1059F000194603481BF0FAFA00BF07B05DF804FB34
:105A000024C4035000B583B001900091124BD3F829
:105A10003024019BDB4310491340C1F830340E4B56
:105A2000D3F830240199009B0B400B491343C1F874
:105A30003034094BD3F82C240749019B1343C1F898
:105A40002C340120FFF782FE0198FFF7A5FE00BF6E
:105A500003B05DF804FB00BF00C0035082B00346F2
:105A60008DF807309DF90730002B0CDB9DF80730CF
:105A700003F01F0205499DF907305B09012000FA78
:105A800002F241F8232000BF02B0704700E100E0BD
:105A900082B003468DF807309DF90730002B13DBE9
:105AA0009DF8073003F01F0209499DF907305B0993
:105AB000012000FA02F2203341F82320BFF34F8F78
:105AC00000BFBFF36F8F00BF00BF02B0704700BFC1
:105AD00000E100E082B003468DF807309DF9073001
